:020000040001F9
:10F0000078BC002015F201001DF201001FF2010082
:10F0100021F2010023F2010025F2010000000000AE
:10F0200000000000000000000000000027F20100C6
:10F0300029F20100000000002BF201002DF2010076
:10F04000650202002FF201003D0802002FF20100CC
:10F050002FF201002FF2010021FF01002FF2010029
:10F060002FF201002FF201002FF201002FF2010018
:10F070002FF201002FF201002FF201002FF2010008
:10F080002FF20100BD0202002FF201002FF2010059
:10F09000490502002FF201004D0502002FF2010088
:10F0A0002FF201002FF201002FF201002FF20100D8
:10F0B0002FF201002FF2010000000000000000000C
:10F0C0002FF201002FF201002FF201002FF20100B8
:10F0D000E10202002FF201002FF201000000000007
:10F0E0000000000000000000000000000000000020
:10F0F0000000000000000000000000000000000010
:10F1000000000000000000000000000000000000FF
:10F1100000000000000000000000000000000000EF
:10F1200000000000000000000000000000000000DF
:10F1300000000000000000000000000000000000CF
:10F1400000000000000000000000000000000000BF
:10F1500000000000000000000000000000000000AF
:10F16000000000000000000000000000000000009F
:10F17000000000000000000000000000000000008F
:10F18000000000000000000000000000000000007F
:10F19000000000000000000000000000000000006F
:10F1A000000000000000000000000000000000005F
:10F1B000000000000000000000000000000000004F
:10F1C000000000000000000000000000000000003F
:10F1D000000000000000000000000000000000002F
:10F1E000000000000000000000000000000000001F
:10F1F000000000000000000000000000000000000F
:10F20000DFF80CD000F0A4F900480047E9510200F3
:10F2100078BC00200648804706480047FEE7FEE726
:10F22000FEE7FEE7FEE7FEE7FEE7FEE7FEE7FEE7B6
:10F230007105020001F201002DE9F05F0546002092
:10F2400092469B4688460646814640241BE0284657
:10F2500041464746224600F00DF953465A46C01A29
:10F26000914110D311461846224600F0F4F82D1AA9
:10F2700067EB01084F4622460120002100F0EBF821
:10F2800017EB00094E41201EA4F10104DFDC4846C3
:10F2900031462A464346BDE8F09F000000487047CB
:10F2A00030A4020040EA01039B0703D009E008C92B
:10F2B000121F08C0042AFAD203E011F8013B00F83B
:10F2C000013B521EF9D27047D2B201E000F8012B87
:10F2D000491EFBD270470022F6E710B513460A46D6
:10F2E00004461946FFF7F0FF204610BD421C10F8F7
:10F2F000011B0029FBD1801A704730B5044600205D
:10F30000034600E05B1C934203D2E05CCD5C401BF3
:10F31000F8D030BD034611F8012B00F8012B002A6C
:10F32000F9D1184670472DE9FE4F81EA030404F035
:10F33000004421F0004100944FF0000B23F0004303
:10F3400050EA01045ED052EA03045BD0C3F30A54CE
:10F35000C1F30A552C44A4F2F3340194A0FB0254E7
:10F36000C1F3130141F48011C3F3130343F4801379
:10F3700001FB024400FB034E840A970A44EA8154CD
:10F3800047EA8357A4FB076802958D0A05FB0785AA
:10F390004FEA932C04FB0C542705029D4FEA0658B4
:10F3A00047EA1637B5EB08056EEB070C870E920E91
:10F3B00047EA811742EA8312A7FB0201B6EB0B0171
:10F3C00064EB00042B0D43EA0C335E1844EB1C5035
:10F3D000DA465146E7FB0201C5F313044FEA0B334B
:10F3E00043EA14534FEA0432019C43EA0603A4F1B2
:10F3F0000C040294009CCDE900B400F05AF803B06C
:10F40000BDE8F08F00200146F9E70EB540F2334128
:10F4100002910021CDE900110A460B4600F049F89F
:10F4200003B000BDC1F30A5210B5C1F3130140F29D
:10F43000FF3341F480119A4201DA002010BD40F2FE
:10F4400033439A42A2F2334203DC524200F012F8F4
:10F4500010BD904010BD202A04DB203A00FA02F1D2
:10F46000002070479140C2F1200320FA03F31943B2
:10F4700090407047202A04DB203A21FA02F0002154
:10F48000704721FA02F3D040C2F1200291400843B4
:10F490001946704710B5141E73F1000408DA401CB9
:10F4A00041F1000192185B411A4301D120F00100A3
:10F4B00010BD2DE9F04D92469B4611B1B1FA81F293
:10F4C00002E0B0FA80F220329046FFF7C4FF044613
:10F4D0000F4640EA0A0041EA0B0153465A460843E8
:10F4E00013D0114653EA010019D0C8F1400250462A
:10F4F000FFF7C0FF05460E46504659464246FFF705
:10F50000AAFF084305D0012004E020463946BDE8A3
:10F51000F08D0020054346EAE0762C4337430A98F5
:10F520006305E40AA0EB08000022FD0A44EA475400
:10F530000A3002D500200146E9E7010510196941AA
:10F54000DDE9084500196941BDE8F04DA2E700007A
:10F55000064C074D06E0E06840F0010394E8070020
:10F5600098471034AC42F6D3FFF74EFE6CA602006B
:10F570008CA6020030B58C1810F8012B12F00F0386
:10F5800001D110F8013B120906D110F8012B03E05C
:10F5900010F8015B01F8015B5B1EF9D101E001F895
:10F5A000013B521EFBD1A142E6D3002030BD00003A
:10F5B0002DE9FF5FB14DAE4CAE4E112794F800C05F
:10F5C000DFF8B4B26B7BEA7BAD48297C4FF0010ACF
:10F5D0004FF00009BCF1110F1ED2DFE80CF01D093D
:10F5E0001F2843515A6084A6E0FDFCFBFAF9F8009D
:10F5F000C0F8009002202070A2A1032006F0AEFF08
:10F6000030797378B278F1788DE80F007379B27938
:10F61000A4A1032006F0BEFFBDE8FF9F00680F28ED
:10F62000FAD9AAA1032006F099FF042078E3B5A136
:10F63000032006F093FF02F025FE78B12770B8A1F1
:10F64000032006F08BFF70780822401C70700121A7
:10F6500004B0701CBDE8F05F02F082BD0420207091
:10F66000B8A156E3C0F80090BD4981F800A07078B9
:10F67000BCA1401C7070032006F070FF05204FE312
:10F6800000680F28C8D9BFA1032006F067FF072232
:10F690009BE0C4A1032006F061FF072040E3C0F80F
:10F6A0000090C7A1032006F059FF714985F80D901D
:10F6B0000222091DCA4802F033FF38B10922012194
:10F6C000701C02F04DFD2770C6A122E36B480C228E
:10F6D0000C38C16881600146C14802F041FF002832
:10F6E000ECD108201CE300680A2801D9C8A15AE01F
:10F6F000012B91D14FF00908012A03D0022903D030
:10F70000CEA15CE0012909D084F80080D7A10320B4
:10F7100006F024FFE2A1FCE20A2256E0E7A1032062
:10F7200006F01CFF84F8008076E7C0F80090EBA19B
:10F73000032006F013FF4E4985F80D900222891D23
:10F74000A74802F0EDFE38B109220121701C02F039
:10F7500007FD2770E9A1DCE248490E222331A048C9
:10F7600002F0FEFE38B109220121701C02F0F8FC03
:10F770002770EEA1CDE2584606F094F83C490222EB
:10F780000831974802F0CCFE38B109220121701CE3
:10F7900002F0E6FC2770F0A1BBE20A20C0E200689C
:10F7A000052805D9F8A1032006F0D8FE09220CE0AF
:10F7B000012BB9D1022A01D101290ED0FBA10320CE
:10F7C00006F0CCFE2A7C012AA6D00121BEE2C7E2C7
:10F7D000A8E292E27BE22FE010E0FEA1032006F017
:10F7E000BDFE0B20207001221146701C02F0B8FCF7
:10F7F00004B05846BDE8F05F06F054B8C0F8009079
:10F800001B4985F80D900122491C754802F088FEBD
:10F8100038B102221146701C02F0A2FC2770F3A13D
:10F8200077E2FDA1032006F099FE0C20207085F8F8
:10F8300022A085F80CA0EFE695F822100129FAD154
:10F84000297B0029F7D14FF014088346C0F80090B7
:10F8500085F8229068892989421C02EB8202B1EB6B
:10F86000820F03D2424202EB8202E7E1EAE10000AA
:10F8700025260020FC250020A0860100949700206A
:10F88000F82500203A494E464F3A3E2053746172A3
:10F8900074206C696E6B2062726163656C657420A4
:10F8A000000000003A494E464F3A25303258202594
:10F8B000303258202530325820253032582025301B
:10F8C000325820253032580D0A0000003A494E4681
:10F8D0004F3A3E204C696E6B2062726163656C65C5
:10F8E00074206F75742074696D652074727920744A
:10F8F0006F206C696E6B20446675546172670D0AE7
:10F90000000000003A494E464F3A3E204C696E6B6B
:10F910002062726163656C6574206F6B0D0A000074
:10F920003A494E464F3A3E20456E746572206272E7
:10F930006163656C657420646675206661696C0D31
:10F940000A0000003A494E464F3A3E20456E746523
:10F950007220646675206D6F64650D0A00000000FA
:10F96000F22500203A494E464F3A3E2053746172C8
:10F9700074206C696E6B20446675746172670D0A41
:10F98000000000003A494E464F3A3E204C696E6BEB
:10F990002044667574617267206F75742074696D98
:10F9A000650D0A003A494E464F3A3E204C696E6B4F
:10F9B0002044667574617267206F6B0D0A00000049
:10F9C0003A494E464F3A3E204446552076616C698E
:10F9D00064617465206669726D776172650D0A00F5
:10F9E000383900203A494E464F3A3E2057726974E2
:10F9F000652076616C6964617465206669726D77F3
:10FA000061726520636D64206572726F720D0A0009
:10FA10003A494E464F3A3E20576169742076616CF0
:10FA20006964617465206669726D77617265206FC3
:10FA300075742074696D650D0A0000003A494E46E0
:10FA40004F3A3E2056616C69646174652066697244
:10FA50006D77617265206E6F7420726967687420BB
:10FA6000726573706F6E73650D0A00003A494E46F9
:10FA70004F3A3E2056616C69646174652066697214
:10FA80006D7761726520726573706F6E7365206942
:10FA90006E76616C69642073746174650D0A000090
:10FAA0003A494E464F3A3E2054727920746F20698D
:10FAB0006E6974204466750D0A0000003A494E468E
:10FAC0004F3A3E2056616C696461746520666972C4
:10FAD0006D77617265206F6B0D0A00003A494E46E2
:10FAE0004F3A3E2044465520696E69742070617219
:10FAF000616D65746572730D0A0000003A494E46E7
:10FB00004F3A3E20577269746520696E697420709F
:10FB10006172616D657465727320737461727420B3
:10FB2000636D64206572726F720D0A003A494E4629
:10FB30004F3A3E20577269746520696E697420706F
:10FB40006172616D657465727320636D64206572A6
:10FB5000726F720D0A0000003A494E464F3A3E203D
:10FB6000577269746520696E697420706172616D85
:10FB7000657465727320656E6420636D64206572C0
:10FB8000726F720D0A0000003A494E464F3A3E200D
:10FB90005761697420696E697420646675206F7599
:10FBA000742074696D650D0A000000003A494E46E4
:10FBB0004F3A3E20496E697420446675206E6F741A
:10FBC00020726967687420726573706F6E73650D5B
:10FBD0000A0000003A494E464F3A3E20496E697489
:10FBE00020646675206F6B0D0A0000003A494E468E
:10FBF0004F3A3E20577269746520737461727420A5
:10FC00006669726D7761726520636D6420657272DA
:10FC10006F720D0A000000003A494E464F3A3E20EE
:10FC20005374617274206669726D776172652074B5
:10FC300072616E736665720D0A00000001EB82014D
:10FC400001F0FF0800EB800005EB800142464A48C6
:10FC5000313102F085FC38B109220221701C02F01A
:10FC60007FFA277045A154E0E888401CE880688945
:10FC7000401C80B26881401E00EB8000298908EB9F
:10FC8000800088427FF450AD85F80CA0012202214B
:10FC9000701C02F065FAE88840A1401E00EB80006D
:10FCA00008EB8002032006F05DFCE888A988884202
:10FCB000E8D1401E00EB8000296808EB80008842F4
:10FCC000E0D1CBF800900D2020703BA121E000682E
:10FCD0000F2801D944A106E0012BD3D1032A01D179
:10FCE000012904D04AA1032006F038FC3FE053A1CB
:10FCF000032006F033FC0E2012E0C0F8009085F8D7
:10FD00000D90012256491C4802F00AFC38B12770B8
:10FD100054A104B00320BDE8F05F06F01FBC0F2023
:10FD2000207079E400680F2801D959A1DBE7012B85
:10FD3000F7D1042A01D101290CD05FA1032006F0DC
:10FD40000DFC2A7C012A00D10A220221701C02F03B
:10FD500007FA0CE063A1032006F000FC1020DFE7A7
:10FD60003F490122491C044802F0DAFB08B1277020
:10FD700052E464A1B7E70000383900203A494E4602
:10FD80004F3A3E205772697465206669726D7761DB
:10FD90007265206572726F720D0A00003A494E4614
:10FDA0004F3A3E205472616E73666572202564205E
:10FDB00062797465730D0A003A494E464F3A3E2007
:10FDC0005472616E73666572206F7665722C77610E
:10FDD0006974207472616E736665722072657370E7
:10FDE0006F6E73650D0A00003A494E464F3A3E2049
:10FDF00057616974207472616E7366657220646104
:10FE00007461206F75742074696D650D0A000000BF
:10FE10003A494E464F3A3E205472616E736665729F
:10FE20002064617461206E6F742072696768742049
:10FE3000726573706F6E73650D0A00003A494E4625
:10FE40004F3A3E205472616E736665722066697225
:10FE50006D77617265206F766572210D0A00000072
:10FE6000272600203A494E464F3A3E205772697481
:10FE70006520636865636B206669726D7761726582
:10FE800020636D64206572726F720D0A00000000BD
:10FE90003A494E464F3A3E2057616974206368657F
:10FEA000636B206669726D77617265206F7574206F
:10FEB00074696D650D0A00003A494E464F3A3E207E
:10FEC000436865636B206669726D77617265206E49
:10FED0006F7420726967687420726573706F6E73D7
:10FEE000650D0A003A494E464F3A3E204368656325
:10FEF0006B206669726D77617265206F6B210D0AE8
:10FF0000000000003A494E464F3A3E2044667520B4
:10FF10006669726D77617265206F6B210D0A000052
:10FF20002DE9F04700268CB0DFF86091B0464FF421
:10FF30008075012437460696284606F0CFF938B179
:10FF4000D9F80403204203D0284606F0BDF9264321
:10FF50002D1D64007F1CADB2082FEDD34FF4BE748D
:10FF6000204606F0BBF948B1204606F0ADF946F050
:10FF7000004606AA0121002006F092F9444D16F031
:10FF8000FF0F15D00127002437420DD009EB840163
:10FF9000D1F81005D1F81015C0F3042055F824202D
:10FFA000C1F3014102B190477F00641C082CEBD3E0
:10FFB000002E67DA4FF0FF30CDE908800026344686
:10FFC000281910F8507F90F9000027F0C008401C55
:10FFD00044D009A9404605F00BFB58B34FEA9719E6
:10FFE000404603F0A5F855F820701FB1B9F1030F92
:10FFF00003D00FE0B9F1030F30D108A84FEAD802BF
:020000040002F8
:1000000008F00703815C4FF0010C0CFA03FC41EA95
:100010000C0181544FF0A04101EB8800D0F800079B
:1000200006A9C0F3014A404605F0E2FA18B1BAF158
:10003000020F03D012E0BAF1030F0FD1B9F1030F91
:1000400008D1BAF1020F1BD00221404606F00CF98C
:10005000761CF6B217B149464046B847641C042CDA
:10006000AED3002E0ED06A460121002006F018F90A
:1000700006990098884205D00690089809909DE757
:100080000321E2E70CB0BDE8F0870000006000400B
:100090005C39002081070CD16421B0FBF1F201FB37
:1000A000120141B94FF4C871B0FBF1F201FB12002B
:1000B00008B100207047012070470000F0B58DB0F6
:1000C000054625216C4601A8FFF705F93748006869
:1000D00000900020ADF82C00354850F8131F019116
:1000E0004068029055F8050F0390A888ADF81000FD
:1000F000687B40428DF812006F8CADF82C70B8B25E
:100100000646FFF782F99FED2B1B53EC112BFFF7EF
:100110000AF99FED2A1B53EC112BFFF704F9FFF7A7
:1001200081F9ADF830008C207043FFF76EF99FED38
:10013000251B53EC112BFFF7F6F89FED241B53EC16
:10014000112BFFF7F0F8FFF76DF9ADF82C0095F8DB
:100150002750AA2204210DF11900FFF7B5F8ADF8D8
:100160001D70BDF83000ADF81F00BDF82C00ADF8D3
:100170002100FF208DF825509DF803208DF82600E2
:1001800002219DF80100121D03E0635C5840491CE8
:10019000C9B28A42F9D860542144CA204870292142
:1001A000684600F0BDFF0DB0F0BD00007CA302006A
:1001B000F02500200000000000804140F36F3C4427
:1001C0004882453FCDCCCCCCCCCCDC3F7B14AE4779
:1001D000E17A843F00F01F02012191404009800034
:1001E00000F1E020C0F88012704700F01F020121EA
:1001F00091404009800000F1E020C0F88011704774
:1002000000F01F02012191404009800000F1E02030
:10021000C0F80011704700F01F0201219140400911
:10022000800000F1E020C0F80011704700F01F02CC
:10023000012191404009800000F1E020C0F8001247
:1002400070474907090E002806DA00F00F0000F198
:10025000E02080F8141D704700F1E02080F80014C1
:10026000704700002DE9F0414FF48077384605F0E3
:100270007DFA0124104EA50748B1384605F07DFAF5
:100280000120C5F808037470002002F0B3FF4FF49A
:100290008277384605F06AFA00280BD0384605F018
:1002A0006CFA0220C5F80803B470BDE8F0410120E3
:1002B00002F0A0BFBDE8F0814839002007480021C6
:1002C000C0F84011C0F84411C0F84811C0F84C11F2
:1002D000C0F80011C0F8041109F094B900100140F1
:1002E00004220021014805F02FBD0000004002401B
:1002F0002DE9F043314E324F324C7068B0FBF7F3CA
:100300007088984231D0738040F2B2754FF4B7795B
:100310004FF4B6780FE02846FFF7BCFE38B14B45E6
:1003200002D3A3F5B77304E06D1CADB205E0A3F2F0
:100330006D136D1CADB24345EDD8E5800025DFF8A7
:1003400088800CE0E088FFF7A5FE08B1012D30D0D1
:1003500018F80500984204D81B1A6D1CADB21C2B6E
:10036000F0D26D1C25705B1C63707068B0FBF7F1F8
:1003700007FB11004FF46161B0FBF1F2A270B0FB1A
:10038000F1F201FB12033C22B3FBF2F3E370B0FB8A
:10039000F1F301FB1300B0FBF2F102FB110020713D
:1003A00062782178E08800F011F820720020BDE822
:1003B000F0831D2BD5D31D3BCFE700001026002076
:1003C000805101007C970020A0A3020030B5642476
:1003D000B0FBF4F3B0FBF4F5DBB204FB1500132B18
:1003E00001D96430C0B200EB90040723B4FBF3F5ED
:1003F00003FB1544084D22440D44800715F8015CA9
:100400002A4492B203D1032901D2521E92B2B2FB06
:10041000F3F003FB102030BD94A302002DE9F04F50
:10042000994605460023A0F2B270DDF824B092464A
:100430008846822802D30120BDE8F08F40F2B274D2
:10044000204E214F08E02046FFF724FE08B1334438
:1004500000E03B44641CA4B2AC42F4D3A8F1010018
:10046000C6B20024194FDFF868800FE0385D40F213
:10047000A32110FB01F003EBC0132846FFF70AFE8F
:1004800010B1012C00D14344641CA4B2B442EDD39A
:1004900040F2A3211AFB01F00D4903EBC0104942C1
:1004A0000844C9EB4912C2EB092100EB0110CBEB68
:1004B0000B1100EB81000A990844064948600020AE
:1004C000BAE700000085E2018033E101A0A3020049
:1004D000805101001026002003480078002801D137
:1004E00000F0BAB970470000DC3E002070B50E463F
:1004F000144900EB400001EBC0051446E86A1835CA
:1005000020B101280FD0022805D113E0284600F0C1
:10051000D7F9A04201D2002411E0224631462846F4
:1005200000F006FA0BE0284600F0CAF9A042F4D227
:100530000446F2E73146284600F0CDF9044620464D
:1005400070BD0000DC3E002008F0AABF074810B5CF
:10055000406830B18047002807D0BDE8104001F066
:100560005DB8BDE8104004F0BDBA10BDD82500202C
:10057000F0B5A3480023021D01780125101D4FF09E
:10058000805406290BD11678360708D10678C6F3B1
:100590000316032E06D0042E04D0052E02D0062901
:1005A00007D00EE0B4F82463964FC6F304263E60ED
:1005B00002E01678360704D10678C6F30316032E38
:1005C00002D0062904D00FE0904F8F4E7E670EE0D8
:1005D0001678360708D10678C6F30316032E06D020
:1005E000042E04D0052E02D0062907D00EE0D4F840
:1005F0004462874FC6F342363E6002E01678360703
:1006000004D10678C6F30316032E02D0062906D0BD
:1006100011E0804E376827F0807737600EE016785B
:10062000360708D10678C6F30316032E06D0042E2B
:1006300004D0052E02D006290AD011E04FF08046E2
:10064000C6F80C31C6F81031714E361F336002E027
:100650001678360704D10678C6F30316032E02D0A7
:10066000062905D00CE06A4F032664373E600AE095
:100670001678360704D10678C6F30316032E02D087
:1006800006290DD014E0644F05263E60624E783690
:100690003560614E083633603F263F1D3E6002E004
:1006A0001678360704D10678C6F30316052E02D055
:1006B000062957D068E059490968594A11605749D5
:1006C000091D0968121D1160544908310968121D7D
:1006D000116052490C310968121D11604F491031E7
:1006E0000968121D11604D4914310968121D11600D
:1006F0004A49183109684A4A2032116047491C3179
:100700000968121D1160454920310968121D1160E8
:10071000424924310968121D116040492831096895
:10072000121D11603D492C310968121D11603B49B1
:10073000303109683A4A4032116038493431096829
:10074000121D1160354938310968121D1160334995
:100750003C310968121D1160304940310968121D91
:10076000116002E0117809070ED10078C0F3031080
:10077000032803D0042801D0052805D1D4F8580255
:10078000284900F04F00086022487438016841F49D
:1007900070010160BFF34F8FBFF36F8F4FF01021D7
:1007A000D1F80002002803DBD1F80402002822DA85
:1007B0001D4A15601D480468002CFCD01524C1F8A2
:1007C00000420568002DFCD0C1F8044201680029F0
:1007D000FCD0136001680029FCD0BFF34F8F0D4897
:1007E000F0380168124A01F4E06111430160BFF37F
:1007F0004F8F00BFFDE710490E480860F0BD0000B4
:10080000E00F00F0403501400DF0ADBA00C00740E8
:100810003C050040FCED00E01056004004040010D0
:1008200020C50040E40E004004E5014000E4014022
:100830000400FA050090D003302600200448017F10
:1008400004480029024901D009F0BDB909F02CB9CA
:10085000B43900200020004010B5124C0220206165
:10086000606111A0A061A4F50470E0614FF4007014
:1008700020620020A06260620BA1A164E062A4F18A
:100880001001E16410212165A0656065E06509A1A2
:10089000E01DFEF73FFD08A12046FEF73BFD2020AE
:1008A000A07110BDDC3E00205465726D696E616CF4
:1008B0000000000052545400534547474552000081
:1008C0000269C1688A4203D88068401A104400E077
:1008D000501A401E70472DE9F047C46817468946F4
:1008E00006464FF000083069A04201D9051B02E01E
:1008F000B168201A0D1AB0686D1E001BA84200D8FE
:100900000546BD4200D33D4670682A46204449460C
:10091000FEF7C8FCB0687F1B2C44A844A944A04241
:1009200000D10024F460002FDDD14046BDE8F087FF
:100930002DE9F041C6680446174688468068851B45
:100940006068BD4206D93044FEF7ACFCF019E060A7
:10095000BDE8F0812A463044FEF7A4FC7E1B08EB7C
:10096000050132466068FEF79DFCE660F0E7000096
:100970000FB41CB50246002007AC00290BD0491E5D
:10098000CDE90021054B6A462146069800F02AF879
:10099000009A002111701CBC5DF814FB470E020088
:1009A00002E008C8121F08C1002AFAD17047704738
:1009B000002001E001C1121F002AFBD17047000096
:1009C0000121202803DA81400548014003E0402846
:1009D00002DA2038814009B10120704700207047B9
:1009E000FC06FFBD2DE9FF4F8DB00F4605460026E2
:1009F00006E025280BD0DDE90F1290476D1C761C10
:100A000028780028F5D111B03046BDE8F08F0024D9
:100A1000A246A1460122EC4900E0044315F8013F3B
:100A2000203B02FA03F00842F7D128782A2810D098
:100A30006FF02F022878A0F13001092914D80AEBB1
:100A40008A0102EB410144F0020400EB010A6D1C33
:100A5000F0E701CF5FEA000A03D544F40054CAF17D
:100A6000000A44F002046D1C28782E2817D115F8CE
:100A7000010F44F004042A280ED06FF02F022878CA
:100A8000A0F1300109290AD809EB890102EB4101E3
:100A900000EB01096D1CF2E757F8049B6D1C2878E8
:100AA0006C280FD006DC4C2817D068280DD06A2897
:100AB00014D104E0742810D07A280FD10DE044F44A
:100AC00000140AE044F4801401E044F4401469780E
:100AD000814202D104F580146D1C6D1C2A786E2AA7
:100AE0001FD00CDC632A31D004DC002A8BD0582ABA
:100AF00011D1A3E0642A68D0692A0CD165E0732A79
:100B00002ED004DC6F2A73D0702A04D19BE0752AA2
:100B10006FD0782A6ED01046DDE90F129047761C10
:100B200050E1C4F30250022806D0032809D004285B
:100B300001CF09D0066045E101CFF117C0E900619E
:100B400040E101CF06803DE106703BE117F8040B60
:100B50008DF8000000208DF80100EB46012003E035
:100B600057F804BB4FF0FF3061074FF0000102D48B
:100B70000DE008F10101884649450FDA8045F8DBB0
:100B80001BF808100029F4D108E008F1010188469B
:100B90008142FADB1BF808100029F6D1DDE90F23AA
:100BA000AAEB08008146214600F036F9304400EBFC
:100BB000080604E0DDE90F121BF8010B9047B8F1BD
:100BC0000108F7D221464846F7E00A21C4F3025350
:100BD0004FF0000B0891022B04D001CFC117032B5B
:100BE00009D00AE0FF1D27F00707F7E8020108E037
:100BF00032E01FE020E000B2C117042B01D140B267
:100C0000C117031E71F1000307DA4FF0000CD0EB9F
:100C10000C006CEB01012D2302E0230504D52B23EE
:100C20008DF82430012303E0E30701D02023F7E708
:100C3000984658E00A2110E010210EE010204FF0F5
:100C4000000B08900CE010214FF0000B44F004045E
:100C50004FF00809089103E008214FF0000B0891BC
:100C6000C4F30253022B04D001CF0021032B06D082
:100C700006E0FF1D27F00707F7E8020103E080B256
:100C8000042B00D1C0B24FF0000823072BD5702AE7
:100C900007D0DDF820C08CF0100C5CEA0B0C05D0FE
:100CA0000EE040238DF82430012308E050EA0103D0
:100CB00006D030238DF824308DF825200223984665
:100CC000DDF820C08CF0080C5CEA0B0C0BD150EA6C
:100CD000010301D1630706D530238DF824304FF08E
:100CE0000108A9F10109582A04D038A20B9208AAD8
:100CF0000A920BE03AA2F9E75B46089AFEF79CFAE3
:100D00000B9B9B5C0A9A521E0A92137050EA0102D6
:100D1000F2D10A98ADEB000000F1200B600702D57C
:100D200024F4803401E04FF00109D94502DDA9EB3C
:100D30000B0000E0002000EB0B0141440890AAEBFF
:100D4000010AE00306D4DDE90F232146504600F0F6
:100D500063F806444FF0000908E009A911F80900FA
:100D6000DDE90F12904709F10109761CC145F4DB5A
:100D7000E0030CD5DDE90F232146504600F04CF886
:100D8000064404E0DDE90F1230209047761C0899F4
:100D9000481E08900029F5DC08E00A980A990078B6
:100DA000491C0A91DDE90F129047761CBBF1000146
:100DB000ABF1010BF1DC21465046DDE90F2300F0D9
:100DC00019F806446D1C1BE6092801003031323346
:100DD0003435363738396162636465660000000077
:100DE0003031323334353637383941424344454661
:100DF000000000002DE9F041044600251E4617467C
:100E0000880404D405E039462020B0476D1C641ED8
:100E1000F9D52846BDE8F0812DE9F04104460025CA
:100E20001E469046C80301D5302700E020278804DD
:100E300004D505E041463846B0476D1C641EF9D51F
:100E40002846BDE8F0814A68002A06D00A68531C8B
:100E50000B6010704868401E4860704710B560B164
:100E600059B102780B785208B2EB530F05D1062224
:100E7000401C491CFEF741FA08B1002010BD0120BA
:100E800010BD2DE9FC47002517880646158090F80F
:100E90002D001446894630B13A462146484601F0B5
:100EA0002FF9050009D1B0784FF00C0A18B320884B
:100EB000C846001DB84202D95046BDE8FC876846C6
:100EC00079DF0028F9D12088032108F80010208854
:100ED0001921401C80B2208008F800102088401C96
:100EE00080B2208000EB0801BDF8000008F0E3FEAE
:100EF000218808442080F0780222C8B1218896F920
:100F0000033001F1030C4846BC45D5D84254218832
:100F10004FF0010C491C89B2218000F801C02188E2
:100F2000491C89B2218009F801302088401C2080AA
:100F30007068B8B1218890F9003001F1030C48467F
:100F4000BC45B9D8425421880A22491C89B2218063
:100F500042542188491C89B2218009F80130208837
:100F6000401C2080308950B1CDE900474B46062215
:100F7000022106F1080008F0F7FE05009DD1308A35
:100F800050B1CDE900474B460722032106F110007E
:100F900008F0EAFE050090D1308B50B1CDE9004752
:100FA0004B461522142106F1180008F0DDFE05005D
:100FB00083D1306A30B13B462246494602F084F97B
:100FC0000500DBD1706A30B13B462246494604F049
:100FD0004BFA0500D2D196F82C0038B13B46224698
:100FE0004946304607F094FE0500C7D1307838B145
:100FF0003B4622464946304604F068FA0500BDD11A
:1010000028465AE70549A1F10C0001604FF4A041C0
:101010008180002141810181C18070477C4700208F
:10102000134A0021535C0BB1012203E0491C06293D
:10103000F8D300220F49012806D0022809D003283E
:101040000CD0042812D10DE0487810B10AB101206B
:101050007047887810B10AB102207047C87808B18B
:1010600003207047087908B10420704700207047BA
:101070005D250020E437002070B508221A49001DC4
:10108000FEF73BF9002819D1184C60890026D228B8
:10109000354623D921892068405C00F0F7FB208980
:1010A000401C80B22081A188884200D326816D1C1B
:1010B000ADB2D22DEED36089D238608170BD218966
:1010C0002068405C00F0E2FB2089401C80B2208157
:1010D000A188884200D326816D1CADB26089A842E8
:1010E000EDD8668170BD0000032600207047002007
:1010F00070B500238D880C680DE0E618E15C767809
:10110000864206D1E018801C491E106091800020A4
:1011100070BD0B445B1C9D42EFD8052070BD0000E4
:10112000F0B50E4A00231D46146813E056899788CF
:10113000BE420DD2C65CD788E655D688761CB6B2BC
:10114000D6809788BE4200D3D5805689761C5681BA
:101150005B1CDBB28B42E9D3F0BD0000704700207E
:1011600010B501220221002001F046FE08B1072837
:1011700010D107220221012001F03EFE08B107280C
:1011800008D100210A22084601F036FE08B10728DE
:1011900000D1002010BD000030B5194C99B0592085
:1011A00020801848A0603C2101A8FEF794F8022096
:1011B0008DF8040001258DF8065006208DF80700F3
:1011C00011480690ADF814500920A080202110A8E5
:1011D0000A94FEF780F84FF44860149000208DF8D0
:1011E0004350159001460090084B10AA01A800F04A
:1011F00089FC002801D000F011FA19B030BD0000C0
:10120000AC2600201C260020842400202366020037
:1012100070B58CB015460E4600236C46C3F10F0125
:10122000415CE1545B1C102BF8D30D2104F110003C
:10123000FEF751F80020C0F10F02315C2244401C3F
:1012400011740328F7D3684643DF0020C0F10F0173
:10125000214491F820102954401C0328F6D30CB0E7
:1012600070BD022001F06CBCFEB5054600271D488C
:101270000097019702974078002831D01949082239
:101280001331281DFEF739F8002829D11648012608
:101290008DF803608288694601F016FB00281FD193
:1012A000124CF822677084F8036284F80462A9780B
:1012B000E87802EB01210844C2B2227005F10C016A
:1012C000E01CFDF7EFFF22781121B2FBF1F0B2FB39
:1012D000F1F301FB1321A070002901D0401CA07084
:1012E000FEBD0000F02500205C4700205445002092
:1012F0007FB51DA305460FCB8DE80F000E22694672
:101300002846FDF7FAFF1C4C08B9207868B11A4945
:1013100008221331281DFDF7F0FF002804D12078A2
:10132000002801D1012020707FBD54F8130F0190D7
:10133000606802909DF8032002209DF801106D4620
:10134000121D03E02B5C5940401CC0B28242F9D808
:101350008DF80C100024285D00F098FA641CE4B2AB
:101360000E2CF8D37FBD00005A4400080000000096
:10137000000000004CCA0000F02500202DE9FC41CF
:10138000002705460097019700793C4C012819D0A9
:1013900002284BD1207B012848D1D5F805000090C8
:1013A000B5F80900ADF804009DF800000622401CC5
:1013B0008DF8000032496846FDF79FFF002837D0BE
:1013C00030A142E03648017811292FD12C4E13214B
:1013D0004FF001080D3E80F80080B08876DF86F877
:1013E0000280D5F80500C6F80D00B5F80900A6F88A
:1013F00011002248D5F80B600E2205F10F012330B1
:101400002660FDF74FFF1421B6FBF1F0B6FBF1F2B9
:1014100080B201FB1261A08009B1401CA080E7806E
:10142000A38832461FA1032005F0A3F8BDE8FC8184
:10143000A978E8786FF0060202EB0121084486B231
:101440002681B6F57A7F04D926A1032005F086F817
:10145000ECE70A484FF4966131308046FDF73BFFD8
:10146000324605F10B014046FDF71CFF67812773EB
:10147000228923A1032005F075F8D7E7949700206F
:10148000FD2500203A494E464F3A3E20746172676E
:1014900065742061646472206572726F720D0A0057
:1014A000252600203A494E464F3A3E2044465520D4
:1014B00062726163656C65742073746172742E204E
:1014C000746F74616C206669726D776172652073E8
:1014D000697A653A256420207061636B65733A25EB
:1014E000640D0A003A494E464F3A3E206669726DD5
:1014F000206C656E206572726F720D0A000000002C
:101500003A494E464F3A3E205265636569766520FA
:101510006669726D7761726520646174612E206CFA
:10152000656E3A25640D0A0070B50024064D06E08C
:101530006868012110F8340004F08EFA641C2878E1
:101540008442F5D3002070BD80250020F8B51546F3
:101550000C460646052A01D20720F8BD04F062FBBE
:1015600018B904F031FB0028F7D1104900204E6073
:101570000C70C1E902500E4D08610DE006EBC4008D
:101580006968009181788DF801100078094A6946F0
:1015900004F0B4FA0028E0D1641EE4B2EED2BDE853
:1015A000F840054A0021024800F06CB88025002070
:1015B0000CA30200E14402008D3402000AA10120C4
:1015C00004F0CCFF0CA1032004F0C8FFBFF34F8F41
:1015D00010480168104A01F4E06111430160BFF353
:1015E0004F8F00BFFDE700003A4552524F523A4636
:1015F0006174616C0D0A00003A494E464F3A4869E1
:1016000074207765616B2068616E646C65720D0A89
:10161000000000000CED00E00400FA050EB500210A
:101620000091CDE901106A4644F20100FFF7C6FFC0
:101630000EBD10B58268C368934203D002F0BAFAB7
:10164000002010BD052010BD29B112B1531E134258
:1016500003D0092070470E2070470160838000216D
:101660008160C1600846704710B58268C3689A1AE5
:1016700083889A4203D802F0A7FA002010BD042004
:1016800010BD0000074B9B7823B12AB120B1006840
:10169000037C1BB1082070470720704741744261EA
:1016A00000207047F439002070B506F0EDFF1048B7
:1016B00000240B21047044700E4D817014206C6066
:1016C0002C706C70FEF786FD07211420FEF7B9FD23
:1016D0001420FEF795FD0848046007211120FEF74D
:1016E000B0FD0548001F0068A860002070BD000024
:1016F000F439002094250020081501402DE9FC470D
:10170000DFF8789099F8023073B368B3052902D2F4
:101710000720BDE8FC87436933B3437C012B25D008
:10172000002704460025884616468DF80050684676
:1017300000F0CAF801A808F0FFFAC8B10121017051
:101740000F4944600968C0E90218C0E904769DF8B1
:10175000040089F801009DF8000000F0D9F8142079
:10176000FEF764FD2846D4E70820D2E70F46D8E705
:1017700004259DF8000000F0CBF8F3E7F4390020D1
:10178000041501400649897839B130B1416921B168
:1017900000210174022107F011BF082070470000EA
:1017A000F439002070B50A4E01460A48B578FFF7B3
:1017B00040FF04464DB10020B070711C0122C81DCD
:1017C00004F042FB08B1FFF729FF204670BD00007E
:1017D000AC250020743B0020F0B5284E89B01F4690
:1017E0000D00044672603BD0A888296882B2244864
:1017F000FFF72AFF002834D1A889A96882B22048BF
:101800001030FFF721FF00282BD120221D49684608
:10181000FDF748FD60690690207C00B101208DF83D
:1018200014008DF81C70607C00B10E208DF815003E
:10183000E0680290A06803902068019060680090C2
:101840000E48114A6946083004F0CAFA002808D147
:10185000B0702068401C04D09DF81D0018B106E04F
:10186000072009B0F0BD0548083004F045FB0349E6
:101870000122491CC81D04F0E7FAF2E7AC2500205C
:10188000743B002014A30200C199020010B5014668
:101890000B48FFF7E9FE040010D10A4804F076FC7B
:1018A00060B9084906480839FFF7C3FE30B9054951
:1018B00001220839034804F0E3FB0446204610BD2A
:1018C000843B0020B425002030B5EFF3108172B6C0
:1018D0000D4A9468012324B10370002900D162B637
:1018E00030BD93604FF0E023D3F88051074C254082
:1018F0001560C3F88041D3F8844154605A17C3F887
:10190000842100220270E8E7003B0020FC06FFBDB6
:101910000B498A68002A11D000280FD1EFF31080FC
:1019200072B60B684FF0E022C2F800314B68C2F883
:10193000043100228A60002800D162B6704700009E
:10194000003B00202DE9F041064608680C46411C8A
:101950004FF0A0474FF0010506D005FA00F1C7F897
:101960000815206804F065FC6068411C02D0002165
:1019700004F04EFC3079204901EB4010A169007F52
:1019800000283068C0F8241525D0607D227D31689C
:101990001043C1F86C05D4E900123068C0F80C158A
:1019A000C0F8142524E0A068411C02D0002104F0F6
:1019B0002FFCE068411C05D08540C7F80855E06859
:1019C00004F037FCD4E902123068C0F80825C0F8EA
:1019D0001015BDE8F081607D217D32680843C2F8B2
:1019E0006C05D4E900123068C0F81425C0F80C1555
:1019F000207D0128D7D0ECE7B43900202DE9F04351
:101A0000044687B0008800F08FFA8146208802F0F3
:101A1000DBFF214F8046667A208800223978A5684E
:101A200000F0D4FAB9F1000F33D06079400711D536
:101A30000721404605F052FDA0B108218DF80C1099
:101A400021880590ADF80E10ADF8108003A801F0C4
:101A5000D7FE07E02088B97800F0A2FA10B140461E
:101A600002F09EFF03208DF800002088ADF80200F0
:101A70006079C0F380008DF80400A079C0F3800085
:101A80008DF805008DF806508DF80760684601F066
:101A9000B7FE07B0BDE8F08328250020F0B50C465E
:101AA00093B01F210726ADF80010ADF804100027F1
:101AB00050B1C17849070DD56A4602A9FFF7E1F98F
:101AC000002808D102AD02E00025ADF800706CB12D
:101AD000E07810B1304613B0F0BD01AA0AA9204643
:101AE000FFF7CFF90028F6D10AAA02E00022ADF8EC
:101AF0000470BDF80400C3B2BDF80000C1B22846AE
:101B000072DFE8E72DE9F0471F46DDF82080134635
:101B10008946040043D0EBB3404D012000262870D5
:101B2000EE70202219463E48FDF7BCFB2E71C5E938
:101B300004784FF6FF706881AE613948AE83AE77A6
:101B40003C212030FDF7C7FB35482178203001705B
:101B5000A1788170E178C170617841703049D4E931
:101B60000423C1E90C23D4E90223C1E90A23D4E9FF
:101B70000623C1E90E23616AE1B100F13C0100F1E5
:101B8000480241628A60636A1B880B80616A436A0B
:101B9000898800E003E099800021436A07E00E2075
:101BA000BDE8F087656AAD686D5C5554491C9D8839
:101BB0008D42F7D8A16AD9B1194A9432A2F10C0129
:101BC0008A608162A36A9B888B80A16A836A098884
:101BD00019800021836A04E0A56AAD686D5C5554E4
:101BE000491C9D888D42F7D894F82C1080F82C1051
:101BF000216A49B109490C310162226A52884A803E
:101C0000216A026A09881180616801B14160494610
:101C1000BDE8F04702482030FFF740BF44250020D0
:101C2000E437002010B50188144C102918D0112970
:101C30001CD01B2919D1007A002816D1E078052183
:101C4000401CB0FBF1F201FB120000BF00F018F8DD
:101C500000280AD06169002907D0BDE81040084774
:101C6000C17B012901D18088608110BD0021A17153
:101C7000808861898842F8D10120E7E74425002067
:101C80002DE9F0413D4C804686B0207848B184F87B
:101C9000038004A802F0B0F80498012628B1667009
:101CA00068E0082006B0BDE8F0810025A561344F4A
:101CB000A583A577787810B1E078012806D0B878A8
:101CC00058B1E078012801D0022806D1216919B164
:101CD00066710820884700E065714046FFF7A0F96B
:101CE000E070216939B1032801D0042803D1387884
:101CF00008B1A07990B1E571009502950195039521
:101D00008DF800508DF808501C48E17818300529EE
:101D100025D2DFE801F03108111D21002572E6719E
:101D200007208847E8E7A67001908DF80060ADF8BD
:101D30000C50ADF80A5014E00221A17001908DF80A
:101D40000060B889ADF80C003889ADF80A0008E0E9
:101D5000684607F021F802E0684607F041F8E078AD
:101D600020B12179684673DF00289BD1216909B130
:101D7000A0788847002095E7A570F7E74425002064
:101D8000E437002070B5054601461C220F48FDF7D8
:101D900089FA0F4C00262670286830B1016861600E
:101DA0004068A060201D7ADF02E00948001D7BDF4B
:101DB00000280AD14FF6FF7060806670BDE8704061
:101DC000044A00210448FFF75DBC70BDB42C00201C
:101DD000C4240020C19C02000CA2020002494A6CEB
:101DE000091D06F0B5BD0000D02C002002460248B7
:101DF000016D001D06F099BDD02C0020024602485E
:101E0000416D001D06F091BDD02C00200249C86C28
:101E1000896C084006F0C1BDD02C00202DE9F047A8
:101E2000044603883F480122A4B000F1480A102B61
:101E300009D0112B54D01A2B70D1217AB2EB111F7B
:101E400053D2012352E0D0E911218A430546011DF6
:101E500012A806F07DFD442212A901A8FDF722FA7E
:101E6000DFF8C0900026374609F144090DF1040857
:101E70000AE000BF08EB46001D2283884946281D62
:101E8000009706F017FD761C0198B042F2D8686CF6
:101E9000A688C04306F030FDA0F57F41FF3917D07A
:101EA00005EB40000123868032465146281D06F08E
:101EB00083FD012332464946281D06F07DFDE07B67
:101EC00002280BD000231749A2884C31281D20E09E
:101ED00024B00420BDE8F047FFF7A0BB0123F2E7E0
:101EE0000023A2885146001D13E000230D4905463A
:101EF000A2885031001D06F05FFD207A0221B1EB6F
:101F0000101F01D2012300E000230649A2885431AA
:101F1000281D24B0BDE8F04706F04EBD24B0BDE852
:101F2000F0870000D02C002070B50A4E0546002432
:101F30002A46301D716C06F0F8FC40B12A46301D6F
:101F4000F16C06F0F2FC08B1022400E00124204606
:101F500070BD0000D02C002010B50024204607F0F2
:101F6000DFFE28B1641CE4B2182CF7D3182010BD92
:101F700003480122A240016811430160204610BDC0
:101F8000D02C002010B5044607F0CAFE002803D06C
:101F9000024800EB8400806D10BD0000D02C0020B2
:101FA00070B505460C46084607F0BAFE002809D071
:101FB00005482A4600EB8401001D896DBDE870408C
:101FC00006F0B3BC70BD0000D02C002070B50646F2
:101FD00015460C46084607F0A3FE00280AD006481E
:101FE0002B4600EB84013246BDE87040001D58319D
:101FF00006F0E2BC70BD0000D02C002070B540B1EE
:102000000C4D297839B1044606F0FAFA28B10020BF
:1020100070BD0E2070BD082070BDE868062807D28C
:102020000549226801EB8001401C0A60E860EEE788
:10203000042070BDD8240020882D002040B105491F
:1020400000220123CA600B70C1E9010210467047EB
:102050000E207047D824002000281FD000291DD052
:102060000F4A1278002A19D00A88112A0ED0302A75
:1020700006D0322A07D0332A10D1091D04F060BDE2
:10208000091D04F033BE091D04F00EBC8988B0F8A8
:102090005225914202D1002180F84F15704700006F
:1020A000D824002010B50B46040009D0124A10783D
:1020B00040B1D06830B194F84F0528B1112010BD5F
:1020C0000E2010BD082010BDA4F8523500209060ED
:1020D00084F8500584F84E0584F84D0507482246DB
:1020E000012100682060184694DF0028EBD1012010
:1020F00084F84F05002010BDD8240020882D002032
:102100007CB5054608880C460930904201D90C2060
:102110007CBD68466DDF0028FAD12188082068540C
:1021200020881B21401C80B2208029542088401C1C
:1021300080B220802844DDF801100160BDF8051050
:1021400081802088801D80B220809DF80010490881
:1021500000D0012129542088401C208000207CBD13
:1021600070B5234B86B078CB8DE8780000230593BB
:10217000036804938088ADF814009DF8100004AB48
:10218000401E8DF810000020C0F105041D5C1E5D8E
:102190001E54401CC0B21D550328F5D38DF8041001
:1021A0000498CDF80500BDF81400ADF809009DF8BD
:1021B00003308DF80B2002209DF801106D461A1D8A
:1021C00003E02C5C6140401CC0B28242F9D8281D5B
:1021D00019549DF80320CA21681D00241154285D5C
:1021E000FFF754FB641CE4B20E2CF8D306B070BDAC
:1021F000C4A2020000B50D4B87B00DF1040C0FCB4B
:102200008CE80F00694601A862DF08B1FFF706FA03
:102210009DF800008DF816004FF6F070ADF8140030
:1022200005A8FFF7EBFE07B000BD0000A8A2020062
:10223000F0B50A78002A21D18A88A2F57F43F03BC5
:102240001CD18A79012A19D14A88028000220C4BBC
:102250004FF6F17503240EE002EBC20601EB4606D1
:10226000F789AF4205D1F68A46801E78022E00D14A
:102270001C70521CD2B20E7A9642EDD8F0BD00000E
:102280002526002000B589B014216846FDF723F803
:102290000C490888A0F57F42FF3A10D07F228DF8C4
:1022A0000020094AD2E90432CDE905324988ADF867
:1022B0001610CDF81CD005A99CDF09B000BD012087
:1022C000FBE700006C250020A8A20200002810D027
:1022D00000290ED00A88502A31D00BDC102A16D0E3
:1022E000112A06D1828889888A4202D14FF6FF716D
:1022F00081807047512A0CD0532AFAD1C988C288EC
:102300009142F6D1007D0028F3D000F07FBB898890
:10231000EEE78A8883889A42EBD111F8062F022AC9
:10232000E7D14A88C3889A42E3D10A7A042AE0D0E6
:10233000062ADED0052ADCD0891C04F08FBB04F00D
:1023400049BD00001FB50C460978012914D00229A7
:1023500011D1227B2248A168FCF7A4FF204901206B
:102360000E394873A06881780091437802781DA1E6
:10237000032004F006F91FBD61880E3438B3418094
:102380002CB16288C28022888280A28802810146A4
:1023900040880022A0F57F43FF3B1ED0C988E1B1F1
:1023A00001238DF80C30194B8DF80D20D3E904234F
:1023B000CDE90023ADF8021003A9029169469CDF24
:1023C0000028D8D004B0BDE81040FFF727B90E248C
:1023D0002046FFF723F92046F4E70820F2E7000043
:1023E000A29700203A494E464F3A3E206E6F7469DC
:1023F0006669636174696F6E3A2530325820253002
:10240000325820253032580D0A000000D4A20200B4
:1024100010B586B0002814D0002912D042884FF69B
:10242000FF739A4202D08C88A2420AD10C88112CE8
:102430001CD0392C07D03C2C03D11349012081F842
:10244000220006B010BD8288002AFAD04B89934240
:10245000F7D1C268002AF4D002228DF8002001F1E1
:1024600010020292897B8DF80C1009E08988914254
:10247000E7D1C1680029E4D003218DF80010438022
:10248000C26869469047DCE79497002030B585B074
:102490000C46054614216846FCF71DFF207804F120
:1024A0000E01002837D1A088A0F5A852303A32D1C9
:1024B000A0792A7890422ED1002219E002EBC200C6
:1024C00031F8103003F6CF23B3F5005307D0012BBA
:1024D0000DD101EB40000089ADF8120007E001EBDF
:1024E00040000389ADF80E304089ADF81000521C51
:1024F000207A9042E2D8E86800280CD007490620EC
:1025000008706088ADF8020001208DF80000EA68CC
:1025100069462846904705B030BD000025260020BA
:102520003EB518B1142A03D907203EBD0E203EBD8A
:102530004388A3F57F44FF3C0DD0084D38CD8DE88E
:10254000380083880291ADF80230ADF8062040884B
:1025500069469CDF3EBD08203EBD0000FCA2020093
:102560003EB518B1142A03D907203EBD0E203EBD4A
:102570004388A3F57F44FF3C0DD0084D38CD8DE84E
:10258000380003890291ADF80230ADF8062040888A
:1025900069469CDF3EBD08203EBD0000F0A202005F
:1025A00010B50446FFF73AFC204605F06BFC2146C7
:1025B0000F48FFF751FD21460E4800F043F8204632
:1025C00000F046FB21460C4803F030F8204604F0AA
:1025D00031F821460948FFF71BFF2046FFF722FB91
:1025E00021460348BDE810402438FFF76FBE0000C5
:1025F000B82600205C4700200C2C00203839002031
:1026000028B101800AB11168C160002070470E2016
:10261000704708B598B191B101228DF8022041F6BA
:102620001402ADF80020096801614FF6FF710180C6
:1026300000218181C1816846FFF7E0FC08BD0E20C2
:1026400008BD000030B587B0002816D0002914D08E
:1026500003884FF6FF72934202D08C88A3420CD1BC
:102660000C88382C2ED00ADC112C06D189888B429C
:1026700003D1028000218181C18107B030BD392C96
:1026800006D03C2CF9D11349012081F80402F4E76B
:102690008D88002201F10A04AB42EED102238DF8AD
:1026A00000308B88ADF802304989ADF804106946D6
:1026B000A3188D189B79521CAB71142AF8D30269A8
:1026C0009047DAE788888342D7D107B0BDE8304029
:1026D00006F0ECBF54450020F0B541A28FB00FCA00
:1026E00006AC002584E80F00414C03208DF804005F
:1026F000A2788DF8052060782346411C8DF80610DD
:1027000000EB0011521E194401AE904208DA4FF05E
:10271000110206F1030001F10301FCF7C3FD19E00A
:1027200018D12278C0F1000000EB00101044C7B2AD
:102730003A4606F1030001F10301FCF7B3FD002066
:10274000C7F1110104E03A183244401CD570C0B200
:102750008142F8DC2749D1E90301CDE90B01264884
:102760004188ADF82E100D9600880BA99CDF10F063
:10277000FF0003D084F803520FB0F0BDA078617859
:10278000401E814225D11D489DF81B2006AE0168E0
:1027900007914068089001208DF8240002209DF8E0
:1027A0001910121D03E0335C5940401CC0B2824234
:1027B000F9D83154CA21304400274170F05DFFF749
:1027C00065F87F1CFFB20F2FF8D30D4884F8035231
:1027D00005706078401C607084F804520020CBE7DC
:1027E0005A43000900000000000000000000CA0079
:1027F0005445002060A302005C470020032600200F
:10280000F225002070B50A7886B0002A57D18A8850
:10281000A2F5C053143B52D18A79012A4FD14A887C
:10282000ADF802200024274D34E000BF04EBC402C1
:1028300001EB4202D389A3F52856533E14D0A3F5E9
:10284000A856283E17D0A3F5A856303E16D0A3F5BB
:10285000A856243E15D0A3F5A856253E14D0A3F5BE
:10286000A856313E13D014E0138BADF80630D28A4F
:10287000ADF808200DE0D28A6A800AE0D28AAA80E8
:1028800007E0D28A6A8104E0D28AEA8001E0D28A33
:102890002A81641C0A7AA242C8D80188A1F57F4225
:1028A000FF3A06D0818921B9C18911B9DDF8061036
:1028B000C16001218DF8001002696946904706B099
:1028C00070BD00005C470020FEB5044617460D466B
:1028D0000846FCF70BFDC6B234B12846FCF706FDEE
:1028E000142803D90720FEBD0E20FEBD2088A0F5C8
:1028F0007F41FF390DD00849D1E90001CDE9000140
:10290000ADF80270ADF806600295208869469CDF3C
:10291000FEBD0820FEBD000060A302000078C0F3E9
:1029200040007047007800F00100704730B5334830
:1029300085B00023006804905022314904A806F0B5
:1029400057FD08B1FEF76AFE002403A8039406F0C1
:10295000C1FC08B1FEF762FE0125009401940294C7
:102960008DF8005069462846039A69DF08B1FEF7E2
:1029700055FE00948DF800508DF80150019402949A
:102980008DF8024069464020039A69DF08B1FEF7DE
:1029900045FE00948DF800501720ADF80200019418
:1029A000029469462320039A69DF08B1FEF736FED8
:1029B0000094019403208DF80050ADF804000294B7
:1029C0008DF8025069462020039A69DF08B1FEF7AE
:1029D00025FE03A806F092FC08B1FEF71FFE094889
:1029E00006F082FC08B1FEF719FE074806F038FD34
:1029F000002801D0FEF712FE05B030BDC4A10200D0
:102A000044260020A12502007594020070B54FF005
:102A1000FF3100203BDF002835D1B1213ADF00280B
:102A200031D111DF00282ED14FF01020406913DF83
:102A3000002828D101214FF0E0208A05C0F880222B
:102A4000D0F800315FF0000001FA00F21A420AD01B
:102A500042B202F01F0501FA05F45209920002F198
:102A6000E022C2F88041401C2028EDD3BFF34F8FF5
:102A700005480168054A01F4E06111430160BFF3B4
:102A80004F8F00BFFDE770BD0CED00E00400FA05BC
:102A900070B54FF0FF3100203BDF002835D1B12168
:102AA0003ADF002831D111DF00282ED14FF010205D
:102AB000406913DF002828D101214FF0E0208A056A
:102AC000C0F88022D0F800315FF0000001FA00F277
:102AD0001A420AD042B202F01F0501FA05F4520967
:102AE000920002F1E022C2F88041401C2028EDD380
:102AF000BFF34F8F05480168054A01F4E0611143B7
:102B00000160BFF34F8F00BFFDE770BD0CED00E02B
:102B10000400FA050149085C70470000DCA10200CE
:102B20000649095C4FF0A040D0F81005C84010F0ED
:102B3000010000D0012080F001007047DCA10200FC
:102B400007490B5C4FF0A041D1F8042501209840C3
:102B500020EA0203C1F808351040C1F80C0570479F
:102B6000D8A102000249085C012103F08EBB0000DD
:102B7000D8A102000249085C002103F086BB0000D6
:102B8000D8A102000649095C4FF0A040D0F8040526
:102B9000C84010F0010000D0012080F00100704713
:102BA000D8A102007CB50024084E25460122305DE4
:102BB000009500231146019503F0F4FA641C042CDF
:102BC000F4D3BDE87C4000F003B80000D8A10200B7
:102BD00010B500242046FFF7C5FF641C042CF9D370
:102BE00010BD10B500242046FFF7C4FF641C042C60
:102BF000F9D310BD10B50246064B4FF0FF3000214F
:102C00005C5C944201D1084610BD491C0429F7D3ED
:102C100010BD0000DCA1020070B50C4E0C004FF09E
:102C2000000530600BD0012000F0A2F808B10220AE
:102C300004E0002000F09CF800B10B2020707068C8
:102C400010B9FEF78DFA0546284670BDBC24002059
:102C500010B51A4C0188606810290ED011292BD1AB
:102C6000401E606028D1FEF77BFA002824D021683E
:102C7000002921D0BDE810400847D0B90021012229
:102C8000084600F0B9F808B107280FD10722022141
:102C9000012000F0B1F808B1072807D10422022171
:102CA000002000F0A9F820B1072802D0216801B166
:102CB00088476068401C606010BD0000BC24002094
:102CC00010B5002000F0ECF908B1062806D101206B
:102CD00000F0E6F908B1062800D1002010BD000080
:102CE0002DE9F0470D468146FFF784FF044604288E
:102CF00036D2DFF874801B481C4EA8F10C0725B3B0
:102D0000012D0ED0022D2BD104EB44003044457828
:102D1000002D25D0B968002922D02846BDE8F0470B
:102D2000084704EB4401755C0E44717849B10E4AC2
:102D30004FF40041093A8068FEF7E0FC08B987F8D3
:102D40000390B17808F80410E2E78068FEF71AFDF6
:102D500004EB4401314418F804008D78A842D7D020
:102D6000BDE8F087E0A10200B8240020682C002014
:102D7000FFF7D6BE10B5042807D0072811D00A28BF
:102D80001ED1BDE8104006F04DB80E481321008852
:102D900076DF082814D0002812D0BDE81040FEF7D6
:102DA0003DBC094C207800280AD108A1032003F07B
:102DB000D5FB012020708BDFBDE8104005F02CBD55
:102DC00010BD00000C260020802400204150503A05
:102DD000494E464F3A57686974656C69737420743C
:102DE000656D706F726172696C792064697361627C
:102DF0006C65642E0D0A000070B50023042810D203
:102E00000D4D00EB4004012A02D101290CD0002213
:102E1000094E00EB4000304461B1012906D002297F
:102E200006D00723184670BD0E30C2B22A55F9E706
:102E30004270F7E78270F5E7682C0020044A0146EB
:102E400000201279D20702D0084600F04DB8704732
:102E5000AC24002070B506461E480024C0E901617C
:102E6000B00720D50025012211462846FFF7C4FFF0
:102E70006D1C0446042D02D2002CF4D013E094B94A
:102E800040F2666204211448FEF760FB04000AD198
:102E9000FEF74AFB040006D10F48104A0021001F2C
:102EA000FEF7F0FB0446F00701D0FFF77BFE74B994
:102EB00009480B4A00210C38FEF7E4FB040006D158
:102EC0000548084A01210838FEF7DCFB0446204685
:102ED00070BD0000AC240020ECA10200C330020051
:102EE000894C0200631202002DE9F05F6A4C05462E
:102EF00000266078B34618B184F801B001F0ACFE4A
:102F0000664F4FF47A694FF4C87A4FF00108182DD4
:102F100062D2DFE805F0AC0C0C31404D62676B7497
:102F20006B74BE7D7D7D7D7DACAFB2B5BEBE002035
:102F3000FFF728FE00284FF0000008D0FFF712FE30
:102F4000022D02D14FF4E16008E0484606E0FFF7A9
:102F500011FE022D01D1C82000E05046410CC003F3
:102F60004FF4FA72801841F10001257052000023DD
:102F7000FCF762F901462AE00020FFF703FE002873
:102F80004FF0000004D0FFF7EDFD4FF44870E5E787
:102F9000FFF7F0FDDFE70020FFF7F4FD00284FF01A
:102FA000000002D0FFF7DEFDCFE7FFF7E3FDD4E737
:102FB0000020FFF7E7FD00284FF0000002D0FFF7E8
:102FC000D1FD01E0FFF7D6FD257041F69A110022F0
:102FD0003868FEF793FB064646E00020FFF7B0FD99
:102FE000257008E0002051E025703DE084F8018064
:102FF0000120FFF7A5FD002240F6CD41E8E784F867
:1030000001800120FFF79CFD00224FF48041DFE7A3
:103010007868FEF7B7FB0646D5F1110000D02EB157
:103020000220FFF79FFD84F802B01DE0012816D9A9
:1030300080B2C8214843C117C90341EA5041C003C7
:103040004FF4FA72801841F1000152000023FCF79E
:10305000F3F8014600227868FEF750FB064602208E
:10306000FFF788FD84F802803046BDE8F09F01F04C
:10307000F3FDB9E701F0F0FDB4E701F0EDFD04E088
:1030800001F0EAFD0020FFF775FD0120FFF772FD5A
:10309000AAE7FFF7A6FDA7E7AC240020E0A1020005
:1030A00010B5FFF737FD032103F0CDF8002010BD68
:1030B000002901DA002070470268114401600120F4
:1030C000704700780221FFF70BBE000005494FF062
:1030D000FF32082841F8202002D3084480F8482015
:1030E000704700005C390020F0B54FF0FF3512B199
:1030F0000023082601E008230C260C4C05E000BF45
:1031000054F823707F1C04D05B1CB342F8D32846CC
:10311000F0BD26185DB286F8305044F82310002A1E
:10312000F5D1E11881F84800F1E700005C39002092
:103130000249084490F93000704700005C390020D3
:1031400008B5024690F84E050B46C0EB0011C1EBE6
:10315000C01002EB400092F84D2542B1521ED2B28F
:1031600002EBC20100EB4102518A491C00E0C18818
:10317000ADF800100089ADF802006946184696DFE8
:1031800008BD000038B10549814204D80449814294
:1031900001D901207047002070470000342600202C
:1031A00044260020044A0168914201D0083101E020
:1031B0000149383901607047703C002070B5044601
:1031C0004FF6FF750A462846AC4208D14FF480748A
:1031D0002146104604F012FEA04209D070BDFF2C1B
:1031E000FCD82146104604F0FCFD08B1204670BD15
:1031F000284670BD70B5084C050009D01034216810
:10320000002907D008682060496828468847F6E703
:103210000834F4E770BD0000483900202DE9F05F64
:1032200026484168F1B3DFF898B00E688146DBF8B4
:10323000004087688078E11B21F07F45ED1CB0B924
:10324000DFF880804FF48030C8F84403C8F80403E6
:103250001120FCF7BFFF1120FCF7D2FF4FF0010A4D
:10326000C8F800A02F2002F091FA89F802A0B54218
:1032700000D23546124BE8193C3320F07F401860ED
:10328000DBF800105A46091B21F07F41001B20F09B
:103290007F40C91C81420FD9106818602F2002F0AE
:1032A00075FA00E004E0BDE8F05F1120FCF7BEBF56
:1032B000BDE8F05F05F0E8B9BDE8F09F9425002077
:1032C00004150140001001402DE9F0411788064621
:1032D000B81D14460D46984202D90C20BDE8F08175
:1032E0003188072206290AD34FF4486C4FF6FF7342
:1032F000614501D9994202D17088062801D2104651
:10330000ECE7604501D99842F9D1994203D098423F
:1033100001D08142F3D80520E85520881221401CB5
:1033200080B2208029542088401C80B2208041191E
:10333000308806F0C0FC2188084480B22080411902
:10334000708806F0B8FC2188084420800020C5E77A
:10335000FEF764B910B5044601460648FFF752FA75
:1033600021460548FEF764FF2146BDE810400348AA
:10337000FFF78CB85C4700206C250020383900200E
:103380007FB50C4610B1012004B070BD2079002635
:1033900038B141F61D5501281BD0022826D00F2038
:1033A000F2E702960396E0680190694601A805F0ED
:1033B00061F850B102988188E18000882081BDF8D1
:1033C0000010029805F0CAF800E00A2002212171DD
:1033D000DAE70A4B6A460021A01D05F007F838B16C
:1033E000064908398E60CE600A28CDD12846CBE741
:1033F00002488188019805F0B1F8F5E7C42500205E
:103400002DE9F843054690F84E050F46C0EB001134
:10341000C1EBC01005EB400695F84D45914604EB15
:10342000C40006EB40013279601C0A31904226D17B
:103430006B460022284601F0CDFB18B310E0401E79
:10344000A04201D1002004E004EBC40006EB4000E0
:103450001C30804602466B46284601F0BBFB30B16B
:10346000002038706946484697DFBDE8F88395F834
:103470004D054146401C641C85F84D05E4B2307989
:10348000A042DCD8012038700020EEE72DE9F041A1
:1034900000260125144C22E06068226900EBC60773
:1034A000387805FA00F1114217D08A43226102F000
:1034B00081FB02463878E36805FA00F1194002FA08
:1034C00000F3994209D17978012901D0012100E066
:1034D000002151407A6802B19047761CF6B22078FC
:1034E0008642D9D3BDE8F0818025002030B5144B49
:1034F00085B0124C0FCB8DE80F000F4D214668466A
:1035000062DF80B920788DF8120041F23050ADF8BA
:1035100010004FF6FF7060800020E560A0802081E1
:1035200004A8FEF76BFD002804D005B0BDE83040CC
:10353000FEF774B805B030BD4523020038390020CD
:10354000D4A2020070B50E4CA088A0F57F41FF39CF
:1035500014D00C4D2878012805D10220FFF702FB7A
:1035600074DF00202870084802F056F91321A08863
:1035700076DFBDE87040054802F04EB970BD00002E
:10358000F02500201026002080841E00A086010067
:103590002DE9F047894690F84E159046C1EB01128F
:1035A000C2EBC11100EB4107384605F029F80600CF
:1035B00044D0234CA068062840D200EB8001214D66
:1035C000C1EB801005EB8000E222A0F802803946B2
:1035D000001DFBF767FE0027B9F1000F07D0A068B8
:1035E00000EB8001C1EB801005F8207007E0A168B6
:1035F000022001EB8102C2EB811105F82100A068D5
:1036000000EB8001C1EB801105EB8101401CC1F88A
:10361000E860A060E168884210D100260AE000BF9F
:1036200006EB8600C0EB861005EB8000D0F8E810B2
:103630008847761CE0688642F2D3A760BDE8F08731
:10364000D8240020A02D002030B50D4690F84E154E
:103650001446C1EB0112C2EBC111BBB000EB41003B
:1036600004F0CEFF030007D0ADF8024001208DF832
:1036700000006846019598473BB030BD0E4910B533
:103680000A784C780023A24212D0521CD2B20A709F
:10369000022A00D10B70084A0B780C3252F8232012
:1036A00002608868104420F07F408860012010BDCF
:1036B0000360002010BD0000942500203EB5094D98
:1036C00038CD8DE83800ADF8041007498DF8062094
:1036D000ADF8020000220978FEF778FC684600F099
:1036E0008FF83EBD98A202002825002010B503786F
:1036F0000022072B06D2DFE803F00504060C1C2588
:103700002B000A7010BD01220A7002898A8182880A
:1037100014E002220A7002898A818288CA81C26802
:103720008A60007C062802D00020087410BD0120A9
:10373000FBE703220A70C2888A810289CA81C068B5
:10374000886010BD04230B70C0888881CA8110BDB9
:103750000520087010BD000070B5064D0646002417
:1037600055F8241009B130468847641C082CF7D35B
:1037700070BD0000A03B00200EB5002911D011291A
:103780000FD0002200920292ADF8020001910D29A3
:1037900008D0862908D009208DF80000684600F07E
:1037A0003DF80EBD0B20F7E70A20F5E7014909684F
:1037B00008470000F024002070B5054D064600249F
:1037C000304655F824108847641C022CF8D370BD8D
:1037D00028A202002DE9F04107460024064E074DBD
:1037E00005E000BF56F8241038468847641CE87886
:1037F0008442F7DBBDE8F0819837002018250020CF
:1038000070B5054D06460024304655F8241088470B
:10381000641C022CF8D370BD60A202000149096843
:1038200008470000A4A202007FB50446406858B1D2
:103830000020039020780026384D06285DD2DFE86E
:1038400000F05C05052641690120F2E7A08900F03F
:10385000C4F918B9E08904F09BFE80B3A089A0F5F3
:103860004040ADF80200A07B8DF8040020780128CC
:10387000606806D048B104208DF8000060680390AD
:103880001AE00028F8D00320F6E70120F4E7A08929
:1038900000F0A3F918B9E08904F07AFE78B1A089A4
:1038A000A0F54040ADF80200A07B8DF804006068F0
:1038B00030B105208DF80000A06802901AE01CE0ED
:1038C0000220F7E7A08900F088F9B0B1E089A0B93B
:1038D000A089FF21A0F5404080B2ADF802008DF82C
:1038E0000410616881B107208DF800006E70AE7021
:1038F00003F0B2FF684603F087FE6878002802D024
:103900006E7003F0A9FF7FBD06218DF8001004F052
:1039100031F8EBE708208DF80000EBE704250020E4
:1039200000B5114987B00978890702D4022007B091
:1039300000BDA0F57F41FF3911D005218DF80010A1
:1039400001218DF80410ADF80600002211466846EA
:1039500003F086FA28B104F039FD0020E7E70420DF
:10396000E5E70820E3E70000BC25002000B50E488D
:1039700087B00078800702D4022007B000BD06207F
:103980008DF8000000221146684603F069FA40B144
:103990000648017809B10121017304F017FD0020E8
:1039A000EBE70820E9E70000BC250020A03C002050
:1039B00010B58CB014216846FBF78DFC1D480078CB
:1039C000810703D56846FFF7C7FE30E0C0072ED158
:1039D000012000F047F900F0B7F901248DF81440F8
:1039E00003F016FB0C281BD2DFE800F006100610CF
:1039F0001A1809181A1216120B200CB010BD02204A
:103A000000F030F9012000F013F9DBE7002000E0BE
:103A100003208DF8180003E00220FAE78DF8184023
:103A20000022114605A803F01BFA04F0CFFC002089
:103A3000E3E70000BC25002038B5040011D069463A
:103A400004F018FD88B10A48BDF8001000EB011021
:103A5000818941B1A27A32B1491E81810020A072D0
:103A600038BD052038BD062038BD0A2038BD00000D
:103A7000803C00201FB501A9684604F0B7FC04B0E3
:103A800010BD07B513460A466946002004F0AEFC97
:103A90000EBD07B513460A460021684604F0A6FC91
:103AA0000EBD20B119B100680860002070470520E4
:103AB0007047000038B50D46040015D0A5B1694621
:103AC00004F0D8FC90B10A49BDF80020606801EB11
:103AD00002129189491C9181286060680C306860ED
:103AE0000120A072002038BD052038BD0A2038BD55
:103AF000803C002018B10323002206F025BA0520DF
:103B000070470223002206F01FBA12B1022306F00A
:103B10001BBA052070470000064A5178082906D0D4
:103B2000054B43F82100491C5170002070470C20C0
:103B300070470000BC250020A03B002038B504469B
:103B40000A480D460078800701D4022038BD54B1E0
:103B50006946284606F00CFB0028F7D1BDF8001096
:103B60002180658038BD052038BD0000BC250020BF
:103B700010B504460D480078800701D4022010BD1E
:103B800084B1218802290FD8094800EB011042892D
:103B90006088121A032A07D406F0E0FA0020208079
:103BA000608010BD052010BD042010BDBC25002084
:103BB000803C0020826883881A4003689A5C0A70FF
:103BC0008168491C81607047C26883881A40036815
:103BD0009954C168491CC160704743F6FE71A0F555
:103BE0004040884201D801207047002070471FB52F
:103BF0000C4600F110010291C07B6A46C008ADF886
:103C00000C0002A90920FDF773FA28B16A4602A93F
:103C10000820FDF76DFA30B9BDF804202046009960
:103C2000FBF76BFB10B1002004B010BD0120FBE7D7
:103C300002490A7882430A7070470000BC250020C0
:103C400010B504460078182802D1FEF785F92070D7
:103C500010BD10B504460078182802D1FEF77CF993
:103C6000207010BD02490A7802430A7070470000B4
:103C7000BC25002070B5134600220646154686294D
:103C800005D0112901D019B170BD012500E0012234
:103C90000D4C73B16179FEF799F92A4621793046C6
:103CA000FEF794F9002261783046FEF78FF9002282
:103CB00003E06178FEF78AF92A4621783046BDE8AC
:103CC0007040FEF783B900002C250020F8B50646A9
:103CD0001A481F46154600780C46C00708D03046E3
:103CE000FFF750FA30B13CB1200507D00620F8BDEF
:103CF0000120F8BD0220F8BD0320F8BD3068A042C5
:103D000004D8716804EB0530884201D90520F8BD5C
:103D10007DB1684604F09AFA68B100980221C0E9C2
:103D200000670172210B8181058204F041FB0020B4
:103D3000F8BD0420F8BD0720F8BD0000A82500202C
:103D4000084604F0D7BA00002DE9F0472748284C70
:103D50004FF01021001B0209496910464B1C03D18A
:103D60004FF0805149690903DFF888A09AF8007084
:103D7000FB0702D00020BDE8F0870023A14607E042
:103D800009EB0314256815B1646804B1401E5B1C7F
:103D90009342F5D3002422E0002504F0FF0C2B46CB
:103DA00013E000BF09EB0316D6F80080B8F1000F4E
:103DB00004D0D6F80480B8F1000F05D1767BAE426E
:103DC00002D9354603F0FF0C5B1C9342EAD309EBA2
:103DD0000C13641C59601D7BA1EB053119608442F2
:103DE000DAD347F001018AF80010C3E74426002027
:103DF00034260020A825002020B10349496E016027
:103E000000207047032070470C3B00202DE9F84349
:103E100007461D48DDF820801E46007815460C46F2
:103E2000C0070CD03846FFF7ADF950B15DB154B1C1
:103E300045EA0400800708D00620BDE8F883012089
:103E4000FBE70220F9E70320F7E73868A04204D82F
:103E5000786804EB8601884201D20520EDE77EB147
:103E6000684604F0F3F968B100980121C0E90078D0
:103E70000172C0E90354868204F09AFA0020DCE75C
:103E80000420DAE70720D8E7A825002070B5174AF4
:103E900017490446106E0B7800EB400002EBC0009F
:103EA0009D0715D5022C02D0032C1BD102E002F095
:103EB000F3FE17E04A78521CD2B24A70032A11D995
:103EC00000224A70082104F04DFE04F0A9F909E02F
:103ED000580707D523F004000870526E12B140F065
:103EE00002000870BDE8704004F0CCB90C3B002023
:103EF000A825002070B58CB00646002525216C460B
:103F000001A8FBF7E8F91F48406800901E4850F8E8
:103F1000131F019140680290D6F805000390B6F88F
:103F20000900ADF81000B07C40428DF81200F07C22
:103F300005E07119097DFF290BD06D1CEDB2B5EBC1
:103F4000D00FF6D39DF8032002219DF80100121D29
:103F50000BE0711914220DF113001731FBF7A2F9D0
:103F6000F0E7635C5840491CC9B28A42F9D86054F2
:103F70002144CA20487029216846FDF7D1F80CB0C9
:103F800070BD00007CA30200F025002010B5088859
:103F9000A0F52060773805D000F6FD70B0F5604FD1
:103FA0000AD103E08B884A880EA102E00B794A8887
:103FB0001BA1032002F0DDFA284CA078002810D0C5
:103FC0000020A070264801882648FEF76BF81128CB
:103FD00005D0002805D0BDE81040FDF71FBB01202B
:103FE000A07010BD4150503A494E464F3A47415497
:103FF0005420415454204D5455206F6E20636F6EF1
:104000006E656374696F6E2030782578206368610F
:104010006E67656420746F2025642E0D0A00000011
:104020004150503A494E464F3A44617461206C65A4
:104030006E67746820666F7220636F6E6E6563745E
:10404000696F6E20307825782075706461746564BE
:1040500020746F2025642E0D0A00000080240020AB
:10406000F4250020B826002070B508B1012070BDED
:10407000184C0025207B08B1257301E000F0A2F860
:104080002078082824D2DFE800F02304080C10234D
:10409000141EBDE8704000F01FB8BDE8704000F08D
:1040A0007FB8BDE8704000F061B8BDE8704000F036
:1040B00037B808496088203901EB00104068BDE836
:1040C000704002F085BF6560BDE8704002F08EBFB1
:1040D0000F2070BDA03C00201049F0B48A1C0020C5
:1040E0000346A1F120050C18A67A3EB1A37205EB98
:1040F0000014A68916B9A47B012C0AD0401C80B2FA
:104100000228F0D30B704B804B60F0BC41F61D5081
:1041100070471080F0BC00F043B80000A03C0020C5
:1041200010B50F4CA4F12001608801EB00108189CB
:1041300061B1052020700B480221002381800168B5
:10414000BDE8104001220848FFF7C0BD41680023C8
:1041500001220548FFF7BAFD0421217010BD0000BF
:10416000A03C0020CC2500203426002038B50A4988
:10417000084803240B684268898803EB810153884F
:1041800004700020DB1C00909BB20448FFF73EFE49
:1041900038BD0000A03C0020CC25002034260020A3
:1041A000074910B54888091D04F0B2F918B1BDE8F7
:1041B0001040FFF7DBBFBDE81040FFF7B1BF0000C4
:1041C000A03C0020F0B51D481D49012506780224B9
:1041D0008B88A0F12002082E18D2DFE806F0041721
:1041E000171A212C2C160189491C018100214180BC
:1041F00080F80C1002EB01131B7843B10023441824
:10420000491C89B2A3720229F4D30570F0BD0123C1
:10421000F5E742685288D21C1A448A800470F0BDC7
:1042200046880D6802EB061256680E6055601381D1
:104230008C80062100E007210170F0BDA03C002029
:10424000CC250020F0B504460088384DA5B0502894
:104250001ED0522802D0542828D103E0A08800F0B4
:1042600033FF23E006208DF84400A08800F0ACFB6B
:10427000ADF84600A188ADF8481000F05DF9A088BF
:104280000022E978FDF7A2FE11A8FFF78FFA0DE0F2
:10429000207B01280AD1A07A012807D12089A0F526
:1042A0002451023902D1A08800F048FFA878FDF718
:1042B00069FEC8B114A8FDF791FD442214A968460F
:1042C000FAF7F0FF00246E460BE000BF06EB440750
:1042D000A978B888FDF764FE10B1B88800F0F4FE44
:1042E000641C0098A042F1D86878FDF74BFEC8B175
:1042F00014A8FDF773FD442214A96846FAF7D2FF0B
:1043000000246E460BE000BF06EB44076978B888CE
:10431000FDF746FE10B1B88800F010FF641C00984D
:10432000A042F1D804F05CFC25B0F0BDE8240020E8
:104330003EB504464088ADF802002078A8B10128B7
:104340001FD0022810D1207900280DD0608800F0FD
:104350007BFAA0F57F41FF3906D00F490122C978C9
:10436000FDF734FE04F03CFC3EBD00208DF800005B
:104370006846FFF71BFA608800F066FA00F0A4FEBA
:104380003EBD01208DF80000A088ADF8040068460D
:10439000FFF70CFA3EBD0000E824002010B50446EB
:1043A000007801280FD1608800F08EFE608800F050
:1043B00089F9002807D0044960880122C978BDE83E
:1043C0001040FDF703BE10BDE824002010B5104CCE
:1043D00000202070FDF7C0FD6070FDF7BDFDA070EE
:1043E000FDF7BAFDE070FDF7B7FD2071617818297F
:1043F0000BD0A178182908D0E178182905D0182801
:1044000003D001202070002010BD032010BD00004B
:10441000E82400202DE9F04192B000F0A5F86846AC
:10442000FDF7DCFC00246D464FF6FF77DFF83480A3
:104430000FE000BF05EB4406B08800F0C5FAB842B3
:1044400005D1B088012298F80310FDF7BFFD641C68
:10445000A4B20098A042EDD804F0C2FB12B0BDE8AF
:10446000F0810000E82400200178072902D140886B
:1044700000F064BE7047000010B504460A48417859
:104480002046FDF78DFD68B10848002101EB41028F
:1044900000EB82025288A24201D1C8B210BD491C71
:1044A0001429F3D3FF2010BD00250020283300205D
:1044B00070B5094D094E002404EB440005EB800063
:1044C00071784088FDF76CFD20B1641C142CF3D387
:1044D000FF2070BDE0B270BD283300200025002011
:1044E0002DE9F041124E07460125BD403068FDF729
:1044F00049F900280DD10F4C2069284207D13846D0
:1045000001F058FB0028E06805D0284304E0A843E8
:104510002061BDE8F081A843E06020692843206164
:10452000A1683068BDE8F0410022FDF7E7B800005F
:104530000CA30200802500201CB5054AD2E9021216
:10454000CDE900120022694602F02BFF1CBD0000DD
:1045500014A2020003484FF6FF718180012101700F
:1045600000207047F424002010B54FF6FF7002F0D1
:1045700057FE03498880BDE8104004F05DBB000091
:10458000F42400202DE9FC41804600F01DFA0024AF
:1045900003250127A0F57F412646FF3908D06A464A
:1045A000082102F0D9FE18B90198841D8688056893
:1045B00032462B4621464046A9DF042804D008286D
:1045C00004D00B2808D002E0112000E00020002FCA
:1045D00000D10B20BDE8FC810027A80701D50125EB
:1045E000E6E73443F5D0002426460325E0E72DE92D
:1045F000FC41804600F0E8F90746A0F57F40FF380F
:104600000ED001252A466D1C0026ADB26B4608214E
:10461000384602F0CBFE040006D0072C24D024E05C
:1046200043F20200BDE8FC81019903230A1D0B60DF
:104630004046891DAADF040004D00C2C08D0052CAC
:1046400008D008E00821384602F048FF04460CE094
:10465000012600E000240821384602F02BFF00B1BB
:104660000324002ECED100E00C242046DAE700001F
:104670001FB504460078012815D12079012812D1F0
:10468000608802AA012102F067FE60B902208DF85D
:1046900000006088ADF80200094901208DF804008F
:1046A000096868468847064808388088A0F57F4131
:1046B000FF3903D0BDE81F4004F0BEBA1FBD0000A3
:1046C000FC2400201CB500F07FF96A46012102F0AD
:1046D00043FE08B100201CBD019800781CBD0000FD
:1046E0002DE9F041084C07464FF6FF7643F20305EB
:1046F000324661883846A7DFA84203D16088401C53
:104700006080F5E7BDE8F081F42400208188A1F500
:104710007F42FF3A03D0008808B101207047002093
:1047200070473EB5027802230C46B3EB520F17D107
:10473000B0F80110ADF80010C1788DF80210818832
:10474000ADF8041080798DF8060002AA01A9204670
:10475000FCF75EFD032202A96846FAF7CEFD08B118
:1047600000203EBD01203EBD10B50C46FFF784FE83
:10477000FF280CD0074900EB400001EB80004168A6
:1047800021600189A180807AA071002010BD0520E0
:1047900010BD00002833002070B5018890B01029AA
:1047A0004FD1011D34226846FAF77CFD9DF80400C4
:1047B0004FF6FF76032134466D46B1EB500F2AD0F9
:1047C00002F08AFF9DF8040040080ED001280CD0AA
:1047D000022820D118E00F99281D1131FCF73EFB6B
:1047E00018B100BFBDF8344015E00EAA0DA907208E
:1047F00002F04AFF0028EED10DE00F99281D491C58
:10480000FFF78FFF0028EDD10EAA0DA9072002F0B7
:104810003BFF0028F1D1BDF80000291D00F0A4FEE7
:10482000B4420ED0BDF80000214600F07EF8BDF87D
:104830000000ADF8360001208DF834000DA8FEF719
:10484000BBFF10B070BD0000094A002101EB41031D
:1048500032F82330834205D101EB410002EB8000A6
:1048600040887047491C1429F0D34FF6FF707047F9
:104870002833002010B50D4C18200D4A6070002020
:104880004FF6FF7100EB400302EB8303401C59809D
:104890001428F7D3FDF760FB6070182803D00120BF
:1048A0002070002010BD032010BD00000025002056
:1048B0002833002070B504460D46401C00F0B0F9C6
:1048C00000280ED01022691C601CFAF716FD48B1B2
:1048D0005FF0000605F1110104F11100FCF7BEFACA
:1048E000304370BD0126F5E7018811B9421892786E
:1048F0000AB101207047491C0829F7D300207047EE
:1049000010B50C460346FFF7EFFF00280AD01888C1
:104910002188884205D10822A11C981CFAF7EDFCD9
:1049200008B1002010BD012010BD03F077B810B50C
:104930000446007888B0002828D12079072825D19E
:10494000608801AA072102F007FD00281ED102F0AD
:10495000C3FE1DE06088BDF80010884218D004999D
:104960000298FFF7A7FF98B16088FFF76DFFADF8D9
:10497000160000208DF814006088ADF81800BDF80E
:104980000000ADF81A0005A8FEF716FF08B010BD2C
:1049900003AA6946072002F077FE0028DAD1F5E77E
:1049A00070B50446FFF750FF0546204602F0D7FCDD
:1049B0004FF6FF7104468D4203D014B9284603F028
:1049C0002DF8204670BD000010B5FFF755FDFF28FB
:1049D00005D0044900EB400031F8200010BD4FF62F
:1049E000FF7010BD283300203EB5044602F074FE6F
:1049F0000EE0019920464631FFF782FF28B9019960
:104A000020462A31FFF77CFF10B1BDF808003EBDFB
:104A10006A4602A9072002F037FE0028E9D14FF6C6
:104A2000FF703EBD2DE9F0410F4628B10120FFF790
:104A3000FFF80120BDE8F081397961B10026264DEB
:104A400001290DD0254C4FF002080229206822D000
:104A500003293CD128E002F0C9FA0121397134E080
:104A60005FF0000005EB0011097802290CD0401C12
:104A700080B20228F6D30220FFF7F4F80120FFF7F6
:104A8000D7F841F61D50D5E705EB0014606802F039
:104A90009FFA267019E00146002301221048FFF713
:104AA00015F9A4F804800FE002F092FA0A4922688E
:104AB0002031498805EB01114B6823604A60A288C8
:104AC0000A81A4F804800E703E710028B2D0012043
