:020000040001F9
:10F00000D8B1002015F201001DF201001FF201002D
:10F0100021F2010023F2010025F2010000000000AE
:10F0200000000000000000000000000027F20100C6
:10F0300029F20100000000002BF201002DF2010076
:10F0400011F601002FF2010079FB01002FF20100FF
:10F050002FF201002FF20100E9F301002FF201006D
:10F060002FF201002FF201002FF201002FF2010018
:10F070002FF201002FF201002FF201002FF2010008
:10F080002FF2010069F601002FF201002FF20100BA
:10F0900085F801002FF2010089F801002FF201002C
:10F0A0002FF201002FF201002FF201002FF20100D8
:10F0B0002FF201002FF2010000000000000000000C
:10F0C0002FF201002FF201002FF201002FF20100B8
:10F0D0008DF601002FF201002FF201000000000068
:10F0E0000000000000000000000000000000000020
:10F0F0000000000000000000000000000000000010
:10F1000000000000000000000000000000000000FF
:10F1100000000000000000000000000000000000EF
:10F1200000000000000000000000000000000000DF
:10F1300000000000000000000000000000000000CF
:10F1400000000000000000000000000000000000BF
:10F1500000000000000000000000000000000000AF
:10F16000000000000000000000000000000000009F
:10F17000000000000000000000000000000000008F
:10F18000000000000000000000000000000000007F
:10F19000000000000000000000000000000000006F
:10F1A000000000000000000000000000000000005F
:10F1B000000000000000000000000000000000004F
:10F1C000000000000000000000000000000000003F
:10F1D000000000000000000000000000000000002F
:10F1E000000000000000000000000000000000001F
:10F1F000000000000000000000000000000000000F
:10F20000DFF80CD000F0B2F800480047853F02005C
:10F21000D8B100200648804706480047FEE7FEE7D1
:10F22000FEE7FEE7FEE7FEE7FEE7FEE7FEE7FEE7B6
:10F23000ADF8010001F201002DE9F05F0546002064
:10F2400092469B4688460646814640241BE0284657
:10F2500041464746224600F079F853465A46C01ABE
:10F26000914110D311461846224600F060F82D1A3D
:10F2700067EB01084F4622460120002100F057F8B5
:10F2800017EB00094E41201EA4F10104DFDC4846C3
:10F2900031462A464346BDE8F09F40EA01039B07FA
:10F2A00003D009E008C9121F08C0042AFAD203E0FB
:10F2B00011F8013B00F8013B521EF9D27047D2B25F
:10F2C00001E000F8012B491EFBD270470022F6E74F
:10F2D00010B513460A4604461946FFF7F0FF2046CC
:10F2E00010BD30B505462A460B4612F8010B13F83F
:10F2F000014B08B1A042F8D01CB1002802D06D1C0F
:10F30000F1E7284630BD421C10F8011B0029FBD153
:10F31000801A704730B504460020034600E05B1CAD
:10F32000934203D2E05CCD5C401BF8D030BD202A74
:10F3300004DB203A00FA02F1002070479140C2F14C
:10F34000200320FA03F3194390407047202A04DB7E
:10F35000203A21FA02F00021704721FA02F3D0404E
:10F36000C2F120029140084319467047064C074DF0
:10F3700006E0E06840F0010394E807009847103485
:10F38000AC42F6D3FFF740FF0C8902002C89020043
:10F3900070B58C1810F8015B15F0070301D110F857
:10F3A000013B2A1106D110F8012B03E010F8016B84
:10F3B00001F8016B5B1EF9D12B0705D40023521E07
:10F3C0000DD401F8013BFAE710F8013BCB1A921C6F
:10F3D00003E013F8015B01F8015B521EF9D5A1426D
:10F3E000D8D3002070BD00002DE9F04700268CB076
:10F3F000DFF86091B0464FF48075012437460696D9
:10F40000284605F02DFE38B1D9F80403204203D078
:10F41000284605F01BFE26432D1D64007F1CADB25F
:10F42000082FEDD34FF4BE74204605F019FE48B105
:10F43000204605F00BFE46F0004606AA01210020FA
:10F4400005F0F0FD444D16F0FF0F15D00127002404
:10F4500037420DD009EB8401D1F81005D1F8101511
:10F46000C0F3042055F82420C1F3014102B19047B4
:10F470007F00641C082CEBD3002E67DA4FF0FF30BE
:10F48000CDE9088000263446281910F8507F90F9FD
:10F49000000027F0C008401C44D009A9404604F0F1
:10F4A0009BFF58B34FEA9719404602F05FFD55F8AD
:10F4B00020701FB1B9F1030F03D00FE0B9F1030FB2
:10F4C00030D108A84FEAD80208F00703815C4FF05A
:10F4D000010C0CFA03FC41EA0C0181544FF0A041ED
:10F4E00001EB8800D0F8000706A9C0F3014A4046A6
:10F4F00004F072FF18B1BAF1020F03D012E0BAF1B2
:10F50000030F0FD1B9F1030F08D1BAF1020F1BD0CD
:10F510000221404605F06AFD761CF6B217B1494655
:10F520004046B847641C042CAED3002E0ED06A4669
:10F530000121002005F076FD06990098884205D04B
:10F540000690089809909DE70321E2E70CB0BDE81A
:10F55000F0870000006000404439002081070CD192
:10F560006421B0FBF1F201FB120141B94FF4C87103
:10F57000B0FBF1F201FB120008B10020704701203E
:10F58000704700F01F02012191404009800000F106
:10F59000E020C0F88012704700F01F020121914066
:10F5A0004009800000F1E020C0F88011704700F0B1
:10F5B0001F02012191404009800000F1E020C0F8C5
:10F5C0000011704700F01F020121914040098000A6
:10F5D00000F1E020C0F80011704700F01F02012187
:10F5E00091404009800000F1E020C0F8001270470F
:10F5F0004907090E002806DA00F00F0000F1E020AC
:10F6000080F8141D704700F1E02080F80014704766
:10F610002DE9F0414FF48077384604F0AFFF012424
:10F62000104EA50748B1384604F0AFFF0120C5F8D9
:10F6300008037470002002F0FBFC4FF48277384618
:10F6400004F09CFF00280BD0384604F09EFF0220F7
:10F65000C5F80803B470BDE8F041012002F0E8BC31
:10F66000BDE8F0813039002007480021C0F8401182
:10F67000C0F84411C0F84811C0F84C11C0F800118E
:10F68000C0F8041108F06EBB0010014004220021F4
:10F69000014805F01BBA0000004002402DE9F0438C
:10F6A000314E324F324C7068B0FBF7F3708898429D
:10F6B00031D0738040F2B2754FF4B7794FF4B67819
:10F6C0000FE02846FFF74AFF38B14B4502D3A3F5B8
:10F6D000B77304E06D1CADB205E0A3F26D136D1CB1
:10F6E000ADB24345EDD8E5800025DFF888800CE019
:10F6F000E088FFF733FF08B1012D30D018F805007E
:10F70000984204D81B1A6D1CADB21C2BF0D26D1C94
:10F7100025705B1C63707068B0FBF7F107FB11008C
:10F720004FF46161B0FBF1F2A270B0FBF1F201FBAA
:10F7300012033C22B3FBF2F3E370B0FBF1F301FBE5
:10F740001300B0FBF2F102FB110020716278217806
:10F75000E08800F011F820720020BDE8F0831D2B36
:10F76000D5D31D3BCFE700000C26002080510100BF
:10F77000CC9100200089020030B56424B0FBF4F382
:10F78000B0FBF4F5DBB204FB1500132B01D9643098
:10F79000C0B200EB90040723B4FBF3F503FB154460
:10F7A000084D22440D44800715F8015C2A4492B2AA
:10F7B00003D1032901D2521E92B2B2FBF3F003FB34
:10F7C000102030BDF48802002DE9F04F994605461F
:10F7D0000023A0F2B270DDF824B092468846822859
:10F7E00002D30120BDE8F08F40F2B274204E214FC9
:10F7F00008E02046FFF7B2FE08B1334400E03B4486
:10F80000641CA4B2AC42F4D3A8F10100C6B2002437
:10F81000194FDFF868800FE0385D40F2A32110FB3C
:10F8200001F003EBC0132846FFF798FE10B1012C3E
:10F8300000D14344641CA4B2B442EDD340F2A321EE
:10F840001AFB01F00D4903EBC01049420844C9EB13
:10F850004912C2EB092100EB0110CBEB0B1100EBBD
:10F8600081000A990844064948600020BAE7000070
:10F870000085E2018033E10100890200805101002E
:10F880000C26002008F0BCB9074810B5406830B11C
:10F890008047002807D0BDE8104000F093BEBDE8C7
:10F8A000104003F0EDBF10BDCC250020F0B5A348FB
:10F8B0000023021D01780125101D4FF080540629F8
:10F8C0000BD11678360708D10678C6F30316032E37
:10F8D00006D0042E04D0052E02D0062907D00EE053
:10F8E000B4F82463964FC6F304263E6002E016780F
:10F8F000360704D10678C6F30316032E02D0062974
:10F9000004D00FE0904F8F4E7E670EE016783607DA
:10F9100008D10678C6F30316032E06D0042E04D0B1
:10F92000052E02D0062907D00EE0D4F84462874F96
:10F93000C6F342363E6002E01678360704D10678F8
:10F94000C6F30316032E02D0062906D011E0804E1E
:10F95000376827F0807737600EE01678360708D1D1
:10F960000678C6F30316032E06D0042E04D0052E07
:10F9700002D006290AD011E04FF08046C6F80C31BB
:10F98000C6F81031714E361F336002E01678360724
:10F9900004D10678C6F30316032E02D0062905D03B
:10F9A0000CE06A4F032664373E600AE0167836079B
:10F9B00004D10678C6F30316032E02D006290DD013
:10F9C00014E0644F05263E60624E78363560614E25
:10F9D000083633603F263F1D3E6002E0167836074A
:10F9E00004D10678C6F30316052E02D0062957D097
:10F9F00068E059490968594A11605749091D096861
:10FA0000121D1160544908310968121D11605249D4
:10FA10000C310968121D11604F4910310968121D1F
:10FA200011604D4914310968121D11604A4918319D
:10FA300009684A4A2032116047491C310968121D81
:10FA40001160454920310968121D11604249243175
:10FA50000968121D1160404928310968121D1160A2
:10FA60003D492C310968121D11603B49303109684C
:10FA70003A4A40321160384934310968121D116028
:10FA8000354938310968121D116033493C31096824
:10FA9000121D1160304940310968121D116002E0E9
:10FAA000117809070ED10078C0F30310032803D0A2
:10FAB000042801D0052805D1D4F85802284900F0BF
:10FAC0004F00086022487438016841F470010160F9
:10FAD000BFF34F8FBFF36F8F4FF01021D1F80002AB
:10FAE000002803DBD1F80402002822DA1D4A156041
:10FAF0001D480468002CFCD01524C1F8004205689C
:10FB0000002DFCD0C1F8044201680029FCD013602C
:10FB100001680029FCD0BFF34F8F0D48F038016811
:10FB2000124A01F4E06111430160BFF34F8F00BF3F
:10FB3000FDE710490E480860F0BD0000E00F00F03E
:10FB4000403501400DF0ADBA00C007403C05004013
:10FB5000FCED00E0105600400404001020C50040F9
:10FB6000E40E004004E5014000E401400400FA0511
:10FB70000090D003202600200448017F044800297B
:10FB8000024901D008F023BB08F092BA9C3900204A
:10FB9000002000400FB4054B10B503A9044A029899
:10FBA00000F02AF810BC5DF814FB0000992A02004E
:10FBB000C825002002E008C8121F08C1002AFAD197
:10FBC00070477047002001E001C1121F002AFBD1DD
:10FBD000704700000121202803DA814005480140D8
:10FBE00003E0402802DA2038814009B10120704743
:10FBF00000207047FC06FFBD2DE9FF4F8DB00F467A
:10FC00000546002606E025280BD0DDE90F129047B7
:10FC10006D1C761C28780028F5D111B03046BDE85F
:10FC2000F08F0024A246A1460122EC4900E00443E3
:10FC300015F8013F203B02FA03F00842F7D128787B
:10FC40002A2810D06FF02F022878A0F1300109295E
:10FC500014D80AEB8A0102EB410144F0020400EBE4
:10FC6000010A6D1CF0E701CF5FEA000A03D544F4F6
:10FC70000054CAF1000A44F002046D1C28782E28B2
:10FC800017D115F8010F44F004042A280ED06FF0A4
:10FC90002F022878A0F1300109290AD809EB89013F
:10FCA00002EB410100EB01096D1CF2E757F8049BE0
:10FCB0006D1C28786C280FD006DC4C2817D06828DB
:10FCC0000DD06A2814D104E0742810D07A280FD1FE
:10FCD0000DE044F400140AE044F4801401E044F41C
:10FCE00040146978814202D104F580146D1C6D1CAA
:10FCF0002A786E2A1FD00CDC632A31D004DC002A5B
:10FD00008BD0582A11D1A3E0642A68D0692A0CD17B
:10FD100065E0732A2ED004DC6F2A73D0702A04D1D8
:10FD20009BE0752A6FD0782A6ED01046DDE90F125D
:10FD30009047761C50E1C4F30250022806D00328F5
:10FD400009D0042801CF09D0066045E101CFF117A1
:10FD5000C0E9006140E101CF06803DE106703BE172
:10FD600017F8040B8DF8000000208DF80100EB4619
:10FD7000012003E057F804BB4FF0FF3061074FF05C
:10FD8000000102D40DE008F10101884649450FDA6F
:10FD90008045F8DB1BF808100029F4D108E008F1D1
:10FDA000010188468142FADB1BF808100029F6D1D0
:10FDB000DDE90F23AAEB08008146214600F036F961
:10FDC000304400EB080604E0DDE90F121BF8010BDC
:10FDD0009047B8F10108F7D221464846F7E00A21DA
:10FDE000C4F302534FF0000B0891022B04D001CF53
:10FDF000C117032B09D00AE0FF1D27F00707F7E81A
:10FE0000020108E032E01FE020E000B2C117042B3D
:10FE100001D140B2C117031E71F1000307DA4FF0A0
:10FE2000000CD0EB0C006CEB01012D2302E023054C
:10FE300004D52B238DF82430012303E0E30701D000
:10FE40002023F7E7984658E00A2110E010210EE041
:10FE500010204FF0000B08900CE010214FF0000B29
:10FE600044F004044FF00809089103E008214FF022
:10FE7000000B0891C4F30253022B04D001CF0021E0
:10FE8000032B06D006E0FF1D27F00707F7E8020165
:10FE900003E080B2042B00D1C0B24FF0000823076A
:10FEA0002BD5702A07D0DDF820C08CF0100C5CEA4E
:10FEB0000B0C05D00EE040238DF82430012308E020
:10FEC00050EA010306D030238DF824308DF8252028
:10FED00002239846DDF820C08CF0080C5CEA0B0C7D
:10FEE0000BD150EA010301D1630706D530238DF809
:10FEF00024304FF00108A9F10109582A04D038A292
:10FF00000B9208AA0A920BE03AA2F9E75B46089A1C
:10FF1000FFF792F90B9B9B5C0A9A521E0A92137090
:10FF200050EA0102F2D10A98ADEB000000F1200B7B
:10FF3000600702D524F4803401E04FF00109D9456F
:10FF400002DDA9EB0B0000E0002000EB0B014144B7
:10FF50000890AAEB010AE00306D4DDE90F2321464D
:10FF6000504600F063F806444FF0000908E009A984
:10FF700011F80900DDE90F12904709F10109761C1B
:10FF8000C145F4DBE0030CD5DDE90F2321465046E3
:10FF900000F04CF8064404E0DDE90F1230209047F1
:10FFA000761C0899481E08900029F5DC08E00A989C
:10FFB0000A990078491C0A91DDE90F129047761CD6
:10FFC000BBF10001ABF1010BF1DC21465046DDE94C
:10FFD0000F2300F019F806446D1C1BE609280100E8
:10FFE00030313233343536373839616263646566AF
:10FFF0000000000030313233343536373839414271
:020000040002F8
:1000000043444546000000002DE9F0410446002528
:100010001E461746880404D405E039462020B04720
:100020006D1C641EF9D52846BDE8F0812DE9F0412C
:10003000044600251E469046C80301D5302700E03F
:100040002027880404D505E041463846B0476D1C9A
:10005000641EF9D52846BDE8F08110B560B159B1EC
:1000600002780B785208B2EB530F05D10622401CE0
:10007000491CFFF74FF908B1002010BD012010BD49
:100080002DE9FC47002517880646158090F82D00BD
:100090001446894630B13A462146484601F0FCF8FC
:1000A000050009D1B0784FF00C0A18B32088C84673
:1000B000001DB84202D95046BDE8FC87684679DF8A
:1000C0000028F9D12088032108F800102088192180
:1000D000401C80B2208008F800102088401C80B2AC
:1000E000208000EB0801BDF8000008F0E8F8218846
:1000F00008442080F0780222C8B1218896F90330A4
:1001000001F1030C4846BC45D5D8425421884FF034
:10011000010C491C89B2218000F801C02188491CCA
:1001200089B2218009F801302088401C2080706845
:10013000B8B1218890F9003001F1030C4846BC4564
:10014000B9D8425421880A22491C89B221804254DC
:100150002188491C89B2218009F801302088401C7F
:100160002080308950B1CDE900474B46062202215C
:1001700006F1080008F0FCF805009DD1308A50B166
:10018000CDE900474B460722032106F1100008F095
:10019000EFF8050090D1308B50B1CDE900474B46C8
:1001A0001522142106F1180008F0E2F8050083D1A9
:1001B000306A30B13B462246494601F0A3FF0500B4
:1001C000DBD1706A30B13B462246494604F040F824
:1001D0000500D2D196F82C0038B13B46224649465C
:1001E000304607F0B7F90500C7D1307838B13B4643
:1001F00022464946304604F05DF80500BDD1284648
:100200005AE70000134A0021535C0BB1012203E0BE
:10021000491C0629F8D300220F49012806D00228DC
:1002200009D003280CD0042812D10DE0487810B171
:100230000AB101207047887810B10AB102207047D6
:10024000C87808B103207047087908B104207047C6
:100250000020704755250020DC37002070B50023B2
:100260008D880C680DE0E618E15C7678864206D150
:10027000E018801C491E10609180002070BD0B4466
:100280005B1C9D42EFD8052070BD10B501220221F4
:10029000002001F06BFC08B1072810D107220221D1
:1002A000012001F063FC08B1072808D100210A22CF
:1002B000084601F05BFC08B1072800D1002010BD02
:1002C00030B5184C99B0592020801748A0603C21C7
:1002D00001A8FEF7FBFF02208DF8040001258DF830
:1002E000065006208DF8070010490691ADF814500D
:1002F000A080202110A80A94FEF7E8FF4FF4486080
:10030000149000208DF84350159001460090084B42
:1003100010AA01A800F0C2FC002801D000F052F998
:1003200019B030BDA4260020182600208424002007
:10033000B550020070B58CB015460E4600236C46D1
:10034000C3F10F01415CE1545B1C102BF8D30D216C
:1003500004F11000FEF7BAFF0020C0F10F02315C7B
:100360002244401C11740328F7D3684643DF002061
:10037000C0F10F01214491F820102954401C03289A
:10038000F6D30CB070BD022001F0B6BA70B51D4AAC
:1003900000214318545C1B79A3421DD1491C89B22A
:1003A0000829F6D3184C60890026D228354623D96F
:1003B00021892068405C00F035FB2089401C80B218
:1003C0002081A188884200D326816D1CADB2D22D38
:1003D000EED36089D238608170BD21892068405C8D
:1003E00000F020FB2089401C80B22081A188884237
:1003F00000D326816D1CADB26089A842EDD866811C
:1004000070BD0000F4250020B4410020F0B50E4A74
:1004100000231E469488156813E05789A7420ED220
:10042000C75CB2F806C005F80C70D7887F1CBFB255
:10043000D780A74200D3D68057897F1C57815B1C89
:10044000DBB28B42E9D3F0BDB44100200549A1F1F4
:100450000C0001604FF4A0418180002141810181A5
:10046000C1807047C0410020FEB5002405460094BD
:1004700001940294A978C0786FF00B0202EB01217D
:10048000084403F0AFFE07461D484078A0B31C495E
:10049000002010312A180B5C12799A422CD1401C92
:1004A00080B20828F6D3174801268DF803608288A9
:1004B000694601F02BF9F8B92046134CF822607018
:1004C00084F8036284F80462A978E87802EB0121D9
:1004D0000844C2B2227005F10C01E01CFEF7DDFEFB
:1004E00022781121B2FBF1F0B2FBF1F301FB1321F1
:1004F000A07009B1401CA070384602F0D5FAFEBDCC
:10050000E4250020A0410020983F002070B5002481
:10051000064D06E06868012110F8340004F05EF929
:10052000641C28788442F5D3002070BD7425002017
:10053000F8B515460C460646052A01D20720F8BD37
:1005400004F032FA18B904F001FA0028F7D1104982
:1005500000204E600C70C1E902500E4D08610DE0A4
:1005600006EBC4006968009181788DF8011000786D
:10057000094A694604F084F90028E0D1641EE4B217
:10058000EED2BDE8F840054A0021024800F046B925
:1005900074250020748802007D320200A922020026
:1005A000BFF34F8F05480168054A01F4E06111432C
:1005B0000160BFF34F8F00BFFDE700000CED00E0CE
:1005C0000400FA050EB500210091CDE901106A463C
:1005D00044F20100FFF7E4FF0EBD0000F0B585B066
:1005E00000254FF40056ADF810500B4C77100395D2
:1005F00006E06570684602F021F960780028FCD0BA
:1006000003AB6A463146384602F03AF90028F0D08A
:1006100002F090F805B0F0BD00260020F0B587B0DC
:1006200000204FF400560090104D7710019012E01A
:1006300002A904A802F044F9040005D00CA0FFF7B9
:10064000A9FA204607B0F0BD0398686004A802F03C
:10065000D7F80028F6D16B4604AA3146384602F096
:100660000FF90028E4D00020ECE70000002600206D
:100670006572726F7220696E2072656164210D0A65
:100680000000000070B58AB0054604684668FFF7B0
:10069000A5FF08B1FFF796FF274802A9C0E9004669
:1006A00005900220ADF81800C002ADF80800400027
:1006B000ADF80A0005A803900120ADF8100007A8C6
:1006C00002F025F930B10446FFF77CFF21461BA05C
:1006D000FFF760FA1A4E30780028FCD0FFF79EFF33
:1006E000041E06D0FFF76EFF214614A0FFF752FA52
:1006F0000AE070686E460168009140680190002031
:10070000315C2A5C914202D011200AB070BD401CBD
:10071000C0B20828F4D30BA0FFF73CFA00240EA0C7
:10072000315DFFF737FA641CE4B2082CF7D30CA054
:10073000FFF730FA0020E8E7C0910020257800009C
:100740000026002053657420646576696365204D3A
:1007500041433A0D0A0000002532782000000000D5
:100760000D0A53657420646576696365204D4143C5
:1007700020737563636573732E0D0A0003780B4A4B
:10078000012143B1012B0BD0032B03D1406800287A
:1007900000D15170704740680028FBD191707047BC
:1007A00040680028FBD1117070470000002600202F
:1007B00010B5054802F0B6F8002803D1BDE8104096
:1007C00001F0DABF10BD00007D07020010B582689D
:1007D000C368934203D002F0F3F8002010BD052057
:1007E00010BD29B112B1531E134203D00920704726
:1007F0000E2070470160838000218160C16008463F
:10080000704710B58268C3689A1A83889A4203D8E1
:1008100002F0E0F8002010BD042010BD074B9B78CB
:1008200023B12AB120B10068037C1BB108207047B6
:10083000072070474174426100207047DC39002076
:1008400070B506F06BFB104800240B210470447057
:100850000E4D817014206C602C706C70FEF791FE50
:1008600007211420FEF7C4FE1420FEF7A0FE08485E
:10087000046007211120FEF7BBFE0548001F006839
:10088000A860002070BD0000DC3900208825002011
:10089000081501402DE9FC47DFF8789099F80230FF
:1008A00073B368B3052902D20720BDE8FC8743690A
:1008B00033B3437C012B25D000270446002588460E
:1008C00016468DF80050684600F0CAF801A807F0F7
:1008D00037FDC8B1012101700F4944600968C0E9C2
:1008E0000218C0E904769DF8040089F801009DF81B
:1008F000000000F0D9F81420FEF76FFE2846D4E778
:100900000820D2E70F46D8E704259DF8000000F044
:10091000CBF8F3E7DC39002004150140064989785B
:1009200039B130B1416921B100210174022107F0D0
:10093000F5B9082070470000DC39002070B50A4E78
:1009400001460A48B578FFF741FF04464DB1002043
:10095000B070711C0122C81D04F038F908B1FFF70E
:1009600031FE204670BD0000B8250020783C0020F4
:10097000F0B5284E89B01F460D00044672603BD08A
:10098000A888296882B22448FFF72BFF002834D1B9
:10099000A889A96882B220481030FFF722FF0028FA
:1009A0002BD120221D496846FEF777FC606906902E
:1009B000207C00B101208DF814008DF81C70607C43
:1009C00000B10E208DF81500E0680290A068039039
:1009D00020680190606800900E48114A694608300E
:1009E00004F0C0F8002808D1B0702068401C04D082
:1009F0009DF81D0018B106E0072009B0F0BD0548BC
:100A0000083004F03BF903490122491CC81D04F0D9
:100A1000DDF8F2E7B8250020783C0020908802003D
:100A2000C97F020010B501460B48FFF7EAFE04003B
:100A300010D10A4804F06CFA60B908490648083930
:100A4000FFF7C4FE30B9054901220839034804F014
:100A5000D9F90446204610BD883C0020C02500205E
:100A600030B5EFF3108172B60D4A9468012324B1BA
:100A70000370002900D162B630BD93604FF0E023CF
:100A8000D3F88051074C25401560C3F88041D3F856
:100A9000844154605A17C3F8842100220270E8E7A9
:100AA000E83A0020FC06FFBD0B498A68002A11D0F5
:100AB00000280FD1EFF3108072B60B684FF0E022E0
:100AC000C2F800314B68C2F8043100228A60002865
:100AD00000D162B670470000E83A00202DE9F041ED
:100AE000064608680C46411C4FF0A0474FF0010530
:100AF00006D005FA00F1C7F80815206804F05BFA83
:100B00006068411C02D0002104F044FA3079204989
:100B100001EB4010A169007F00283068C0F824155F
:100B200025D0607D227D31681043C1F86C05D4E981
:100B300000123068C0F80C15C0F8142524E0A06835
:100B4000411C02D0002104F025FAE068411C05D0C8
:100B50008540C7F80855E06804F02DFAD4E9021280
:100B60003068C0F80825C0F81015BDE8F081607D38
:100B7000217D32680843C2F86C05D4E90012306860
:100B8000C0F81425C0F80C15207D0128D7D0ECE75B
:100B90009C3900202DE9F043044687B0008800F01E
:100BA0008FFA8146208802F0DDFD214F8046667A6B
:100BB000208800223978A56800F0D4FAB9F1000F36
:100BC00033D06079400711D50721404605F006F97A
:100BD000A0B108218DF80C1021880590ADF80E10F9
:100BE000ADF8108003A801F0EFFC07E02088B97889
:100BF00000F0A2FA10B1404602F0A0FD03208DF8EB
:100C000000002088ADF802006079C0F380008DF804
:100C10000400A079C0F380008DF805008DF806501F
:100C20008DF80760684601F0CFFC07B0BDE8F0839F
:100C300020250020F0B50C4693B01F210726ADF803
:100C40000010ADF80410002750B1C17849070DD548
:100C50006A4602A9FFF714FA002808D102AD02E0A3
:100C60000025ADF800706CB1E07810B1304613B0DB
:100C7000F0BD01AA0AA92046FFF702FA0028F6D122
:100C80000AAA02E00022ADF80470BDF80400C3B265
:100C9000BDF80000C1B2284672DFE8E72DE9F04751
:100CA0001F46DDF8208013468946040043D0EBB38D
:100CB000404D012000262870EE70202219463E4843
:100CC000FEF7EBFA2E71C5E904784FF6FF706881E4
:100CD000AE613948AE83AE773C212030FEF7F6FA9C
:100CE0003548217820300170A1788170E178C17099
:100CF000617841703049D4E90423C1E90C23D4E977
:100D00000223C1E90A23D4E90623C1E90E23616A5B
:100D1000E1B100F13C0100F1480241628A60636A7E
:100D20001B880B80616A436A898800E003E0998030
:100D30000021436A07E00E20BDE8F087656AAD68D0
:100D40006D5C5554491C9D888D42F7D8A16AD9B174
:100D5000194A9432A2F10C018A608162A36A9B88CD
:100D60008B80A16A836A098819800021836A04E064
:100D7000A56AAD686D5C5554491C9D888D42F7D8B5
:100D800094F82C1080F82C10216A49B109490C31D3
:100D90000162226A52884A80216A026A09881180A7
:100DA000616801B141604946BDE8F0470248203022
:100DB000FFF740BF3C250020DC37002010B501883C
:100DC000144C102918D011291CD01B2919D1007AD4
:100DD000002816D1E0780521401CB0FBF1F201FBA0
:100DE000120000BF00F018F800280AD0616900293D
:100DF00007D0BDE810400847C17B012901D1808898
:100E0000608110BD0021A171808861898842F8D17C
:100E10000120E7E73C2500202DE9F0413D4C8046CC
:100E200086B0207848B184F8038004A801F0FAFE67
:100E30000498012628B1667068E0082006B0BDE875
:100E4000F0810025A561344FA583A577787810B18E
:100E5000E078012806D0B87858B1E078012801D0B0
:100E6000022806D1216919B166710820884700E07F
:100E700065714046FFF7C6F9E070216939B1032872
:100E800001D0042803D1387808B1A07990B1E57178
:100E900000950295019503958DF800508DF8085046
:100EA0001C48E1781830052925D2DFE801F0310827
:100EB000111D21002572E67107208847E8E7A6701A
:100EC00001908DF80060ADF80C50ADF80A5014E0B8
:100ED0000221A17001908DF80060B889ADF80C0076
:100EE0003889ADF80A0008E0684606F077FB02E0B2
:100EF000684606F097FBE07820B12179684673DFF9
:100F000000289BD1216909B1A0788847002095E786
:100F1000A570F7E73C250020DC37002070B50546BA
:100F200001461C220F48FEF7B8F90F4C0026267028
:100F3000286830B1016861604068A060201D7ADFD8
:100F400002E00948001D7BDF00280AD14FF6FF7040
:100F500060806670BDE87040044A00210448FFF7D5
:100F60005DBC70BDAC2C0020BC240020C9820200F6
:100F7000C487020002494A6C091D06F023B900002B
:100F8000C82C002002460248016D001D06F007B97A
:100F9000C82C002002460248416D001D06F0FFB833
:100FA000C82C00200249C86C896C084006F02FB993
:100FB000C82C00202DE9F047044603883F48012251
:100FC000A4B000F1480A102B09D0112B54D01A2BD1
:100FD00070D1217AB2EB111F53D2012352E0D0E934
:100FE00011218A430546011D12A806F0EBF84422A0
:100FF00012A901A8FEF751F9DFF8C0900026374684
:1010000009F144090DF104080AE000BF08EB4600AD
:101010001D2283884946281D009706F085F8761C16
:101020000198B042F2D8686CA688C04306F09EF8DA
:10103000A0F57F41FF3917D005EB400001238680E2
:1010400032465146281D06F0F1F801233246494642
:10105000281D06F0EBF8E07B02280BD0002317498F
:10106000A2884C31281D20E024B00420BDE8F047C0
:10107000FFF7A8BA0123F2E70023A2885146001D1A
:1010800013E000230D490546A2885031001D06F0EB
:10109000CDF8207A0221B1EB101F01D2012300E02C
:1010A00000230649A2885431281D24B0BDE8F0472A
:1010B00006F0BCB824B0BDE8F0870000C82C0020C2
:1010C00070B50A4E054600242A46301D716C06F0A4
:1010D00066F840B12A46301DF16C06F060F808B1A0
:1010E000022400E00124204670BD0000C82C00202E
:1010F00010B50024204607F017F928B1641CE4B2AB
:10110000182CF7D3182010BD03480122A240016813
:1011100011430160204610BDC82C002010B50446C4
:1011200007F002F9002803D0024800EB8400806D2C
:1011300010BD0000C82C002070B505460C460846BE
:1011400007F0F2F8002809D005482A4600EB840190
:10115000001D896DBDE8704006F021B870BD00002B
:10116000C82C002070B5064615460C46084607F008
:10117000DBF800280AD006482B4600EB84013246F3
:10118000BDE87040001D583106F050B870BD000039
:10119000C82C002070B540B10C4D297839B10446F7
:1011A00005F07EFE28B1002070BD0E2070BD082025
:1011B00070BDE868062807D20549226801EB800166
:1011C000401C0A60E860EEE7042070BDD0240020D7
:1011D000802D002040B1054900220123CA600B7018
:1011E000C1E90102104670470E207047D02400204C
:1011F00000281FD000291DD00F4A1278002A19D0CC
:101200000A88112A0ED0302A06D0322A07D0332A73
:1012100010D1091D04F08EB9091D04F02DBA091D65
:1012200004F068B88988B0F85225914202D10021B3
:1012300080F84F1570470000D024002010B50B46F1
:10124000040009D0124A107840B1D06830B194F847
:101250004F0528B1112010BD0E2010BD082010BD73
:10126000A4F852350020906084F8500584F84E05AB
:1012700084F84D0507482246012100682060184681
:1012800094DF0028EBD1012084F84F05002010BD29
:10129000D0240020802D00207CB5054608880C460F
:1012A0000930904201D90C207CBD68466DDF0028D2
:1012B000FAD121880820685420881B21401C80B264
:1012C000208029542088401C80B220802844DDF8EA
:1012D00001100160BDF8051081802088801D80B25A
:1012E00020809DF80010490800D001212954208851
:1012F000401C208000207CBD7047000030B5154B9D
:101300000D4604000FCB85B08DE80F0020D0FDB155
:101310004FF6FF70A0802868206100202075A07320
:1013200001208DF812004FF65960ADF81000A21C94
:1013300004A90120A0DF002808D12146684662DF09
:10134000002803D12946204600F070FD05B030BDCD
:101350000E20FBE76088020038B5002810D0002975
:101360000ED00A88502A35D00BDC102A18D0112A4A
:1013700006D1828889888A4202D14FF6FF71818026
:1013800038BD512A0ED0532AFAD1C988C288914259
:10139000F6D1007D0028F3D0BDE8384000F054BA03
:1013A0008988ECE78A8883889A42E9D111F8062F68
:1013B000022AE5D14A88C3889A42E1D10A7A042AEE
:1013C000DED0062ADCD0052ADAD0BDE83840891CF8
:1013D00004F059B8044631F8060F62899042CFD123
:1013E00048890228CCD101F10C0000F0B9F9A073B2
:1013F0002269002AC4D008B1012000E002208DF843
:10140000000069462046904738BD000010B50446EC
:10141000FFF7D0FD204605F085F921460D48FFF77E
:10142000E7FE21460C4800F03CF8204600F0ECFABC
:1014300021460A4802F0EEFF204603F045FE204612
:10144000FFF7BCFC21460348BDE810402438FFF7F5
:1014500083BF0000B0260020A0410020042C002003
:1014600028B101800AB11168C160002070470E20C8
:10147000704708B598B191B101228DF8022041F66C
:101480001402ADF80020096801614FF6FF71018078
:1014900000218181C1816846FFF77CFE08BD0E20D6
:1014A00008BD30B587B0002824D0002922D00A8892
:1014B000112A2AD0362A1DD0382A1DD0392A19D10E
:1014C00004888D88002201F10A03AC4212D1022463
:1014D0008DF800408C88ADF802404989ADF80410C1
:1014E00069469C188D18A479521CAC71142AF8D343
:1014F0000269904707B030BD008889888842F9D1D9
:1015000007B0BDE8304006F067BC028889888A428F
:10151000F0D14FF6FF71018000218181C181E9E79F
:10152000F0B541A28FB00FCA06AC01AD84E80F0040
:10153000414C03208DF80400A2788DF805206078D6
:101540002346411C8DF8061000EB0011521E194471
:10155000904208DA4FF0110205F1030001F1030196
:10156000FDF79BFE1AE019D12278C0F1000000EBD4
:1015700000101044C6B2324605F1030001F1030128
:10158000FDF78BFE00212022C6F1110004E0731844
:101590002B44491CDA70C9B28842F8DC2749D1E9EA
:1015A0000301CDE90B0126484188ADF82E100D95B9
:1015B00000880BA99CDF10F0FF004FF0000503D05E
:1015C00084F803520FB0F0BDA0786178401E8142CC
:1015D00023D11C4806AED0E90010CDE90710012048
:1015E0008DF824009DF81B2002209DF81910121D73
:1015F00003E0335C5940401CC0B28242F9D83154F8
:10160000CA21304400274170F05DFFF70BFA7F1CC0
:10161000FFB20F2FF8D384F803526078401C60703B
:1016200084F804520020CDE75A430009000000006E
:10163000000000000000CA00983F0020C888020097
:10164000A0410020F425002070B50A7886B0002A59
:1016500057D18A88A2F5C053143B52D18A79012A06
:101660004FD14A88ADF802200024274D34E000BF56
:1016700004EBC40201EB4202D389A3F52856533E82
:1016800014D0A3F5A856283E17D0A3F5A856303E8F
:1016900016D0A3F5A856243E15D0A3F5A856253E8E
:1016A00014D0A3F5A856313E13D014E0138BADF837
:1016B0000630D28AADF808200DE0D28A6A800AE0AE
:1016C000D28AAA8007E0D28A6A8104E0D28AEA80BC
:1016D00001E0D28A2A81641C0A7AA242C8D8018811
:1016E000A1F57F42FF3A06D0818921B9C18911B99C
:1016F000DDF80610C16001218DF80010026969460D
:10170000904706B070BD0000A0410020FEB5044621
:1017100017460D460846FDF7F6FDC6B234B1284619
:10172000FDF7F1FD142803D90720FEBD0E20FEBDF4
:101730002088A0F57F41FF390DD00849D1E900018B
:10174000CDE90001ADF80270ADF806600295208881
:1017500069469CDFFEBD0820FEBD0000C88802006F
:101760000078C0F34000704730B5334885B000239F
:10177000006804905022314904A806F0E9F908B144
:10178000FEF720FF002403A8039406F0C5F908B172
:10179000FEF718FF01250094019402948DF8005083
:1017A00069462846039A69DF08B1FEF70BFF0094EB
:1017B0008DF800508DF80150019402948DF802408C
:1017C00069464020039A69DF08B1FEF7FBFE0094EA
:1017D0008DF800501720ADF802000194029469467C
:1017E0002320039A69DF08B1FEF7ECFE0094019410
:1017F00003208DF80050ADF8040002948DF80250DB
:1018000069462020039A69DF08B1FEF7DBFE03A8D2
:1018100006F096F908B1FEF7D5FE094806F086F9FC
:1018200008B1FEF7CFFE074806F0CAF9002801D03C
:10183000FEF7C8FE05B030BD7C8702003C260020C4
:101840000D140200D57B020070B54FF0FF3100206F
:101850003BDF002835D1B1213ADF002831D111DF3B
:1018600000282ED14FF01020406913DF002828D126
:1018700001214FF0E0208A05C0F88022D0F8003125
:101880005FF0000001FA00F21A420AD042B202F000
:101890001F0501FA05F45209920002F1E022C2F894
:1018A0008041401C2028EDD3BFF34F8F05480168CD
:1018B000054A01F4E06111430160BFF34F8F00BF9F
:1018C000FDE770BD0CED00E00400FA050149085C7D
:1018D00070470000948702000649095C4FF0A04061
:1018E000D0F81005C84010F0010000D0012080F0B1
:1018F000010070479487020007490B5C4FF0A0413C
:10190000D1F804250120984020EA0203C1F80835E7
:101910001040C1F80C057047908702000249085C2E
:10192000012103F074BB0000908702000249085CAB
:10193000002103F06CBB0000908702000649095C9F
:101940004FF0A040D0F80405C84010F0010000D0CE
:10195000012080F001007047908702007CB50024D0
:10196000084E25460122305D009500231146019561
:1019700003F0DAFA641C042CF4D3BDE87C4000F0D8
:1019800003B800009087020010B500242046FFF73E
:10199000C5FF641C042CF9D310BD10B500242046EB
:1019A000FFF7C4FF641C042CF9D310BD10B5024628
:1019B000064B4FF0FF3000215C5C944201D1084699
:1019C00010BD491C0429F7D310BD00009487020004
:1019D00070B50C4E0C004FF0000530600BD00120AC
:1019E00000F0A2F808B1022004E0002000F09CF80A
:1019F00000B10B202070706810B9FEF746FC054658
:101A0000284670BDB424002010B51A4C01886068C7
:101A100010290ED011292BD1401E606028D1FEF76D
:101A200034FC002824D02168002921D0BDE81040D2
:101A30000847D0B900210122084600F097F808B104
:101A400007280FD107220221012000F08FF808B1EA
:101A5000072807D104220221002000F087F820B1D6
:101A6000072802D0216801B188476068401C606087
:101A700010BD0000B424002010B5002000F0CAF909
:101A800008B1062806D1012000F0C4F908B10628E3
:101A900000D1002010BD00002DE9F0470D46814621
:101AA000FFF784FF0446042836D2DFF874801B4811
:101AB0001C4EA8F10C0725B3012D0ED0022D2BD101
:101AC00004EB440030444578002D25D0B968002946
:101AD00022D02846BDE8F047084704EB4401755C76
:101AE0000E44717849B10E4A4FF40041093A8068BA
:101AF000FEF7D0FE08B987F80390B17808F8041013
:101B0000E2E78068FEF70AFF04EB4401314418F86D
:101B100004008D78A842D7D0BDE8F08798870200EE
:101B2000B0240020602C0020FFF7D6BE042805D08A
:101B300007280DD00A2814D105F096BD09481321B5
:101B4000008876DF08280CD000280AD0FEF73ABDBE
:101B500005480178002904D1012101708BDF05F0CF
:101B600095BA7047FC2500208024002070B5002322
:101B7000042810D20D4D00EB4004012A02D10129A6
:101B80000CD00022094E00EB4000304461B1012925
:101B900006D0022906D00723184670BD0E30C2B207
:101BA0002A55F9E74270F7E78270F5E7602C0020CC
:101BB000044A014600201279D20702D0084600F0FC
:101BC0004DB87047A424002070B506461E48002476
:101BD000C0E90161B00720D5002501221146284641
:101BE000FFF7C4FF6D1C0446042D02D2002CF4D074
:101BF00013E094B940F2666204211448FEF798FCA1
:101C000004000AD1FEF782FC040006D10F48104AF6
:101C10000021001FFEF702FE0446F00701D0FFF787
:101C20009DFE74B909480B4A00210C38FEF7F6FDF9
:101C3000040006D10548084A01210838FEF7EEFDE8
:101C40000446204670BD0000A4240020A4870200A2
:101C5000251E0200253A0200870302002DE9F05FED
:101C60006A4C054600266078B34618B184F801B086
:101C700001F0C0FE664F4FF47A694FF4C87A4FF016
:101C80000108182D62D2DFE805F0AC0C0C31404D94
:101C900062676B746B74BE7D7D7D7D7DACAFB2B5CC
:101CA000BEBE0020FFF74AFE00284FF0000008D01B
:101CB000FFF734FE022D02D14FF4E16008E0484600
:101CC00006E0FFF733FE022D01D1C82000E05046A8
:101CD000410CC0034FF4FA72801841F100012570E5
:101CE00052000023FDF7A8FA01462AE00020FFF782
:101CF00025FE00284FF0000004D0FFF70FFE4FF440
:101D00004870E5E7FFF712FEDFE70020FFF716FE59
:101D100000284FF0000002D0FFF700FECFE7FFF7EA
:101D200005FED4E70020FFF709FE00284FF0000071
:101D300002D0FFF7F3FD01E0FFF7F8FD257041F653
:101D40009A1100223868FEF7A5FD064646E00020FD
:101D5000FFF7D2FD257008E0002051E025703DE03E
:101D600084F801800120FFF7C7FD002240F6CD4135
:101D7000E8E784F801800120FFF7BEFD00224FF460
:101D80008041DFE77868FEF7C9FD0646D5F111000E
:101D900000D02EB10220FFF7C1FD84F802B01DE093
:101DA000012816D980B2C8214843C117C90341EAA6
:101DB0005041C0034FF4FA72801841F10001520003
:101DC0000023FDF739FA014600227868FEF762FD2C
:101DD00006460220FFF7AAFD84F802803046BDE8DF
:101DE000F09F01F007FEB9E701F004FEB4E701F04F
:101DF00001FE04E001F0FEFD0020FFF797FD012049
:101E0000FFF794FDAAE7FFF7C8FDA7E7A424002089
:101E10009887020010B5FFF759FD032103F0D5F8AC
:101E2000002010BD00780221FFF736BE30B58FB01C
:101E300005461C2101A8FDF749FA0024142109A830
:101E40000894FDF743FA9DF82000009420F00F005D
:101E5000401C20F0F00010308DF820009DF821008B
:101E6000029420F00F00401C20F0F00010308DF89C
:101E700021009DF82200049420F00600801C8DF8BB
:101E800022009DF8040009AA40F028008DF8040003
:101E900008A8CDE90540079428788DF83A0003207A
:101EA000ADF838009DF80000ADF82C4020F00F0090
:101EB000401C20F0F00010308DF800009DF801006B
:101EC000ADF82E4020F00F00401C20F0F000103044
:101ED0008DF801009DF802000D9420F00600801C92
:101EE00020F0080040F011008DF802000EA80990C3
:101EF0001720CDF828D0ADF830006888AB1D01A9B7
:101F0000A2DF0FB030BD000005494FF0FF320828B6
:101F100041F8202002D3084480F848207047000090
:101F200044390020F0B54FF0FF3512B100230826E8
:101F300001E008230C260C4C05E000BF54F8237088
:101F40007F1C04D05B1CB342F8D32846F0BD261892
:101F50005DB286F8305044F82310002AF5D1E1181C
:101F600081F84800F1E700004439002002490844A4
:101F700090F93000704700004439002008B502464F
:101F800090F84E050B46C0EB0011C1EBC01002EB00
:101F9000400092F84D2542B1521ED2B202EBC2016E
:101FA00000EB4102518A491C00E0C188ADF80010E5
:101FB0000089ADF802006946184696DF08BD0000AA
:101FC00038B10549814204D80449814201D9012030
:101FD00070470020704700002C2600203C2600207F
:101FE000044A0168914201D0083101E001493839C1
:101FF00001607047D03B002070B504464FF6FF7576
:102000000A462846AC4208D14FF480742146104657
:1020100004F044FBA04209D070BDFF2CFCD821463F
:10202000104604F02EFB08B1204670BD284670BD56
:1020300070B5084C050009D010342168002907D07C
:1020400008682060496828468847F6E70834F4E7BE
:1020500070BD0000303900202DE9F05F264841684E
:10206000F1B3DFF898B00E688146DBF8004087686E
:102070008078E11B21F07F45ED1CB0B9DFF880804E
:102080004FF48030C8F84403C8F804031120FDF76A
:1020900078FA1120FDF78BFA4FF0010AC8F800A07A
:1020A0002F2002F07BFA89F802A0B54200D2354613
:1020B000124BE8193C3320F07F401860DBF8001029
:1020C0005A46091B21F07F41001B20F07F40C91CAC
:1020D00081420FD9106818602F2002F05FFA00E0EB
:1020E00004E0BDE8F05F1120FDF777BABDE8F05FCE
:1020F00004F014BFBDE8F09F8825002004150140BE
:10210000001001402DE9F04117880646B81D14461D
:102110000D46984202D90C20BDE8F0813188072293
:1021200006290AD34FF4486C4FF6FF73614501D975
:10213000994202D17088062801D21046ECE760452A
:1021400001D99842F9D1994203D0984201D08142F5
:10215000F3D80520E85520881221401C80B2208049
:1021600029542088401C80B220804119308806F014
:10217000A6F82188084480B220804119708806F0B2
:102180009EF82188084420800020C5E7FEF71ABA8F
:1021900001460148FFF758BAA04100207FB50C4620
:1021A00010B1012004B070BD2079002638B141F68D
:1021B0001D5501281BD0022826D00F20F2E70296D9
:1021C0000396E0680190694601A804F0A3FD50B1B0
:1021D00002988188E18000882081BDF80010029873
:1021E00004F00CFE00E00A2002212171DAE70A4B1C
:1021F0006A460021A01D04F049FD38B1064908399E
:102200008E60CE600A28CDD12846CBE7024881886F
:10221000019804F0F3FDF5E7A42500202DE9F8432B
:10222000054690F84E050F46C0EB0011C1EBC010FB
:1022300005EB400695F84D45914604EBC40006EBCE
:1022400040013279601C0A31904226D16B4600224F
:10225000284601F08DFB18B310E0401EA04201D1CA
:10226000002004E004EBC40006EB40001C30804674
:1022700002466B46284601F07BFB30B100203870E7
:102280006946484697DFBDE8F88395F84D05414615
:10229000401C641C85F84D05E4B23079A042DCD8BE
:1022A000012038700020EEE72DE9F04100260125DD
:1022B000144C22E06068226900EBC607387805FA02
:1022C00000F1114217D08A43226102F035FB024629
:1022D0003878E36805FA00F1194002FA00F39942F0
:1022E00009D17978012901D0012100E00021514074
:1022F0007A6802B19047761CF6B220788642D9D32C
:10230000BDE8F0817425002070B50F4CA088A0F5C1
:102310007F41FF3917D00D4D2878012805D10220C3
:10232000FFF7FCFA74DF00202870094802F07CF9FE
:102330003B21A08876DF08B1FEF744F9BDE8704084
:10234000044802F071B970BDE42500200D2600207C
:1023500080841E0020A107002DE9F047894690F8EF
:102360004E159046C1EB0112C2EBC11100EB4107C3
:10237000384604F095FD060044D0234CA06806289A
:1023800040D200EB8001214DC1EB801005EB8000B5
:10239000E222A0F802803946001DFCF77EFF0027EC
:1023A000B9F1000F07D0A06800EB8001C1EB8010ED
:1023B00005F8207007E0A168022001EB8102C2EB62
:1023C000811105F82100A06800EB8001C1EB8011AC
:1023D00005EB8101401CC1F8E860A060E16888421B
:1023E00010D100260AE000BF06EB8600C0EB861085
:1023F00005EB8000D0F8E8108847761CE06886423C
:10240000F2D3A760BDE8F087D0240020982D0020EB
:1024100030B50D4690F84E151446C1EB0112C2EBD3
:10242000C111BBB000EB410004F03AFD030007D03E
:10243000ADF8024001208DF80000684601959847EC
:102440003BB030BD0E4910B50A784C780023A2424B
:1024500012D0521CD2B20A70022A00D10B70084A64
:102460000B780C3252F8232002608868104420F068
:102470007F408860012010BD0360002010BD000077
:10248000882500203EB5094D38CD8DE83800ADF8DF
:10249000041007498DF80620ADF8020000220978E3
:1024A000FEF760FE684600F08FF83EBD50880200DF
:1024B0002025002010B503780022072B06D2DFE884
:1024C00003F00504060C1C252B000A7010BD012228
:1024D0000A7002898A81828814E002220A700289C5
:1024E0008A818288CA81C2688A60007C062802D0FC
:1024F0000020087410BD0120FBE703220A70C28887
:102500008A810289CA81C068886010BD04230B706B
:10251000C0888881CA8110BD0520087010BD0000E8
:1025200070B5064D0646002455F8241009B1304612
:102530008847641C082CF7D370BD0000003B0020C6
:102540000EB5002911D011290FD00022009202925D
:10255000ADF8020001910D2908D0862908D0092084
:102560008DF80000684600F03DF80EBD0B20F7E73F
:102570000A20F5E70149096808470000E82400201F
:1025800070B5054D06460024304655F8241088479E
:10259000641C022CF8D370BDE08702002DE9F041E5
:1025A00007460024064E074D05E000BF56F82410EC
:1025B00038468847641CE8788442F7DBBDE8F08140
:1025C000903700201025002070B5054D06460024E8
:1025D000304655F824108847641C022CF8D370BD8F
:1025E0001888020001490968084700005C88020059
:1025F0007FB50446406858B100200390207800263B
:10260000384D06285DD2DFE800F05C0505264169FB
:102610000120F2E7A08900F0E6F918B9E08904F09A
:1026200007FC80B3A089A0F54040ADF80200A07B74
:102630008DF8040020780128606806D048B1042095
:102640008DF80000606803901AE00028F8D003209D
:10265000F6E70120F4E7A08900F0C5F918B9E08990
:1026600004F0E6FB78B1A089A0F54040ADF8020087
:10267000A07B8DF80400606830B105208DF8000063
:10268000A06802901AE01CE00220F7E7A08900F0A1
:10269000AAF9B0B1E089A0B9A089FF21A0F5404016
:1026A00080B2ADF802008DF80410616881B1072096
:1026B0008DF800006E70AE7003F04EFD684603F0BA
:1026C00023FC6878002802D06E7003F045FD7FBDC2
:1026D00006218DF8001003F0CDFDEBE708208DF802
:1026E0000000EBE7FC24002000B5114987B0097811
:1026F000890702D4022007B000BDA0F57F41FF3951
:1027000011D005218DF8001001218DF80410ADF8CD
:10271000060000221146684603F022F828B104F0B2
:1027200097FA0020E7E70420E5E70820E3E7000048
:102730009C25002000B50E4887B00078800702D4A1
:10274000022007B000BD06208DF8000000221146CF
:10275000684603F005F840B10648017809B1012147
:10276000017304F075FA0020EBE70820E9E70000A8
:102770009C250020003C002010B58CB01421684638
:10278000FCF7A4FD1D480078810703D56846FFF7D4
:10279000C7FE30E0C0072ED1012000F049F900F05B
:1027A000E9F901248DF8144003F0B2F80C281BD28B
:1027B000DFE800F0061006101A1809181A1216128F
:1027C0000B200CB010BD022000F032F9012000F007
:1027D00015F9DBE7002000E003208DF8180003E086
:1027E0000220FAE78DF818400022114605A802F0F1
:1027F000B7FF04F02DFA0020E3E700009C2500203D
:1028000038B5040011D0694604F084FA88B10A484A
:10281000BDF8001000EB0110818941B1A27A32B1FC
:10282000491E81810020A07238BD052038BD0620D8
:1028300038BD0A2038BD0000E03B002000B50F493C
:1028400087B00978890702D4022007B000BD80B1A3
:1028500004218DF8001000218DF804100068039009
:102860000A46684602F07CFF28B104F0F1F9002026
:10287000EBE70520E9E70820E7E700009C250020BA
:102880001FB501A9684604F001FA04B010BD07B5F0
:1028900013460A466946002004F0F8F90EBD07B554
:1028A00013460A460021684604F0F0F90EBD20B137
:1028B00019B10068086000207047052070470000CB
:1028C00038B50D46040015D0A5B1694604F022FACA
:1028D00090B10A49BDF80020606801EB02129189AD
:1028E000491C9181286060680C3068600120A072EA
:1028F000002038BD052038BD0A2038BDE03B00204F
:1029000018B10323002205F0FBBD05207047022308
:10291000002205F0F5BD12B1022305F0F1BD05203E
:1029200070470000064A5178082906D0054B43F845
:102930002100491C5170002070470C207047000096
:102940009C250020003B002038B504460A480D466F
:102950000078800701D4022038BD54B1694628466A
:1029600005F0E2FE0028F7D1BDF800102180658057
:1029700038BD052038BD00009C25002010B5044658
:102980000D480078800701D4022010BD84B1218851
:1029900002290FD8094800EB011042896088121AF9
:1029A000032A07D405F0B6FE00202080608010BD09
:1029B000052010BD042010BD9C250020E03B002018
:1029C000826883881A4003689A5C0A708168491C8F
:1029D00081607047C26883881A4003689954C1684F
:1029E000491CC160704743F6FE71A0F54040884223
:1029F00001D80120704700207047000002490A7882
:102A000082430A70704700009C25002010B50446E0
:102A10000078182802D1FEF76BFB207010BD10B5AE
:102A200004460078182802D1FEF762FB207010BD22
:102A300002490A7802430A70704700009C25002072
:102A400070B51346002206461546862905D0112981
:102A500001D019B170BD012500E001220D4C73B108
:102A60006179FEF77FFB2A4621793046FEF77AFB33
:102A7000002261783046FEF775FB002203E06178A2
:102A8000FEF770FB2A4621783046BDE87040FEF71D
:102A900069BB00002425002010B50446C0B2FDF734
:102AA000C1FF204610BD000010B5002821D0114BF9
:102AB0000022001F196803E0814203D80A464968D2
:102AC0000029F9D152B11368841A9C4204D10068DC
:102AD00018441060104602E0506000E0186039B100
:102AE00002680B1A934203D10B681A4402604968CA
:102AF000416010BD24260020F8B506461A481F463E
:102B0000154600780C46C00708D03046FFF758FA43
:102B100030B13CB1200507D00620F8BD0120F8BD3A
:102B20000220F8BD0320F8BD3068A04204D87168C7
:102B300004EB0530884201D90520F8BD7DB1684617
:102B400003F0D4FF68B100980221C0E90067017268
:102B5000210B8181058204F08BF80020F8BD042050
:102B6000F8BD0720F8BD0000B4250020084603F09A
:102B7000D9BF00002DE9F0472748284C4FF010211D
:102B8000001B0209496910464B1C03D14FF08051CC
:102B900049690903DFF888A09AF80070FB0702D0A2
:102BA0000020BDE8F0870023A14607E009EB0314ED
:102BB000256815B1646804B1401E5B1C9342F5D3CF
:102BC000002422E0002504F0FF0C2B4613E000BF98
:102BD00009EB0316D6F80080B8F1000F04D0D6F840
:102BE0000480B8F1000F05D1767BAE4202D935469C
:102BF00003F0FF0C5B1C9342EAD309EB0C13641C3B
:102C000059601D7BA1EB053119608442DAD347F08E
:102C100001018AF80010C3E73C2600202C26002082
:102C2000B425002020B10349496E0160002070479F
:102C300003207047103C00202DE9F84307461D484B
:102C4000DDF820801E46007815460C46C0070CD0E3
:102C50003846FFF7B5F950B15DB154B145EA04000B
:102C6000800708D00620BDE8F8830120FBE702209A
:102C7000F9E70320F7E73868A04204D8786804EB46
:102C80008601884201D20520EDE77EB1684603F057
:102C90002DFF68B100980121C0E900780172C0E9F8
:102CA0000354868203F0E4FF0020DCE70420DAE727
:102CB0000720D8E7B425002070B5174A1749044605
:102CC000106E0B7800EB400002EBC0009D0715D59D
:102CD000022C02D0032C1BD102E002F0A3FC17E06F
:102CE0004A78521CD2B24A70032A11D900224A7083
:102CF000082104F071FB03F0E3FE09E0580707D553
:102D000023F004000870526E12B140F00200087007
:102D1000BDE8704003F064BF103C0020B4250020E3
:102D200030B589B0044624216846FCF7CFFA5A2012
:102D30008DF8000041208DF8010000208DF8020080
:102D400020491D208DF80300D1E90401CDE90101DE
:102D5000D4F805000390B4F80900ADF81000A07C89
:102D60006B4640428DF812000020E17C04E02218FE
:102D7000127DFF2A0BD0401CB0EBD10FF7D300BF60
:102D80009DF8032002209DF80110121D0DE0002186
:102D900042185D182244491C527FC9B2EA740E29B8
:102DA000F6D3EDE71C5C6140401C8242FAD819540E
:102DB0001844CA21417023211846FDF727FB09B0AA
:102DC00030BD0000E425002010B50B4CA078002891
:102DD00010D00020A070094801880948FEF72EFA9B
:102DE000112805D0002805D0BDE81040FDF7EABB4A
:102DF0000120A07010BD000080240020E8250020E4
:102E0000B026002070B508B1012070BD184C002517
:102E1000207B08B1257301E000F0A2F82078082893
:102E200024D2DFE800F02304080C1023141EBDE8B0
:102E3000704000F01FB8BDE8704000F07FB8BDE8FA
:102E4000704000F061B8BDE8704000F037B8084944
:102E50006088203901EB00104068BDE8704002F046
:102E600037BD6560BDE8704002F040BD0F2070BD09
:102E7000003C00201049F0B48A1C00200346A1F158
:102E800020050C18A67A3EB1A37205EB0014A689A2
:102E900016B9A47B012C0AD0401C80B20228F0D3C2
:102EA0000B704B804B60F0BC41F61D50704710809A
:102EB000F0BC00F043B80000003C002010B50F4CFF
:102EC000A4F12001608801EB0010818961B1052027
:102ED00020700B480221002381800168BDE810406A
:102EE00001220848FFF708BE416800230122054877
:102EF000FFF702FE0421217010BD0000003C0020FD
:102F0000AC2500202C26002038B50A4908480324A7
:102F10000B684268898803EB8101538804700020A4
:102F2000DB1C00909BB20448FFF786FE38BD000012
:102F3000003C0020AC2500202C260020074910B5BD
:102F40004888091D03F034FF18B1BDE81040FFF7B1
:102F5000DBBFBDE81040FFF7B1BF0000003C002020
:102F6000F0B51D481D490125067802248B88A0F183
:102F70002002082E18D2DFE806F00417171A212CB9
:102F80002C160189491C01810021418080F80C1018
:102F900002EB01131B7843B100234418491C89B28A
:102FA000A3720229F4D30570F0BD0123F5E742684E
:102FB0005288D21C1A448A800470F0BD46880D687D
:102FC00002EB061256680E60556013818C80062154
:102FD00000E007210170F0BD003C0020AC2500207E
:102FE000F0B504460088384DA5B050281ED05228B0
:102FF00002D0542828D103E0A08800F033FF23E05A
:1030000006208DF84400A08800F0ACFBADF8460027
:10301000A188ADF8481000F05DF9A0880022E97899
:10302000FEF7A0F811A8FFF7A5FA0DE0207B012814
:103030000AD1A07A012807D12089A0F524510239AC
:1030400002D1A08800F048FFA878FEF767F8C8B161
:1030500014A8FDF78FFF442214A96846FCF71DF958
:1030600000246E460BE000BF06EB4407A978B88841
:10307000FEF762F810B1B88800F0F4FE641C009806
:10308000A042F1D86878FEF749F8C8B114A8FDF756
:1030900071FF442214A96846FCF7FFF800246E462D
:1030A0000BE000BF06EB44076978B888FEF744F8E8
:1030B00010B1B88800F010FF641C0098A042F1D84D
:1030C00004F0B0F925B0F0BDE02400203EB5044680
:1030D0004088ADF802002078A8B101281FD002284E
:1030E00010D1207900280DD0608800F07BFAA0F57F
:1030F0007F41FF3906D00F490122C978FEF732F827
:1031000004F090F93EBD00208DF800006846FFF7FE
:1031100031FA608800F066FA00F0A4FE3EBD01209E
:103120008DF80000A088ADF804006846FFF722FA89
:103130003EBD0000E024002010B5044600780128C0
:103140000FD1608800F08EFE608800F089F90028B9
:1031500007D0044960880122C978BDE81040FEF715
:1031600001B810BDE024002010B5104C00202070E4
:10317000FDF7BEFF6070FDF7BBFFA070FDF7B8FF65
:10318000E070FDF7B5FF2071617818290BD0A178A8
:10319000182908D0E178182905D0182803D0012073
:1031A0002070002010BD032010BD0000E02400208E
:1031B0002DE9F04192B000F0A5F86846FDF7DAFE7F
:1031C00000246D464FF6FF77DFF834800FE000BF34
:1031D00005EB4406B08800F0C5FAB84205D1B088C6
:1031E000012298F80310FDF7BDFF641CA4B20098FB
:1031F000A042EDD804F016F912B0BDE8F08100004D
:10320000E02400200178072902D1408800F064BE44
:103210007047000010B504460A4841782046FDF783
:103220008BFF68B10848002101EB410200EB8202EC
:103230005288A24201D1C8B210BD491C1429F3D34F
:10324000FF2010BDF82400202033002070B5094D68
:10325000094E002404EB440005EB8000717840889F
:10326000FDF76AFF20B1641C142CF3D3FF2070BD5E
:10327000E0B270BD20330020F82400202DE9F04199
:10328000124E07460125BD403068FDF747FB002878
:103290000DD10F4C2069284207D1384601F04CFB74
:1032A0000028E06805D0284304E0A8432061BDE879
:1032B000F081A843E060206928432061A16830685C
:1032C000BDE8F0410022FDF7E5BA00007488020075
:1032D000742500201CB5054AD2E90212CDE900127E
:1032E0000022694602F0DDFC1CBD0000CC87020014
:1032F00003484FF6FF718180012101700020704763
:10330000EC24002010B54FF6FF7002F009FC0349D1
:103310008880BDE8104004F0B1B80000EC24002023
:103320002DE9FC41804600F01DFA00240325012709
:10333000A0F57F412646FF3908D06A46082102F0F1
:103340008BFC18B90198841D8688056832462B4687
:1033500021464046A9DF042804D0082804D00B28C1
:1033600008D002E0112000E00020002F00D10B2047
:10337000BDE8FC810027A80701D50125E6E7344315
:10338000F5D0002426460325E0E72DE9FC418046E0
:1033900000F0E8F90746A0F57F40FF380ED0012580
:1033A0002A466D1C0026ADB26B460821384602F055
:1033B0007DFC040006D0072C24D024E043F2020058
:1033C000BDE8FC81019903230A1D0B604046891D5D
:1033D000AADF040004D00C2C08D0052C08D008E08B
:1033E0000821384602F0FAFC04460CE0012600E011
:1033F00000240821384602F0DDFC00B10324002E31
:10340000CED100E00C242046DAE700001FB50446C8
:103410000078012815D12079012812D1608802AAEC
:10342000012102F019FC60B902208DF800006088CB
:10343000ADF80200094901208DF8040009686846CA
:103440008847064808388088A0F57F41FF3903D0B7
:10345000BDE81F4004F012B81FBD0000F424002096
:103460001CB500F07FF96A46012102F0F5FB08B1B6
:1034700000201CBD019800781CBD00002DE9F04122
:10348000084C07464FF6FF7643F203053246618843
:103490003846A7DFA84203D16088401C6080F5E76A
:1034A000BDE8F081EC2400208188A1F57F42FF3A3D
:1034B00003D0008808B101207047002070473EB556
:1034C000027802230C46B3EB520F17D1B0F801106B
:1034D000ADF80010C1788DF802108188ADF80410A5
:1034E00080798DF8060002AA01A92046FCF722FF88
:1034F000032202A96846FBF70DFF08B100203EBD7C
:1035000001203EBD10B50C46FFF784FEFF280CD00D
:10351000074900EB400001EB800041682160018910
:10352000A180807AA071002010BD052010BD000090
:103530002033002070B5018890B010294FD1011DB3
:1035400034226846FBF7A9FE9DF804004FF6FF768B
:10355000032134466D46B1EB500F2AD002F03CFDFA
:103560009DF8040040080ED001280CD0022820D17C
:1035700018E00F99281D1131FCF76FFD18B100BF3D
:10358000BDF8344015E00EAA0DA9072002F0FCFC9E
:103590000028EED10DE00F99281D491CFFF78FFF81
:1035A0000028EDD10EAA0DA9072002F0EDFC00289D
:1035B000F1D1BDF80000291D00F0CAFEB4420ED0C2
:1035C000BDF80000214600F07EF8BDF80000ADF81F
:1035D000360001208DF834000DA8FEF7D1FF10B0A1
:1035E00070BD0000094A002101EB410332F823308D
:1035F000834205D101EB410002EB80004088704717
:10360000491C1429F0D34FF6FF7070472033002077
:1036100010B50D4C18200D4A607000204FF6FF7158
:1036200000EB400302EB8303401C59801428F7D3BE
:10363000FDF75EFD6070182803D001202070002087
:1036400010BD032010BD0000F8240020203300200E
:1036500070B504460D46401C00F0B0F900280ED0AD
:103660001022691C601CFBF755FE48B15FF0000694
:1036700005F1110104F11100FCF7EFFC304370BDBE
:103680000126F5E7018811B9421892780AB10120A4
:103690007047491C0829F7D30020704710B50C4625
:1036A0000346FFF7EFFF00280AD0188821888842D8
:1036B00005D10822A11C981CFBF72CFE08B10020A4
:1036C00010BD012010BD02F029BE10B504460078DF
:1036D00088B0002828D12079072825D1608801AA40
:1036E000072102F0B9FA00281ED102F075FC1DE096
:1036F0006088BDF80010884218D004990298FFF73E
:10370000A7FF98B16088FFF76DFFADF816000020A5
:103710008DF814006088ADF81800BDF80000ADF811
:103720001A0005A8FEF72CFF08B010BD03AA6946D1
:10373000072002F029FC0028DAD1F5E770B504462D
:10374000FFF750FF0546204602F089FA4FF6FF7159
:1037500004468D4203D014B9284602F0DFFD20460E
:1037600070BD000010B5FFF755FDFF2805D00449D6
:1037700000EB400031F8200010BD4FF6FF7010BD87
:10378000203300203EB5044602F026FC0EE00199ED
:1037900020464631FFF782FF28B9019920462A3199
:1037A000FFF77CFF10B1BDF808003EBD6A4602A9D4
:1037B000072002F0E9FB0028E9D14FF6FF703EBD7B
:1037C0002DE9F0410F4628B10120FFF717F901203C
:1037D000BDE8F081397961B10026264D01290DD06F
:1037E000254C4FF002080229206822D003293CD141
:1037F00028E002F07BF80121397134E05FF000002D
:1038000005EB0011097802290CD0401C80B2022877
:10381000F6D30220FFF70CF90120FFF7EFF841F68D
:103820001D50D5E705EB0014606802F051F82670D2
:1038300019E00146002301221048FFF75DF9A4F8C2
:1038400004800FE002F044F80A49226820314988D8
:1038500005EB01114B6823604A60A2880A81A4F835
:1038600004800E703E710028B2D00120FFF7C6F828
:103870000E20ADE7E03B0020AC2500202C260020E8
:10388000F8B51C4C2078002832D02069002658B1A9
:103890000025607800282BD1684648DF052805D030
:1038A00030B1FCF78FFE0AE00125F2E7012606E0C1
:1038B000009800F06FFFA16809B1009888479DB992
:1038C0006078002814D16088ADF800006946E0688F
:1038D00061DF052803D020B1FCF774FE04E0012568
:1038E00002E0D4E903018847002ED2D0002DE6D0B3
:1038F000F8BD0000CC25002070B50E4604460079C6
:1039000018494FF4A27501EB4010017F2068A1B166
:103910004FF4887101F0C8FB4FF49071206801F0FA
:10392000C3FB4FF49271206801F0BEFB294620686A
:1039300001F0BAFB0C49206809E04FF48E7101F0E8
:10394000A2FB2946206801F09EFB08492068C0F8C8
:103950000413206800F03FFF3146BDE8704000F0DE
:103960001EBF00009C3900201003020080000200EE
:1039700010B509892AB1D088491C814218D100208C
:1039800010BD90F84E25C2EB0214C4EBC21200EB3E
:10399000420212899142F2D0491C198090F84E15CA
:1039A000C1EB0112C2EBC11100EB4100008902E042
:1039B0001980D088401E5880012010BD0021425C33
:1039C0000AB101207047491C1029F8D30020704724
:1039D000800701D00020704701207047026813461D
:1039E00002E08A4204D01268002AFAD10B6001601A
:1039F000704700000A4810B5807860B1002401E0EB
:103A0000022C06D02046FDF789FF641C042CF7D356
:103A100010BD0324F6E7BDE81040FDF7B5BF000078
:103A2000A424002003480179C90702D00078FEF7DA
:103A300015B97047A424002010B500F03BFE08B172
:103A4000FCF7C0FDBDE81040002000F057BE172174
:103A5000018041800021017141711B218171C1717F
:103A6000704700002DE9F047234D81461F46287A14
:103A70000E469046084302D026B1002104E00520FE
:103A8000BDE8F0871C491031484603F043FF044667
:103A9000014600224846FEF7D3FF1FB121464846A3
:103AA000FEF74EFD112C0FD005DC5CB1082C09D0BF
:103AB0000D2C06D106E0862C12D0A4F54050023819
:103AC00000D003242046DBE73246E9784846FDF77C
:103AD00049FB4246A9784846FDF744FB0024F1E73C
:103AE0003246E9784846FDF73DFB4246A97848460C
:103AF000FDF738FBE6E70000242500202DE9FC4116
:103B000017460C00064604D02078C00705D00120D7
:103B100004E000217EDFBDE8FC8102208DF8040076
:103B20003046FFF71FFE0546A0F57F40FF3808D05E
:103B300001A800902B463A462146304600F021F875
:103B400006E020782146C007304603D000F07DF81B
:103B500004460BE07EDF04004FF00000009007D029
:103B6000002201232946304603F0FCFB14B106E095
:103B70000122F6E79DF80410304603F01DFC2046B4
:103B8000C9E72DE9F04F85B0904689468346002568
:103B90009A462E4601AA072118460E9F02F05CF8AD
:103BA000040008D1029D95F84400183510F0010674
:103BB00001D0029D343558EA04004FF000080FD1BF
:103BC00075B126B905F11200FFF75CFD40B12A4638
:103BD00005F11201584685DF044687F8008021E090
:103BE0000CB1052C1ED199F80000C0070DD003AB15
:103BF00001220721504602F059F804000AD107219A
:103C0000504602F04DF9040004D1494658467EDF83
:103C1000040007D00721504602F0CCF810B1052867
:103C200000D00324CDF80080387808B1012300E0EB
:103C3000002344B100225146584603F093FB05B0DF
:103C40002046BDE8F08F0122F5E7FEB50F46064697
:103C500002F000F80546A0F57F40FF381ED001AB0A
:103C600001220721284602F021F804000AD1072189
:103C7000284602F015F9040004D1394630467EDFAB
:103C8000040007D00721284602F094F810B1052857
:103C900000D00324012000905CB102E00324002046
:103CA0000090002201232946304603F05BFB2046AA
:103CB000FEBD0122F6E700002DE9F041134D0F464D
:103CC000164680462978FDF737FA00281BD0404673
:103CD000FFF748FD0446A0F57F40FF3813D0697810
:103CE0004046FDF729FA38B133463A462146404668
:103CF000BDE8F04101F088BE324639464046BDE895
:103D0000F041FEF7BFBBBDE8F08100002025002098
:103D10002DE9F04391B08146FDF700FA002820D04C
:103D20006846FDF727F900246E4617E006EB4405C8
:103D30004946A888FDF700FA78B10B4FA888B978F2
:103D4000FDF7FAF98046A888F978FDF7F5F90146FC
:103D5000A88801234246FFF785FE641C0098A04214
:103D6000E4D811B0BDE8F083242500202DE9F04708
:103D7000394E002780463D46DFF8E090D6F804A093
:103D800057E003D00446D0F81C8035E099F80020B5
:103D900002EB4201521CD2B289F8002009EBC101AA
:103DA00099F80230091D9A4201D189F800504868FB
:103DB0000A780446012A12D0022A02D0032A3BD1F3
:103DC00008E003F07BFF00B10127257434E005749F
:103DD000C06900E070680028F9D170602CE0207C98
:103DE00050BB88686060C868A0600869E060486986
:103DF000A061F07800B165606268B168184B501A34
:103E000020F07F40984202D2A168084406E0881A58
:103E1000A16820F07F40814202D9081A206000E0AA
:103E2000256065600120A56020742046E56103F0EF
:103E300027FFB8F10000A4D199F8001099F801000B
:103E40008142A3D117B97168514502D00120BDE864
:103E5000F0870020FBE7000088250020DC390020E7
:103E6000FFFF7F00FEB504460026A0F57F40FF3827
:103E70002FD02046FFF754FA050013D00B2D15D094
:103E8000112D11D0A5F5405002381CD009208DF815
:103E900000002046FFF766FCADF80200ADF80440D4
:103EA00002950DE0022002E001260CE003208DF8CF
:103EB00000002046FFF756FCADF80200ADF80440C4
:103EC0006846FEF757FB0348324681782046FDF7E7
:103ED00049F9FEBDE0240020FEB504460026FFF7A8
:103EE00054FA0546112818D003DCA5B10C2D06D1D3
:103EF00015E0862D27D0A5F5405002381CD00920AA
:103F00008DF800002046FFF72DFCADF80200ADF85B
:103F1000044002950DE0012002E001260CE007209C
:103F20008DF80000ADF804402046FFF71BFCADF80B
:103F300002006846FEF71EFB0448324641782046E0
:103F4000FDF710F9FEBD0820EAE70000E02400209C
:103F5000F8B5054600780C46002620420FD1002017
:103F60008DF800006846FCF77BFD2878204202D1DE
:103F70002043287001269DF80000FCF795FD30468F
:103F8000F8BD000088B0FCF75BFC08B1FCF71AFB39
:103F900004F06AF876490320FDF716FE08B1FCF735
:103FA00011FB69460020FDF713FD08B1FCF70AFB81
:103FB0009DF8000002287DD05FF00007FFF73CFD70
:103FC00002F0CAFFFDF7D0FB6A496B4800F00CFA1B
:103FD00008B1FCF7F7FA6948FDF7FCF808B1FCF7FF
:103FE000F1FA02F0A9F96648009069466548FDF7C4
:103FF00040FA08B1FCF7E6FA9DF8080062A120F04B
:104000000F00401C20F0F00010308DF80800022254
:1040100002A87CDF08B1FCF7D5FA002400945020F8
:10402000ADF80000A0200194ADF80200ADF8044006
:104030004FF4C870ADF8060068467ADF08B1FCF7A7
:10404000C1FA1C216846FBF741F94FF42030CDE955
:1040500000404FF47020029003208DF80C004B4874
:1040600005904B480690ADF80E408DF8104068461C
:10407000FCF754FF08B1FCF7A5FAFCF721F9454815
:10408000CDE9000404208DF804008DF80500694690
:104090004148FDF733F908B1FCF794FA1A211920C9
:1040A00001F09EFBFCF7D2F9042077DFFCF780FBE0
:1040B00018B100E00BE0FCF785FA384801780029D8
:1040C000FCD0FCF7ABFA20B1FCF77CFA23E0012727
:1040D00074E73348334D00680168296040686860C0
:1040E00031A0FBF757FD002633A0A95DFBF752FD79
:1040F000761CF6B2082EF7D331A0FBF74BFD002655
:1041000032A0A95DFBF746FD761CF6B2082EF7D368
:104110002FA0FBF73FFD2FB102F0CEFB20B1FCF743
:1041200051FA01E002F0B2FFA0462A4C2A4D2B4E74
:104130002B4F207828B11B48FCF7A4FA08B984F863
:10414000008095F80302012805D195F804020128A2
:1041500001D1FDF7E5F9307820B93878012801D18F
:10416000FEF7D2F83EDF0028E3D0FCF72BFAE0E7B9
:104170002D1B0200C92D0200042C002091210200F9
:10418000E96E0200A04100205231000009540200F3
:104190008D210200F91202008C2600200226002048
:1041A00004260020F42500204C6F616420646576AD
:1041B0006963652049443A002532782000000000F8
:1041C0002020202020204445433A00002564200080
:1041D0000D0A0000E4250020983F0020E62500207D
:1041E000E5250020F0B50B30154D20F00701002427
:1041F000144A0FE003688B420BD38B4205D95E1A39
:1042000043184768C3E9006700E04368136002C0D1
:1042100004E0021D10680028ECD12046002802D1DD
:10422000286808B10020F0BD064A07481060074A18
:10423000121A22F00702C0E9002401202860D7E703
:104240002826002024260020DC910020D891002080
:1042500070B5144682880E4605462088111D01441B
:10426000921C994201D8FE2A01D90C2070BD521C23
:1042700032542088FF21401C80B220803154208895
:10428000401C80B220808119288804F018F8218809
:10429000084480B22080AA8842B1A96841B1304464
:1042A000FAF7FBFF2088A98808442080002070BD11
:1042B000072070BDF8B50E46017814460546012961
:1042C00001D1687830B12088821C9A422DD801290A
:1042D00002D006E00720F8BD69780144891C9942A4
:1042E00023D8181A801E87B2ADF800702188B01C40
:1042F000084469467DDF0028EDD12878022805D1E1
:10430000BDF80010B94201D809210AE008210128AE
:1043100005D16878B84202D8ADF8000001E0ADF8E8
:104320000070BDF80000FE2801D90C20F8BD2288DD
:10433000401CB0542088401C80B22080315420881A
:10434000401C2080BDF80010084420800020F8BDEB
:1043500070B505460C004FF0FF0020D04FF6FF76F9
:10436000B5421CD00E48012241782846FCF7FAFEDF
:104370002846FEF74FFFFF2803D1FEF767FFFF280F
:104380000DD0084B00EB400203EB82014D8023F877
:10439000226022684A60A2880A81A2798A7270BD6E
:1043A000F82400202033002070B54FF6FF750E462C
:1043B000A84201D1002000E0401C84B208E0214660
:1043C000304602F086F908B1204670BD641CA4B2E4
:1043D000FF2CF4D9284670BDC20800F00703012065
:1043E000895C98400840704770B5040010D01720D1
:1043F000A161208060801B202071002504EBC50096
:10440000801DFFF724FB6D1C022DF7D3002070BD2B
:104410000E2070BD2DE9F0438D888FB00446022D2B
:104420007DD20888DFF850910027222861D006DC71
:10443000102809D011280BD0212808D178E03A287B
:104440000CD0552803D12BE0204600F0EBFF82E092
:1044500004EBC500801DFFF7FAFA7CE02A4604EB66
:10446000C206488936F8061F814200D80846708087
:10447000172800D217207080A06970B1707960B1E0
:10448000D9E90010CDE90010ADF802207088ADF830
:104490000400A269204669469047777137715AE057
:1044A0002E46C88804EBC60808F10608172800D273
:1044B0001720B8F80010814200D80846A8F802007A
:1044C00088F80470B8F800103046ADDF98F80500A1
:1044D00030BBA06920B3D9E90210CDE90010ADF8D6
:1044E0000260B8F80200ADF8040020466946A269EF
:1044F0001CE034226846091DFAF7CFFEBDF8000023
:10450000BDF8042004EBC0014A73A26942B1D9E9A5
:104510000432CDE90D32ADF83600487B01E027E0EA
:1045200019E08DF83800A26920460DA9904712E0E5
:104530000097019731F8040F04EBC0000A79007B63
:10454000904200D31046ADF80000ADF80200088894
:10455000002269468FDF04EBC504A07A002807D04B
:10456000E18828469EDF002802D1A7720120E07270
:104570000FB0BDE8F0830000E887020000F1804042
:104580000068002800D00120704708B500F1804085
:10459000002101600068009008BD000000283ED0A6
:1045A0001F49204A096800BF00BF00BF00BF00BF0D
:1045B00000BF00BF00BF91422FD000BF00BF00BFAF
:1045C00000BF00BF00BF00BF00BF00BF00BF00BFF3
:1045D00000BF00BF00BF00BF00BF00BF00BF00BFE3
:1045E00000BF00BF00BF00BF00BF00BF00BF00BFD3
:1045F00000BF00BF00BF00BF00BF00BF00BF00BFC3
:1046000000BF00BF00BF00BF00BF00BF00BF00BFB2
:1046100000BF00BF00BF00BF00BF401EC3D1704736
:10462000202600200024F40000283ED01F49204A04
:10463000096800BF00BF00BF00BF00BF00BF00BFD0
:1046400000BF91422FD000BF00BF00BF00BF00BF1E
:1046500000BF00BF00BF00BF00BF00BF00BF00BF62
:1046600000BF00BF00BF00BF00BF00BF00BF00BF52
:1046700000BF00BF00BF00BF00BF00BF00BF00BF42
:1046800000BF00BF00BF00BF00BF00BF00BF00BF32
:1046900000BF00BF00BF00BF00BF00BF00BF00BF22
:1046A00000BF00BF00BF401EC3D1704720260020BE
:1046B0000024F40070B50F4C0025207808B1852542
:1046C00016E00021A16061602161E1604FF0E0200F
:1046D000D0F80001012610F0010F03D107210020BE
:1046E00000F05DF803F066FA08B90348066026702A
:1046F000284670BD3039002018050040F8B5174D28
:104700000446A878002648B114B1616801208847A2
:104710008DF800606846FCF7A3F917E08DF800609B
:104720006846FCF79DF924B10C4821461030FFF78C
:1047300055F9E86850B94FF48270FFF726FF022060
:104740004107C1F80403064901200860E868401CDD
:10475000E8609DF80000FCF7A7F9F8BD30390020AB
:104760000800004038B500208DF800006846FCF7CE
:1047700077F9074C207808B9FFF79CFFE068401CE8
:10478000E0600120A0709DF80000FCF78DF938BDB5
:1047900030390020002801D1FDF74ABC7047490795
:1047A000090E002806DA00F00F0202F1E02282F87A
:1047B000141D03E000F1E02282F8001400F01F0253
:1047C000012191404009800000F1E020C0F88012F2
:1047D000C0F800117047000B40B270472DE9F0415E
:1047E0008846054601F0DEFD234E002828461AD0F3
:1047F000FDF7BCFB304490F848008009032802D044
:1048000001280ED007E04FF0A040D0F81005E84096
:1048100010F0010F05D003212846BDE8F04100F05B
:10482000E5BB0221F8E701F0C9FD002822D02846A7
:10483000FDF79CFB04464FF4807000EB84000F4FA3
:1048400081B207EB8400D0F8102542F00102C0F8D5
:104850001025084600F0FAFBB8F1000F0AD02846F0
:10486000FDF784FB56F82000002803D00120A0406B
:10487000C7F80403BDE8F08144390020006000401F
:104880002DE9FC41DFF8A480044608EB0400002772
:1048900090F930001346C0170E46401C01D008277F
:1048A00041E0F27819462046FDF73CFB0546401CE6
:1048B00038D0B07850B14FF0A04000EB8400D0F871
:1048C000001721F00201C0F8001707E000217378FB
:1048D000204600910A46019100F038FBF078C0B103
:1048E0001348317800EB8500D0F81025114B1A40A1
:1048F000C0F810254FF4F8524FF4403302EA042276
:1049000003EA01410A43D0F810150A43C0F8102504
:1049100009E008EB0500327810F8481F41EA8211DF
:10492000017000E004273846BDE8FC8144390020CE
:1049300000600040FFE0FCFF4FF0A041D1F81015EF
:10494000C14011F0010000D00120704770B5144D36
:1049500095F8540008B1082070BD0020411E2A18A7
:10496000401CC0B282F830102028F8D30024204622
:10497000FDF7CAFA641CE4B20C2CF8D30721062018
:10498000FFF70DFF4FF4BE7000F060FB05494FF0DC
:104990000040C1F80403012085F85400002070BDD8
:1049A0004439002000600040034890F8540000287B
:1049B00000D0012070470000443900200121B1EBF4
:1049C000507F01D101207047002070472DE9F04150
:1049D00005464FF4A07000EB810086B228684FF4C2
:1049E00080348C40C0F848432868C0F8084322F05F
:1049F0007F406A79154F02EB42023A445278002A0E
:104A00002A6802EB8101C1F8400512D02968D1F86B
:104A10000425111A824202D26FF07F400144687966
:104A200000EB400038448078884202DD0D20BDE86C
:104A3000F08133B13146286800F01AFB2868C0F8CD
:104A400004432868C0F844430020F0E764250020B0
:104A5000016801220A604079024A00EB400002210D
:104A6000115470476425002070B50D46044662B1AC
:104A700060791549A1F1080641F82020607900EB22
:104A80004000305C18B1082070BD072070BDA978C7
:104A900094F90400FFF783FE20682988C0F8081500
:104AA0006179287901EB4101314448706179E878F6
:104AB00001EB4101314488706179012001EB410132
:104AC0007054002070BD00006C2500202DE9F047D7
