:020000040007F3
:1030000010500020553207005D3207005F32070084
:1030100061320700633207006532070000000000DC
:103020000000000000000000000000006732070000
:1030300069320700000000006B3207006D320700A4
:103040006F3207006F3207006F3207006F320700E0
:103050006F3207006F3207006F3207006F320700D0
:103060006F3207006F3207006F3207006F320700C0
:103070006F3207000D4707006F3207006F320700FD
:103080006F320700714707006F3207006F32070089
:10309000054807006F320700094807006F32070034
:1030A0006F3207006F3207006F3207006F32070080
:1030B0006F3207006F3207000000000000000000C0
:1030C0006F3207006F3207006F3207006F32070060
:1030D0006F3207006F3207006F32070000000000F8
:1030E00000000000000000000000000000000000E0
:1030F00000000000000000000000000000000000D0
:1031000000000000000000000000000000000000BF
:1031100000000000000000000000000000000000AF
:10312000000000000000000000000000000000009F
:10313000000000000000000000000000000000008F
:10314000000000000000000000000000000000007F
:10315000000000000000000000000000000000006F
:10316000000000000000000000000000000000005F
:10317000000000000000000000000000000000004F
:10318000000000000000000000000000000000003F
:10319000000000000000000000000000000000002F
:1031A000000000000000000000000000000000001F
:1031B000000000000000000000000000000000000F
:1031C00000000000000000000000000000000000FF
:1031D00000000000000000000000000000000000EF
:1031E00000000000000000000000000000000000DF
:1031F00000000000000000000000000000000000CF
:10320000DFF80CD000F0BEF800480047C96807009E
:1032100010500020056885F308884068FF2464B2D8
:10322000EFF30585002D07D1EFF3148102229143BE
:1032300081F31488A64600472546064621273FBA53
:10324000F0B40024002500260027F0B4F92040B295
:10325000004700000648804706480047FEE7FEE7B3
:10326000FEE7FEE7FEE7FEE7FEE7FEE7FEE7FEE736
:103270002D48070001320700202A04DB203A00FA1B
:1032800002F1002070479140C2F1200320FA03F3BD
:10329000194390407047000000487047B4B30700DE
:1032A00040EA01039B0703D009E008C9121F08C0C8
:1032B000042AFAD203E011F8013B00F8013B521E48
:1032C000F9D27047D2B201E000F8012B491EFBD2BF
:1032D00070470022F6E710B513460A460446194621
:1032E000FFF7F0FF204610BD421C10F8011B00291B
:1032F000FBD1801A704730B504460020034600E039
:103300005B1C934203D2E05CCD5C401BF8D030BD27
:10331000034611F8012B00F8012B002AF9D11846B9
:1033200070472DE9F05F0546002092469B4688468F
:103330000646814640241BE0284641464746224631
:1033400000F032F853465A46C01A914110D3114644
:1033500018462246FFF790FF2D1A67EB01084F46EB
:10336000224601200021FFF787FF17EB00094E419D
:10337000201EA4F10104DFDC484631462A464346BC
:10338000BDE8F09F064C074D06E0E06840F0010301
:1033900094E8070098471034AC42F6D3FFF734FFA7
:1033A00084B90700A4B90700202A04DB203A21FAD7
:1033B00002F00021704721FA02F3D040C2F120024E
:1033C00091400843194670472DE9F0438BB0804681
:1033D000129D15F9046B009614461F4689462B462C
:1033E00002A81146424600F0BCFC02A80146129A0F
:1033F00000F0A7FC4046414602AA129B00F091FC57
:103400002046214602AA129B00F08BFC2B46384630
:1034100039464A46009600F0A4FC02A83946129AA2
:1034200000F08FFC02A8014642462B46009600F0B1
:1034300098FC02A8014622462B46009600F091FC1B
:103440002046214642462B46009600F08AFC48461C
:1034500049462246129B00F064FC2046414602AADF
:103460002B46009600F07DFC384639462246129BDA
:1034700000F057FC384639464A462B46009600F085
:1034800070FC204602A9324600F035FE0BB0BDE8C4
:10349000F083F0B589B01C4607460E4615466846CF
:1034A00011461A4600F04DFC384639466A46234616
:1034B00000F037FC684669462A46234600F031FC96
:1034C000304631466A46234600F02BFC09B0F0BD79
:1034D0001AB1013A8B5C8354FAE770472DE9F04743
:1034E0008846B3F902101F460825CB1D202493FB04
:1034F000F5F51F31954291FBF4F44FFA84F928BF9A
:1035000015460646494600F077FA2A4630464146B7
:10351000FFF7DEFFB7F90230ED009D4220D9ED1A2A
:1035200006EB840100228E420AD251F8040D20FAE3
:1035300005F313430B60C5F1200300FA03F2F2E731
:103540002437384631464A4600F062FA012807D04F
:10355000304631463A464B46BDE8F04700F020BFC2
:10356000BDE8F0872DE9F04793F9006092B004467A
:103570008946104631461546984600F073FA0028F1
:1035800040F0978002A84946424600F0DAFB4346E5
:103590000AA8214602AA00F0C4FB02A8014642463E
:1035A00000F0CFFB4346484649462A4600F0B9FBA7
:1035B00008F1040728462946424600F0C2FB20468F
:1035C00021462A463B46009600F0FAFA284629464C
:1035D0002A463B46009600F0F3FA284621462A4642
:1035E0003B46009600F0BDFB204621462A46434656
:1035F00000F097FB2846214622463B46009600F005
:10360000DFFA20463B46009621462A4600F0D8FACB
:103610002368DB07204613D5334621463A4600F09F
:10362000BFF931468246204600F058FD06F180433E
:10363000013B54F8230040EACA7044F8230002E03A
:10364000314600F04BFD28462146424600F079FB0A
:10365000284629460AAA3B46009600F082FB2846E7
:1036600029460AAA3B46009600F07BFB0AA80146C1
:103670002A463B46009600F074FB204621460AAAE3
:10368000434600F04EFB02A802463B462146009608
:1036900000F067FB20462946324600F02CFD284604
:1036A0004946324600F027FD484602A9324600F05E
:1036B00022FD12B0BDE8F08700487047D4B807007B
:1036C0002DE9F04FEFB01E46789C059023780493C7
:1036D000B4F9023092461F33202293FBF2F3DBB29F
:1036E00006939DF9187094F9012007F1FF3926AB74
:1036F000002543F829506EAB03EB89034EA88B4697
:10370000314643F8805C43F8605CFFF7E1FE94F9D2
:10371000012056A8B118FFF7DBFE9DF910604EA8F6
:10372000314600F09FF98046002840F02F8156A8CE
:10373000314600F097F90546002840F0258104F154
:10374000240840464EA93A4600F062F9012840F0AC
:103750001D81404656A93A4600F05AF901280890C2
:1037600040F014813B461EA856A9424600F041FA9B
:103770000DF1380C60465946524623464CF8295004
:10378000CDF80CC0FFF7AAFEDDF80CC0009760462C
:1037900061461EAA4346CDF824C00DF5BC7900F061
:1037A000AEFA4346009716A84EA91EAA00F0A7FA43
:1037B00048463246059900F09EFCB300039309EB9E
:1037C000030B039A059B58469918324600F093FC68
:1037D00004F144031946324636A8079300F08BFCE7
:1037E00004EB860132463EA8443104F1040A00F09D
:1037F00082FC494600961EA836AA534600F0B1FA4C
:103800004A465B4636A83EA90094FFF7DDFD1EA898
:1038100001463346524600F0ECF91EAA4846594686
:103820002346FFF736FEDDF824C0079B0B93604666
:10383000059B0C933946CDF814C00A95CDF8349009
:1038400000F02AFC3946054616A800F025FCA842DF
:10385000B8BF284685B2DDF814C06F1E3FB260467F
:10386000394600F0CDFD394610F1000916A818BF01
:103870004FF0010900F0C4FD002814BF022300230B
:1038800043EA09090DF1280B32465BF8297026A896
:10389000394600F030FC039B3246F9182EA800F0A0
:1038A0002AFC31461EA800F0A7F8023D089B1E9393
:1038B000AEB237B2002F44DB23461EAAD4F8A45080
:1038C00026A82EA9A84739460EA800F099FD39462A
:1038D000051C16A818BF012500F092FD002814BF92
:1038E000022300231D430AAB53F8257037B39DF91B
:1038F000105036A839462A4600F0FDFB039B3EA82F
:10390000F9182A4600F0F7FB36A83EA91EAA23465E
:10391000FFF7BFFD46A826A936AA5346009500F03A
:1039200020FA36A83EA926AA2EAB0094FFF74CFD3C
:103930001EA8014646AA234600F0F3F9013EB6B29E
:10394000B7E79DF910501EA8014652462B4600F0DD
:1039500050F9234626A82EA91EAAFFF79AFD9DF925
:103960001840404626A9224600F052F8012805D00A
:1039700026A801464246234600F012FD26A84EA97D
:103980002A4600F05AF802E0404600E028466FB0B0
:10399000BDE8F08F00000000000000000000000003
:1039A000C3F10803DB0070B501330446002003A512
:1039B0005B1920C940CAAD1920C4184720C940CAA4
:1039C000754120C420C940CA754120C420C940CADD
:1039D000754120C420C940CA754120C420C940CACD
:1039E000754120C420C940CA754120C420C940CABD
:1039F000754120C4404170BD10B5002253B28B42C6
:103A000005DA1BB2002440F823400132F6E710BD6E
:103A100010B5013AD2B253B2002B09DB1BB250F8F9
:103A2000234051F823309C4204D8F2D2FF2002E018
:103A3000002000E0012040B210BD013A30B5D2B202
:103A4000002453B2002B09DB1BB2013A51F823507A
:103A500050F823306B401C43D2B2F2E7B4FA84F042
:103A6000400930BD10B500231A465CB28C4204DA1E
:103A700050F8244001332243F7E7B2FA82F04009BC
:103A800010BD00002DE9F043A3B09846019112ABA0
:103A90004146074610469146009300F0FDFAC0EB00
:103AA000881086B2454C33B21C40002CBEBF04F1D6
:103AB000FF3464F01F040134202593FBF5F5EDB2CB
:103AC0006DB2A4B202A8294624B2FFF795FF28B22E
:103AD00002AB002C03EB800010DD002213464345AF
:103AE00010D259F8235005FA04F10A4340F8232074
:103AF000C4F1200225FA02F20133F0E749464246BA
:103B000000F0F9FA0FFA88F502AB4FEA45090124F3
:103B100003EB8505330444D40022114653B24B45D0
:103B200022DA0DF1880E0EEB840E0DF1880C18B21E
:103B30005EF888EC0CEB83035EF820E053F8803CE1
:103B4000C3EB0E035B1A734502D08CBF0121002129
:103B5000C4F1010E0DF1880C0CEB8E0E01325EF8F3
:103B600088EC4EF82030D9E7621A544202A8414648
:103B7000544100F0B3FA22AA08F1FF3302EB8303A9
:103B800002EB8802284652F8801C53F8802C013E34
:103B900042EAC172414643F8802CB6B200F09EFA68
:103BA000B8E722AB03EB8404384654F8881C42463D
:103BB00000F0A1FA23B0BDE8F08300BF1F00008031
:103BC00070B59DF910401D4623460646FFF7E8FEF6
:103BD00030B9284631462246FFF71AFF012807D0A0
:103BE000304631462A462346BDE8704000F0D8BB37
:103BF00070BDF0B50646A1B00F46084619461546F9
:103C00001C46FFF72FFF20B130462146FFF7F4FE98
:103C100073E068463946224600F06DFA08A8294646
:103C2000224600F068FA10A82146FFF7E5FE0123BE
:103C300018A821461093FFF7DFFE684608A9224620
:103C4000FFF7E6FE002853D0009BDA0704D468464D
:103C5000214600F043FA26E0089BDB0704D408A8BD
:103C6000214600F03BFA3DE000281EDD08AA23466D
:103C70006946684600F094FB6846214600F02EFA3B
:103C800010A818A92246FFF7C3FE002805DA10A8DD
:103C900001462A462346FFF783FE10A8014618AACC
:103CA000234600F07DFB10A81DE008A86A462346C5
:103CB000014600F075FB08A8214600F00FFA18A88D
:103CC00010A92246FFF7A4FE002805DA18A801462D
:103CD0002A462346FFF764FE18A8014610AA234689
:103CE00000F05EFB18A82946224600F06BFCA4E712
:103CF000304610A9224600F0FEF921B0F0BD70B5A3
:103D000090B006469DF950401D466846234600F097
:103D10003AF8304669462A462346FFF7B3FE10B00C
:103D200070BD30B51C4691B0054693F90030684629
:103D300000F029F8D4F8AC3028466946984711B00D
:103D400030BD30B5144691B0054692F90020684662
:103D500000F0DEF9D4F8AC3028466946984711B037
:103D600030BD70B59DF910401D462346064600F053
:103D700017FB38B1304631462A462346BDE870402D
:103D8000FFF70EBE70BD2DE9F04F08B4F8CA04B4B9
:103D900051F8042BA3FB028940F8048B4FF0000A72
:103DA000E4FB629A4FF0000BE5FB62AB4FF0000CB6
:103DB000E6FB62BC4FF0000EE7FB62CE51F8042B2D
:103DC0004FF00008E3FB628940F8048BE4FB629A41
:103DD000E5FB62ABE6FB62BCE7FB62CE51F8042B6D
:103DE0004FF00008E3FB628940F8048BE4FB629A21
:103DF000E5FB62ABE6FB62BCE7FB62CE51F8042B4D
:103E00004FF00008E3FB628940F8048BE4FB629A00
:103E1000E5FB62ABE6FB62BCE7FB62CE51F8042B2C
:103E20004FF00008E3FB628940F8048BE4FB629AE0
:103E3000E5FB62ABE6FB62BCE7FB62CE40F8049BAD
:103E400040F804AB40F804BB40F804CB40F804EB66
:103E50000CBC052B00F01E810C68A0F11400A1F130
:103E60001401A2F1140252F804EB4FF0000550F8CF
:103E7000046BE4FB6E5652F804EB50F8047BE4FB51
:103E80006E6752F804EB50F8048BE4FB6E7852F83E
:103E900004EB50F8049BE4FB6E8952F804EB50F8F5
:103EA00004ABE4FB6E9AA0F1140052F8044B51F8F5
:103EB00004EB4FF0000CE4FB6EC540F804CB51F866
:103EC00004EBE4FB6E5640F8045B51F804EBE4FBB2
:103ED0006E6740F8046B51F804EBE4FB6E7840F831
:103EE000047B51F804EBE4FB6E8940F8048B51F835
:103EF00004EBE4FB6E9AA0E80006062B00F0CA80F3
:103F00000C68A0F11800A1F11801A2F1180252F8F2
:103F100004EB4FF0000550F8046BE4FB6E5652F8CA
:103F200004EB50F8047BE4FB6E6752F804EB50F8A6
:103F3000048BE4FB6E7852F804EB50F8049BE4FB2E
:103F40006E8952F804EB50F804ABE4FB6E9A52F819
:103F500004EB50F804BBE4FB6EABA0F1180052F880
:103F6000044B51F804EB4FF0000CE4FB6EC540F835
:103F700004CB51F804EBE4FB6E5640F8045B51F8B7
:103F800004EBE4FB6E6740F8046B51F804EBE4FBD0
:103F90006E7840F8047B51F804EBE4FB6E8940F83E
:103FA000048B51F804EBE4FB6E9A40F8049B51F843
:103FB00004EBE4FB6EABA0E8000C072B6AD008B45E
:103FC0000C68A0F11C00A1F11C01A2F11C0252F826
:103FD00004EB4FF0000550F8046BE4FB6E5652F80A
:103FE00004EB50F8047BE4FB6E6752F804EB50F8E6
:103FF000048BE4FB6E7852F804EB50F8049BE4FB6E
:104000006E8952F804EB50F804ABE4FB6E9A52F858
:1040100004EB50F804BBE4FB6EAB52F804EB50F831
:1040200004CBE4FB6EBCA0F11C0052F8044B51F829
:1040300004EB4FF00003E4FB6E3540F8043B51F80D
:1040400004EBE4FB6E5640F8045B51F804EBE4FB30
:104050006E6740F8046B51F804EBE4FB6E7840F8AF
:10406000047B51F804EBE4FB6E8940F8048B51F8B3
:1040700004EBE4FB6E9A40F8049B51F804EBE4FB7C
:104080006EAB40F804AB51F804EBE4FB6EBCA0E867
:10409000001808BCBDE8F08F0139C9B24BB2002B43
:1040A0000BDA013111F0FF0315D059B201F1804351
:1040B000013B50F82320002304E050F82330002B6C
:1040C000EAD0EEE712B152080133FBE7481E03EBDA
:1040D000401080B200E0184600B2704700EB81014A
:1040E0000023884206D251F8042D43EA52030B60A4
:1040F000D307F6E7704730B5002463B2934206DA7F
:104100001BB2013451F8235040F82350F5E730BD7D
:104110002DE9F04FB1E8005E06B4AAFB09124FF09A
:104120000003EBFB69234FF00004ECFB69344FF014
:104130000005EEFB69454FF00006EBFB6A63ECFB04
:104140006A344918524176415B41A9FB09784FF026
:10415000000949F1000918EB0108A0E88001AAFB59
:104160000A78574158EB0608A0E88001EEFB6A4543
:104170004FF0000A4AF1000A4FF00001ECFB6B140B
:10418000EEFB6B454FF00002EEFB6C255FEA590930
:104190004941644152416D4149F10009EBFB6B3AE1
:1041A0001AEB010AA0E80804ACFB0C6A66415AEB62
:1041B000020AA0E84004AEFB0E6A6E415AEB090AFF
:1041C000A0E8400406BC052A00F0E680A0F1140037
:1041D000A1F11401B1E8E043A5FB0E344FF0000556
:1041E000E6FB6E454FF00006E7FB6E564FF000070A
:1041F000E8FB6E674FF00008E9FB6E784FF00009AE
:10420000DB1864416D4176417F4158EB080859F154
:10421000000950F804CB13EB0C0350F804CB54EB1B
:104220000C0450F804CB55EB0C0550F804CB56EBBE
:104230000C0650F804CB57EB0C0758F1000859F165
:104240000009A0F11400EEFB0E89A0E8F803062A8D
:1042500000F0A280A0F11800A1F11801B1E8E04738
:10426000A5FB0E344FF00005E6FB6E454FF000064F
:10427000E7FB6E564FF00007E8FB6E674FF0000853
:10428000E9FB6E784FF00009EAFB6E894FF0000AF7
:10429000DB1864416D4176417F4158EB080859EBCA
:1042A00009095AF1000A50F804CB13EB0C0350F83B
:1042B00004CB54EB0C0450F804CB55EB0C0550F830
:1042C00004CB56EB0C0650F804CB57EB0C0750F818
:1042D00004CB58EB0C0859F100095AF1000AA0F17F
:1042E0001800EEFB0E9AA0E8F807072A54D0A0F1B8
:1042F0001C00A1F11C01B1E8E04FA5FB0E344FF00A
:104300000005E6FB6E454FF00006E7FB6E564FF0EA
:104310000007E8FB6E674FF00008E9FB6E784FF08E
:104320000009EAFB6E894FF0000AEBFB6E9A4FF032
:10433000000BDB1864416D4176417F4158EB080862
:1043400059EB09095AEB0A0A5BF1000B50F804CB50
:1043500013EB0C0350F804CB54EB0C0450F804CBD3
:1043600055EB0C0550F804CB56EB0C0650F804CB7B
:1043700057EB0C0750F804CB58EB0C0850F804CB63
:1043800059EB0C095AF1000A5BF1000BA0F11C007B
:10439000EEFB0EABA0E8F80FBDE8F08F00000000C8
:1043A000C3F10803DB0070B50133002403A500BF8F
:1043B0005B1920C940CAAD1B20C0184720C940CA9C
:1043C000B54120C020C940CAB54120C020C940CA5B
:1043D000B54120C020C940CAB54120C020C940CA4B
:1043E000B54120C020C940CAB54120C020C940CA3B
:1043F000B54120C06441B4FA84F0400970BD00BFEB
:104400004A11012301F01F0150F822008B4018408F
:1044100070470000F0B50C4689B008220646FFF749
:104420006AFEE36A0393236B0493636B0593A36BA8
:104430000693E36B0793002769466A46082368469C
:10444000029701970097FFF7ABFA314605466A4697
:1044500008233046FFF7A4FA236B0393636B04939E
:10446000A36B0593E36B0693054469466A460823EC
:1044700068460797FFF794FA314605446A460823D1
:104480003046FFF78DFA236A0093636A0193A36AAB
:104490000293A36B0693E36B0793054431466A4688
:1044A00008233046059704970397FFF779FA636A64
:1044B0000093A36A0193E36AA26B0293636B039375
:1044C00004920693E26B236A0592054407933146F2
:1044D0006A4608233046FFF763FAE36A0093236BCA
:1044E0000193636B0293236A0693A36A07930544BF
:1044F00031466A4608233046059704970397FFF72D
:104500004FFF236B0093636B0193A36B0293E36BE9
:104510000393636A0693E36A07932D1A31466A464A
:104520000823304605970497FFF73AFF636B009323
:10453000A36B0193E36B0293236A0393636A04936F
:10454000A36A0593236B07932D1A31466A46082305
:1045500030460697FFF724FFA36B0093E36B0193AC
:10456000636A0393A36A0493E36A0593636B0793F7
:104570002D1A314630466A46082302970697FFF700
:104580000FFF2D1A16D5304631460D4A0823FFF786
:1045900007FA4519F7D410E0094831460822FFF719
:1045A00037FA012809D030463146054A0823FFF77B
:1045B000F7FE2D1A002DEFD0F5E709B0F0BD00BFD2
:1045C000D8B80700F8B5036813F0010506460F4692
:1045D000144605D001463A462346FFF7E1F9054661
:1045E00030462146FFF77AFD45B104F18042013A99
:1045F00056F8223043F0004346F82230F8BD2DE94A
:10460000F04115468AB00446884602A800212022BF
:10461000FEF761FE2E780323204641462A462F1DD1
:1046200076B20293FFF78DFB2046214602AA3B4655
:104630000096FFF796FB2046214642462B46FFF7A1
:1046400070FB00962046214605F184023B46FFF7A9
:10465000B7FA0AB0BDE8F08100F01F0201219140D5
:104660004009800000F1E020C0F88012704700F09F
:104670001F02012191404009800000F1E020C0F8B4
:104680008011704700F01F02012191404009800015
:1046900000F1E020C0F80011704700F01F02012176
:1046A00091404009800000F1E020C0F800117047FF
:1046B00000F01F02012191404009800000F1E0203C
:1046C000C0F8001270474907090E002806DA00F00A
:1046D0000F0000F1E02080F8141D704700F1E02089
:1046E00080F8001470470000BFF34F8F0548016841
:1046F000054A01F4E06111430160BFF34F8F00BF31
:10470000FDE700000CED00E00400FA053EB50024D2
:104710008DF80040684600F0ADFE06F0C3FAC8B957
:1047200010480F490268AAB1D1F8081311F0010F1F
:1047300010D00460006802900B4800688DF80400F7
:1047400001A90A4804F082FE084804F069FE08B195
:1047500004F064FC9DF8000000F0B0FE3EBD0000D7
:1047600000D0004000D1004008D50040F0B1070063
:1047700007480021C0F84011C0F84411C0F84811A2
:10478000C0F84C11C0F80011C0F8041106F058BB75
:104790000010014003480078002801D100F0ACB9B6
:1047A00070470000982F002070B50E46144900EBAA
:1047B000400001EBC0051446E86A183520B1012815
:1047C0000FD0022805D113E0284600F0C9F9A04215
:1047D00001D2002411E022463146284600F0F8F9C3
:1047E0000BE0284600F0BCF9A042F4D20446F2E700
:1047F0003146284600F0BFF90446204670BD00004F
:10480000982F002006F06ABA074810B5406830B10A
:104810008047002807D0BDE8104000F0FBBCBDE891
:10482000104001F06BBF10BDFC200020F0B5A34884
:104830000023021D01780125101D4FF08054062928
:104840000BD11678360708D10678C6F30316032E67
:1048500006D0042E04D0052E02D0062907D00EE083
:10486000B4F82463964FC6F304263E6002E016783F
:10487000360704D10678C6F30316032E02D00629A4
:1048800004D00FE0904F8F4E7E670EE0167836070B
:1048900008D10678C6F30316032E06D0042E04D0E2
:1048A000052E02D0062907D00EE0D4F84462874FC7
:1048B000C6F342363E6002E01678360704D1067829
:1048C000C6F30316032E02D0062906D011E0804E4F
:1048D000376827F0807737600EE01678360708D102
:1048E0000678C6F30316032E06D0042E04D0052E38
:1048F00002D006290AD011E04FF08046C6F80C31EC
:10490000C6F81031714E361F336002E01678360754
:1049100004D10678C6F30316032E02D0062905D06B
:104920000CE06A4F032664373E600AE016783607CB
:1049300004D10678C6F30316032E02D006290DD043
:1049400014E0644F05263E60624E78363560614E55
:10495000083633603F263F1D3E6002E0167836077A
:1049600004D10678C6F30316052E02D0062957D0C7
:1049700068E059490968594A11605749091D096891
:10498000121D1160544908310968121D1160524905
:104990000C310968121D11604F4910310968121D50
:1049A00011604D4914310968121D11604A491831CE
:1049B00009684A4A2032116047491C310968121DB2
:1049C0001160454920310968121D116042492431A6
:1049D0000968121D1160404928310968121D1160D3
:1049E0003D492C310968121D11603B49303109687D
:1049F0003A4A40321160384934310968121D116059
:104A0000354938310968121D116033493C31096854
:104A1000121D1160304940310968121D116002E019
:104A2000117809070ED10078C0F30310032803D0D2
:104A3000042801D0052805D1D4F85802284900F0EF
:104A40004F00086022487438016841F47001016029
:104A5000BFF34F8FBFF36F8F4FF01021D1F80002DB
:104A6000002803DBD1F80402002822DA1D4A156071
:104A70001D480468002CFCD01524C1F800420568CC
:104A8000002DFCD0C1F8044201680029FCD013605D
:104A900001680029FCD0BFF34F8F0D48F038016842
:104AA000124A01F4E06111430160BFF34F8F00BF70
:104AB000FDE710490E480860F0BD0000E00F00F06F
:104AC000403501400DF0ADBA00C007403C05004044
:104AD000FCED00E0105600400404001020C500402A
:104AE000E40E004004E5014000E401400400FA0542
:104AF0000090D0031021002010B5124C022020613C
:104B0000606111A0A061A4F50470E0614FF4007031
:104B100020620020A06260620BA1A164E062A4F1A7
:104B20001001E16410212165A0656065E06509A1BF
:104B3000E01DFEF7EDFB08A12046FEF7E9FB202073
:104B4000A07110BD982F00205465726D696E616C64
:104B5000000000005254540053454747455200009E
:104B60000269C1688A4203D88068401A104400E094
:104B7000501A401E70472DE9F047C4681746894611
:104B800006464FF000083069A04201D9051B02E03B
:104B9000B168201A0D1AB0686D1E001BA84200D81B
:104BA0000546BD4200D33D4670682A46204449462A
:104BB000FEF776FBB0687F1B2C44A844A944A042B2
:104BC00000D10024F460002FDDD14046BDE8F0871D
:104BD0002DE9F041C6680446174688468068851B63
:104BE0006068BD4206D93044FEF75AFBF019E06018
:104BF000BDE8F0812A463044FEF752FB7E1B08EBED
:104C0000050132466068FEF74BFBE660F0E7000006
:104C10000FB41CB50246002007AC00290BD0491E7A
:104C2000CDE90021054B6A462146069800F02AF896
:104C3000009A002111701CBC5DF814FBE7500700BE
:104C400002E008C8121F08C1002AFAD17047704755
:104C5000002001E001C1121F002AFBD170470000B3
:104C60000121202803DA81400548014003E0402863
:104C700002DA2038814009B10120704700207047D6
:104C8000FC06FFBD2DE9FF4F8DB00F4605460026FF
:104C900006E025280BD0DDE90F1290476D1C761C2D
:104CA00028780028F5D111B03046BDE8F08F0024F7
:104CB000A246A1460122EC4900E0044315F8013F59
:104CC000203B02FA03F00842F7D128782A2810D0B6
:104CD0006FF02F022878A0F13001092914D80AEBCF
:104CE0008A0102EB410144F0020400EB010A6D1C51
:104CF000F0E701CF5FEA000A03D544F40054CAF19B
:104D0000000A44F002046D1C28782E2817D115F8EB
:104D1000010F44F004042A280ED06FF02F022878E7
:104D2000A0F1300109290AD809EB890102EB410100
:104D300000EB01096D1CF2E757F8049B6D1C287805
:104D40006C280FD006DC4C2817D068280DD06A28B4
:104D500014D104E0742810D07A280FD10DE044F467
:104D600000140AE044F4801401E044F4401469782B
:104D7000814202D104F580146D1C6D1C2A786E2AC4
:104D80001FD00CDC632A31D004DC002A8BD0582AD7
:104D900011D1A3E0642A68D0692A0CD165E0732A96
:104DA0002ED004DC6F2A73D0702A04D19BE0752AC0
:104DB0006FD0782A6ED01046DDE90F129047761C2E
:104DC00050E1C4F30250022806D0032809D0042879
:104DD00001CF09D0066045E101CFF117C0E90061BC
:104DE00040E101CF06803DE106703BE117F8040B7E
:104DF0008DF8000000208DF80100EB46012003E053
:104E000057F804BB4FF0FF3061074FF0000102D4A8
:104E10000DE008F10101884649450FDA8045F8DBCD
:104E20001BF808100029F4D108E008F101018846B8
:104E30008142FADB1BF808100029F6D1DDE90F23C7
:104E4000AAEB08008146214600F036F9304400EB19
:104E5000080604E0DDE90F121BF8010B9047B8F1DA
:104E60000108F7D221464846F7E00A21C4F302536D
:104E70004FF0000B0891022B04D001CFC117032B78
:104E800009D00AE0FF1D27F00707F7E8020108E054
:104E900032E01FE020E000B2C117042B01D140B284
:104EA000C117031E71F1000307DA4FF0000CD0EBBD
:104EB0000C006CEB01012D2302E0230504D52B230C
:104EC0008DF82430012303E0E30701D02023F7E726
:104ED000984658E00A2110E010210EE010204FF013
:104EE000000B08900CE010214FF0000B44F004047C
:104EF0004FF00809089103E008214FF0000B0891DA
:104F0000C4F30253022B04D001CF0021032B06D09F
:104F100006E0FF1D27F00707F7E8020103E080B273
:104F2000042B00D1C0B24FF0000823072BD5702A04
:104F300007D0DDF820C08CF0100C5CEA0B0C05D01B
:104F40000EE040238DF82430012308E050EA0103ED
:104F500006D030238DF824308DF825200223984682
:104F6000DDF820C08CF0080C5CEA0B0C0BD150EA89
:104F7000010301D1630706D530238DF824304FF0AB
:104F80000108A9F10109582A04D038A20B9208AAF5
:104F90000A920BE03AA2F9E75B46089AFEF7C1F9DC
:104FA0000B9B9B5C0A9A521E0A92137050EA0102F4
:104FB000F2D10A98ADEB000000F1200B600702D59A
:104FC00024F4803401E04FF00109D94502DDA9EB5A
:104FD0000B0000E0002000EB0B0141440890AAEB1D
:104FE000010AE00306D4DDE90F232146504600F014
:104FF00063F806444FF0000908E009A911F8090018
:10500000DDE90F12904709F10109761CC145F4DB77
:10501000E0030CD5DDE90F232146504600F04CF8A3
:10502000064404E0DDE90F1230209047761C089911
:10503000481E08900029F5DC08E00A980A990078D3
:10504000491C0A91DDE90F129047761CBBF1000163
:10505000ABF1010BF1DC21465046DDE90F2300F0F6
:1050600019F806446D1C1BE6092801003031323363
:105070003435363738396162636465660000000094
:10508000303132333435363738394142434445467E
:10509000000000002DE9F041044600251E46174699
:1050A000880404D405E039462020B0476D1C641EF6
:1050B000F9D52846BDE8F0812DE9F04104460025E8
:1050C0001E469046C80301D5302700E020278804FB
:1050D00004D505E041463846B0476D1C641EF9D53D
:1050E0002846BDE8F0814A68002A06D00A68531CA9
:1050F0000B6010704868401E4860704786B00B21F6
:10510000ADF8141002218DF8001001228DF8012055
:105110008DF8020003208DF803008DF8041059204B
:105120008DF80500FE208DF8060005A90DF1090097
:105130007DDF002818D1BDF814000B2808D8411CC9
:105140008DF80710092109308DF8081080B206E0AB
:105150000C208DF8070008208DF808001420C1B23B
:1051600000231A46684672DF06B070477FB5174DB8
:10517000287A800702D5002004B070BD0024009476
:105180000194029406200394FFF7B8FF0028F3D19E
:1051900028208DF80840ADF80A008DF800400194F1
:1051A000ADF80C400021684673DF0028E4D14FF0D1
:1051B000A0414FF40030C1F80C05122003F06EFF3F
:1051C000A86840F00200A860D5E70000B8200020E1
:1051D0000B46024602A1012004F0B5F8FFF784FA5D
:1051E0003A4552524F523A5265636569766564207A
:1051F00061206661756C74212069643A20307825DD
:105200003038782C2070633A203078263038780D8A
:105210000A000000024603A1012004F08DF8FFF708
:1052200063FA00003A4552524F523A52656365693B
:1052300076656420616E206572726F723A203078F4
:1052400025303878210D0A002DE9F84F254C81468C
:10525000924660880E46814241D800274FF6FF787B
:105260008DF80070684600F005F922786078A18812
:10527000884201DA401C00E00020C0B2904204D114
:105280009DF8000000F01AF927E065786078884200
:1052900001DA401C00E0002060709DF8000000F082
:1052A0000DF9454519D0A068B9F1000F40F835A0B7
:1052B0000DD066B16188E068324605FB01004946C1
:1052C000FDF7EEFFA06800EBC500868002E000EB72
:1052D000C50087800020BDE8F88F0420FBE7092087
:1052E000F9E70000D420002010B50E4C03E0401C6C
:1052F00000E00020207020786178814210D0227870
:105300006188E068A36802FB010003EBC20153F867
:105310003220898890472078A1888842E9DAE6E738
:1053200010BD0000D420002030B5CB0008339DB262
:1053300093074FF0000401D0072030BD044B9A6062
:105340002A44DA605C701C7058809980002030BD5F
:10535000D4200020074B9B7823B12AB120B10068EC
:10536000037C1BB1082070470720704741744261DD
:1053700000207047EC2B002070B505F095F910481F
:1053800000240B21047044700E4D817014206C6059
:105390002C706C70FFF760F907211420FFF793F968
:1053A0001420FFF76FF90848046007211120FFF768
:1053B0008AF90548001F0068A860002070BD000041
:1053C000EC2B0020E4200020081501402DE9FC47CB
:1053D000DFF8789099F8023073B368B3052902D2E8
:1053E0000720BDE8FC87436933B3437C012B25D0FC
:1053F000002704460025884616468DF8005068466A
:1054000000F038F801A805F0B3FDC8B10121017022
:105410000F4944600968C0E90218C0E904769DF8A4
:10542000040089F801009DF8000000F047F81420FE
:10543000FFF73EF92846D4E70820D2E70F46D8E721
:1054400004259DF8000000F039F8F3E7EC2B00206C
:10545000041501400649897839B130B1416921B15B
:1054600000210174022105F0C7BC0820704700002C
:10547000EC2B002030B5EFF3108172B60D4A946822
:10548000012324B10370002900D162B630BD9360BE
:105490004FF0E023D3F88051074C25401560C3F846
:1054A0008041D3F8844154605A17C3F88421002204
:1054B0000270E8E7F82C0020FC06FFBD0B498A6863
:1054C000002A11D000280FD1EFF3108072B60B68BC
:1054D0004FF0E022C2F800314B68C2F804310022DC
:1054E0008A60002800D162B670470000F82C0020C6
:1054F00070B5054601461C220F48FDF7D1FE0F4C42
:1055000000262670286830B1016861604068A0609C
:10551000201D7ADF02E00948001D7BDF00280AD148
:105520004FF6FF7060806670BDE87040044A00214D
:105530000448FFF70FBF70BD00270020A420002003
:1055400011AF070080B1070070B51E4C068800231C
:105550001B49E289102E15D01B4D112E1CD0122E86
:1055600029D0502E17D130F8061F914213D141890E
:10557000022910D10C3000F0E6F888B1BDE8704087
:1055800000F08CBA84884C800469CC604069086162
:105590004B70002AF2D070BD4FF6FF7048804B7000
:1055A0002868FFF757FF0028F5D0A1690029F2D03D
:1055B000BDE8704008478268CA60C0680861DDE7DE
:1055C000A42000200027002080B1070001480068C7
:1055D000FFF740BF80B1070030B585B004002AD086
:1055E000164D4FF6FF702246288001208DF81200DC
:1055F0004FF65960ADF8100004A90120A0DF002883
:1056000017D10F4B0FCB8DE80F00A11C684662DF4E
:1056100000280ED1204600F0CFFE002809D12046F8
:1056200000F04EFB002804D1A86840F00100A860FB
:10563000002005B030BD0E20FBE70000B8200020A0
:1056400088B1070070B500240FA1042003F070FE9C
:10565000134D2888A0F57F41FF3904D0132176DF50
:10566000040010D10CE0287A800709D574DF0028E7
:1056700009D1112003F012FDA86840F00200A860D3
:10568000FFF7A4FF204670BD3A44454255473A44CF
:105690006973636F6E6E656374696E670D0A0000EF
:1056A000B820002000B587B0112003F0EFFC1220D5
:1056B00003F0ECFC112003F0F1FC122003F0EEFCEF
:1056C000012000F045F800282BD1174805F010FA0A
:1056D000002826D100F0DCFF002822D11348FFF774
:1056E0007BFF00281DD11C216846FDF7F2FD40F626
:1056F000CD4001904FF48040029003208DF80C00C3
:105700000020ADF80E008DF810000948069068469C
:10571000FFF7EEFE002804D107B05DF804EBFFF7B9
:1057200025BD07B000BD0000355707006C270020DD
:10573000995A070010B50446FFF706FF2046BDE85A
:10574000104003F0DDBE007800F00100704700005B
:1057500010B5314986B00968049118B102F0C8FE4D
:10576000002857D12D4A2EA1042003F0E5FD2B4837
:1057700013DF04004ED1294A29A1042003F0DCFDE7
:1057800022462F49042003F0D7FD2EA1042003F068
:10579000CFFD384B5022384904A805F053FA08B120
:1057A000FFF738FD35A1042003F0C2FD0024684650
:1057B000009405F093F908B1FFF72CFD0194012046
:1057C0008DF804008DF80540029403948DF806408E
:1057D00001A94020009A69DF041E01D0FFF71AFDDD
:1057E000224632A1032003F0A7FD94B93AA1042078
:1057F00003F09EFD684605F085F9040005D00246D9
:105800003DA1012003F098FD03E046A1042003F030
:105810008FFD204606B010BD84B1070000300700A0
:105820003A44454255473A766563746F7220746115
:10583000626C653A203078253038780D0A00000017
:1058400050B607003A44454255473A4265666F7282
:105850006520534F46544445564943455F48414EA1
:10586000444C45525F41505053485F494E49540D96
:105870000A00000031AC07001C2700203A444542D2
:1058800055473A416674657220534F465444455615
:105890004943455F48414E444C45525F4150505347
:1058A000485F494E49540D0A000000003A494E46EF
:1058B0004F3A4572726F7220636F6465202D2073BA
:1058C000645F626C655F6366675F7365743A20301E
:1058D00078253038780D0A003A44454255473A4514
:1058E0006E61626C696E6720736F66746465766959
:1058F00063652E0D0A0000003A4552524F523A4657
:1059000061696C656420736F66746465766963654C
:105910005F656E61626C653A203078253038780DAD
:105920000A0000003A44454255473A536F66746492
:10593000657669636520656E61626C65640D0A0059
:105940000249085C012103F0B0BB000075B10700FB
:105950000249085C002103F0A8BB000075B10700F4
:105960007CB50024084E25460122305D00950023B9
:105970001146019503F06EFB641C042CF4D3BDE8C2
:105980007C4000F003B8000075B1070010B500249A
:105990002046FFF7D5FF641C042CF9D310BD002965
:1059A00001DA00207047026811440160012070474D
:1059B00010B543689C18446021B905E013F8010B49
:1059C00001F8010B521EF9D2012010BD38B1054972
:1059D000814204D80449814201D901207047002046
:1059E0007047000014210020242100202DE9F05FE1
:1059F00026484168F1B3DFF898B00E688146DBF8BD
:105A0000004087688078E11B21F07F45ED1CB0B92C
:105A1000DFF880804FF48030C8F84403C8F80403EE
:105A20001120FEF719FE1120FEF72CFE4FF0010A9F
:105A3000C8F800A02F2001F003FA89F802A0B542AF
:105A400000D23546124BE8193C3320F07F401860F5
:105A5000DBF800105A46091B21F07F41001B20F0A3
:105A60007F40C91C81420FD9106818602F2001F0B7
:105A7000E7F900E004E0BDE8F05F1120FEF718BE92
:105A8000BDE8F05F04F010BEBDE8F09FE420002008
:105A90000415014000100140FFF7BCBBF8B51348E6
:105AA00000F06AFE114D0026114C0C3D30B16169C9
:105AB000B9B101208DF80000684611E0287820B1C6
:105AC000616971B18DF80060F6E7687858B1A16836
:105AD000084800220068FFF779FC10B1A16901B104
:105AE00088472E70F8BD6168F2E70000B020002002
:105AF0000027002080B10700F0B54FF0FF3622B13B
:105B00001268D24300230A4D0DE03246FAE7C45C26
:105B100062400824D70700D037462F4087EA520258
:105B2000641EF7D15B1C8B42F1D3D043F0BD000063
:105B30002083B8EDF0B5146906468DB0206815468F
:105B4000271DE0B1022920D00A2000906B4609AA47
:105B5000304604F00FFC00280FD009A901A8009AD4
:105B600004F0E2FA01AE96E80F0005AE86E80F00F9
:105B7000236869683A4605A898470DB0F0BD0DB096
:105B80003046BDE8F04004F043BB6946304604F0BF
:105B9000D5FA0028F1D0236869683A4668469847E4
:105BA0000028EAD002980028F5D101987060012001
:105BB000E3E753685B7813F0C00303D0402B03D0B6
:105BC0000020704700F002B8FFF7B4BF2DE9FF4195
:105BD0000B465168064614464878334D00F00F02D4
:105BE00010F0300055F8225006D0102806D020289A
:105BF00008D0302856D13EE022694DE0616901208D
:105C0000087047E0022B28D1042A26D84FF001085B
:105C100069463046676904F091FA00281AD009E015
:105C20000B79226913FB00226846A84770B13878C7
:105C3000401C3870029820B1616838784A799042E7
:105C4000EED301987060029860BB02E04FF000084C
:105C5000F7E7404604B0BDE8F081D4E904300F799D
:105C6000027817FB023349798A421BD2521C027018
:105C70001A46616810E008786169072A087009D13E
:105C8000606801792069FDF724FB606821698068FC
:105C900004F06FFA2269616804B03046AC46BDE892
:105CA000F04160470020D5E70CB3070010B503486A
:105CB00001F080F8BDE81040FFF716BBA086010098
:105CC00010B58EB004461C216846FDF702FB142176
:105CD00008A8FDF7FEFA9DF80010002041F0180119
:105CE00007908DF80010A1788DF836100121ADF8DD
:105CF00034109DF81C1004F10C0321F0FF018DF805
:105D00001C109DF81D1008AA21F00F01491C21F05C
:105D1000F00110318DF81D109DF81E1021F00601C4
:105D2000891C41F011018DF81E100DA9089107A9D9
:105D300009911721ADF82C100C9020886946A2DF3C
:105D40000EB010BD02488168491E81607047000096
:105D5000602000201FB5114800F15C01826B68468D
:105D600004F0E2F90E489DE80E0080E80E000C49B0
:105D70000C480E4AC8600C490020086048600C4975
:105D8000074803F053FF10B1012004B010BD09A172
:105D9000012003F0CDFA0020F7E70000402A0020A0
:105DA00050260020619F070094200020242100201D
:105DB0000CB107003A4552524F523A48616E646C3A
:105DC00065723A20496E76616C69642070726F74F6
:105DD0006F636F6C2062756666657220737472659E
:105DE000616D0D0A000000002DE9F8431F465FEACF
:105DF0000208054600F104044FF0000607D037B151
:105E000094F85F0028B194F8600010B156E00420C7
:105E10005CE0207A40B1E068342807D082A10120FC
:105E200003F086FA062051E086A1CBE000204FF473
:105E30004052217C15E000BF04EB8003B2F80CC097
:105E40005B6963450CD194F82510844889B1012918
:105E500018D0022912D0032910D081A10320B2E06A
:105E6000401C8142E8DC86A1012003F061FA072092
:105E70002CE021780029CAD0866803E02178002927
:105E8000C5D0C66884A133460320626803F05BFA7C
:105E900094F8250020B1022807D003280ED104E091
:105EA0006068B0420AD286A103E06068B04205D8BB
:105EB0008AA1012003F03CFA052007E095F8700064
:105EC00040B18EA1032003F033FA0B20BDE8F84364
:105ED00000F0E8BA91A1032003F02AFA994E9A4BF8
:105EE0003A463088ADF800004146009800F088FE40
:105EF00030B9954895F8712008384168914202D030
:105F00000A20BDE8F883006805F17201FDF7C8F9C1
:105F10008EA1032003F00CFA7088ADF800003079F0
:105F2000894B894A8DF80200083BA2F110010098C4
:105F300000F01CFE28B18CA1012003F0F9F9052026
:105F4000DFE790A1032003F0F3F97F4D0020243D0B
:105F5000286194F8251051B101291AD08F480229DF
:105F6000C0F5FC200AD003291BD08DA12AE094F8AB
:105F7000340008B1A06B10E091A123E094F82C103C
:105F800029B1216B2961814222D994A135E099A1DF
:105F900018E094F8260010B1A06A286118E09CA1CE
:105FA00010E094F82C1061B194F8261049B1A26A5F
:105FB000216B53182B614AB141B1814208D99BA191
:105FC0001BE0A2A1012003F0B3F920E7A5A11AE08C
:105FD000AAA1032003F0ACF95B482022083004F1A9
:105FE0003F010068FDF75CF9286958B1564A002165
:105FF000183A01F079FE58B1A7A1012003F098F9F1
:1060000004207EE7ADA1012003F092F9032078E798
:10601000AFA10320EA6803F08FF9B6A1032003F0D3
:1060200087F901206DE700003A4552524F523A4637
:1060300061756C74792048572076657273696F6E4C
:106040000D0A00003A4552524F523A4E6F204857BF
:106050002076657273696F6E0D0A0000402A002079
:106060003A494E464F3A556E6B6E6F776E204657E3
:106070002075706461746520747970650D0A000084
:106080003A4552524F523A534420726571206E6F16
:1060900074206D65740D0A003A494E464F3A5265B8
:1060A000712076657273696F6E3A2025642C2045E5
:1060B000787065637465643A2025640D0A000000F9
:1060C0003A4552524F523A46572076657273696F7D
:1060D0006E20746F6F206C6F770D0A003A45525234
:1060E0004F523A424C2046572076657273696F6E64
:1060F00020746F6F206C6F770D0A00003A494E468E
:106100004F3A496E76616C6964207369676E617499
:1061100075726520747970650D0A00003A494E4623
:106120004F3A43616C63756C6174696E6720696E88
:106130006974207061636B657420686173680D0A0F
:106140000000000070B10700842000203A494E464C
:106150004F3A566572696679207369676E61747526
:1061600072650D0A000000003A4552524F523A53F0
:1061700069676E6174757265206661696C65640D2E
:106180000A0000003A494E464F3A496D6167652062
:1061900076657269666965640D0A00000030070063
:1061A0003A4552524F523A556E6B6E6F776E20469B
:1061B000572075706461746520747970650D0A00EC
:1061C0003A4552524F523A4E6F2061707020696DBD
:1061D0006167652073697A650D0A00003A4552527D
:1061E0004F523A424C20746F6F206C617267650D9C
:1061F0000A0000003A4552524F523A4E6F20626CEC
:1062000020696D6167652073697A650D0A00000079
:106210003A4552524F523A4E6F20534420696D61B5
:1062200067652073697A650D0A0000003A4552528D
:106230004F523A424C20746F6F206C617267652038
:106240002853442B424C290D0A0000003A45525273
:106250004F523A4E4F20424C2F53442073697A6577
:106260000D0A00003A4552524F523A424C2B5344C9
:106270002073697A6520300D0A0000003A494E46C5
:106280004F3A52756E6E696E67206861736820635D
:106290006865636B0D0A00003A4552524F523A430B
:1062A000616E27742066696E6420726F6F6D206660
:1062B0006F72207570646174650D0A003A45525220
:1062C0004F523A4E6F2046572073697A650D0A0087
:1062D0003A494E464F3A5772697465206164647258
:1062E0006573732073657420746F2030782530389F
:1062F000780D0A003A494E464F3A4446552070728E
:106300006576616C696461746520535543434553F8
:106310005346554C210D0A0010B58278012A01D050
:10632000052010BD0D4A0CCAFFF75EFD044601288A
:1063300005D00BA1012002F0FBFF204610BD10A1EB
:10634000032002F0F5FF14A1032002F0F1FF00206A
:1063500002F0D6FC0028F0D00A2010BD94200020C6
:106360003A4552524F523A50726576616C69646197
:106370007465206661696C6564210D0A0000000087
:106380003A494E464F3A50726576616C6964617461
:1063900065204F4B2E0D0A003A494E464F3A536145
:1063A00076696E6720696E697420636F6D6D616ECA
:1063B000642E2E2E0D0A000010B58EB004461C214E
:1063C0006846FCF786FF142108A8FCF782FF9DF8B9
:1063D0000010002041F0040107908DF80010A17812
:1063E0008DF836100221ADF834109DF81C1008AA63
:1063F00021F0FF018DF81C109DF81D1021F00F01F8
:10640000491C21F0F00110318DF81D109DF81E106F
:1064100021F00601891C41F001018DF81E100DA923
:10642000089107A909911421ADF82C100C9020882F
:10643000231D6946A2DF0EB010BD0000044A09B951
:10644000002313705268002A00D0104770470000E4
:10645000CC2000200E4910B50A784C780023A242C7
:1064600012D0521CD2B20A70022A00D10B70084A14
:106470000B780C3252F8232002608868104420F018
:106480007F408860012010BD0360002010BD000027
:10649000E42000200249002208780A7070470000BA
:1064A000C8200020014908700B207047C820002038
:1064B000F8B506461A481F46154600780C46C00730
:1064C00008D03046FFF782FA30B13CB1200507D042
:1064D0000620F8BD0120F8BD0220F8BD0320F8BD5C
:1064E0003068A04204D8716804EB0530884201D9B5
:1064F0000520F8BD7DB1684603F0CEFE68B1009876
:106500000221C0E900670172210B8181058203F03D
:1065100017FF0020F8BD0420F8BD0720F8BD0000DB
:10652000F820002070B50E4C06460D00206820F0C3
:10653000010020600FD00BA1012002F0F9FE2068BD
:1065400040F0020020607268002A07D029463046D9
:10655000BDE87040104720F00200F3E770BD000076
:10656000C42000203A4552524F523A47656E657238
:106570006174696E67206661696C7572650D0A00E9
:106580000348017841F001010170002070470000CC
:10659000F82000200348406E042801D000207047F6
:1065A00001207047042D00202DE9F84307461D48BF
:1065B000DDF820801E46007815460C46C0070CD03A
:1065C0003846FFF703FA50B15DB154B145EA040013
:1065D000800708D00620BDE8F8830120FBE70220F1
:1065E000F9E70320F7E73868A04204D8786804EB9D
:1065F0008601884201D20520EDE77EB1684603F0AE
:106600004BFE68B100980121C0E900780172C0E931
:106610000354868203F094FE0020DCE70420DAE7CE
:106620000720D8E7F820002070B5174A174904461C
:10663000106E0B7800EB400002EBC0009D0715D5F3
:10664000022C02D0032C1BD102E003F00FF917E05B
:106650004A78521CD2B24A70032A11D900224A70D9
:10666000082104F077F803F001FE09E0580707D588
:1066700023F004000870526E12B140F0020008705E
:10668000BDE8704003F024BE042D0020F820002057
:1066900010B586B000249DF80000019420F00F0092
:1066A000401C20F0F00010308DF80000029403A888
:1066B0006DDF00281CD19DF80D00401C8DF80D00E9
:1066C00003A86CDF002813D107220AA168467CDFEB
:1066D00000280DD10C20ADF804001820ADF80600FC
:1066E000ADF808404FF4C870ADF80A0001A87ADF91
:1066F00006B010BD4466755461726700F8B51D4C54
:106700002078002835D0A06828B10026206920B163
:10671000002526B114E00126F8E70125F9E76078A5
:10672000002826D1684648DF052803D020B1FEF7AF
:1067300071FD05E0012603E0A16809B100988847D2
:106740009DB96078002814D16088ADF800006946D2
:10675000E06861DF052803D020B1FEF75BFD04E0AF
:10676000012502E0D4E903018847002ED7D0002D8F
:10677000CFD0F8BDFC200020054940880A8890420F
:1067800004D34988884201D801207047002070470F
:10679000A8200020800701D000207047012070470A
:1067A00070B5054608680C464A6886682846314632
:1067B00003F000FC6068286104F10C0068617078E7
:1067C0000221B1EB901F01D1241D2C6170BD00008E
:1067D0002DE9F047394E002780463D46DFF8E0902E
:1067E000D6F804A057E003D00446D0F81C8035E06A
:1067F00099F8002002EB4201521CD2B289F8002025
:1068000009EBC10199F80230091D9A4201D189F8BA
:10681000005048680A780446012A12D0022A02D0A1
:10682000032A3BD108E004F0B7FA00B10127257430
:1068300034E00574C06900E070680028F9D1706028
:106840002CE0207C50BB88686060C868A060086944
:10685000E0604869A061F07800B165606268B16885
:10686000184B501A20F07F40984202D2A168084489
:1068700006E0881AA16820F07F40814202D9081AF8
:10688000206000E0256065600120A560207420463E
:10689000E56104F063FAB8F10000A4D199F80010A2
:1068A00099F801008142A3D117B97168514502D00E
:1068B0000120BDE8F0870020FBE70000E420002075
:1068C000EC2B0020FFFF7F001CB5002002F060FDD4
:1068D0001A21192003F088F810A1032002F028FDE6
:1068E000FFF73EF80220FFF733F800210323CDE93C
:1068F000001310200A4602F09BFB00F0C9F808B113
:10690000FEF788FC4FF44050806800F01BF808A1A7
:10691000032002F00DFD00201CBD00003A494E4648
:106920004F3A496E73696465206D61696E0D0A00A6
:106930003A494E464F3A4166746572206D61696E00
:106940000D0A000010B50446024613A1042002F00F
:10695000F3FC01F0CDFD08B11FA112E029A1042034
:1069600002F0E6FC4FF0E0214FF0FF30C1F880016B
:1069700022462CA1042002F0DFFC204613DF28B1C0
:1069800034A1BDE81040012002F0D2BC2046BDE891
:106990001040FCF73FBC00003A44454255473A528C
:1069A000756E6E696E67206E72665F626F6F746C73
:1069B0006F616465725F6170705F7374617274207F
:1069C0007769746820616464726573733A20307803
:1069D000253038780D0A00003A4552524F523A4657
:1069E00061696C65642072756E6E696E67206E7287
:1069F000665F6466755F6D62725F696E69745F730E
:106A0000640D0A003A44454255473A44697361624D
:106A10006C696E6720696E74657272757074730D3F
:106A20000A0000003A44454255473A536574746978
:106A30006E6720534420766563746F7220746162C0
:106A40006C6520626173653A203078253038780DA6
:106A50000A0000003A4552524F523A4661696C654D
:106A6000642072756E6E696E672073645F736F6603
:106A7000746465766963655F766563746F725F746D
:106A800061626C655F626173655F7365740D0A00B6
:106A900010B507A1042002F04BFC01F001FC04003A
:106AA00004D10BA1042002F043FC204610BD0000DD
:106AB0003A44454255473A496E206E72665F626FAE
:106AC0006F746C6F616465725F696E69740D0A0042
:106AD0003A44454255473A4166746572206E726683
:106AE0005F626F6F746C6F616465725F696E697409
:106AF0000D0A00002DE9F00300F0FF0C002318251B
:106B000030221C26382420274FF04009BCF10A0F00
:106B100025D2DFE80CF024051D0B2015181D0B20D5
:106B200014224A60282211E08A6002E0C1E900468E
:106B30008C60BDE8F003C0F307200C3100F0D1B841
:106B40004A60602202E042224A6084220A60EBE747
:106B5000C1E90025E8E7C1E900974A46E4E74B6050
:106B60000B608B60BDE8F003062070472DE9F04113
:106B700086B01C4615460E468046FCF79DFD07462E
:106B800046B33DB334B3306830B3296821B32168CC
:106B900011B3FFF7FFFDF8B12868FFF7FBFDD8B18F
:106BA0002068FFF7F7FDB8B101A94046FFF7A2FF43
:106BB00000280CD170680199884207D16A6804984E
:106BC000824203D160680399884207D0092006B049
:106BD000BDE8F0810E20FAE71020F8E708F0FF008A
:106BE000042801D00620F2E700972368296830685E
:106BF000FCF766FD08B10020E9E70B20E7E700009D
:106C0000F0B506461A48A1B01C004068029004A8DE
:106C100017460D46019008D03DB1206838B1F0B25A
:106C2000052806D0062021B0F0BD0E20FBE710207D
:106C3000F9E7694600F055F80028F4D1606800993A
:106C4000884201D00920EEE701A9304600F035F86E
:106C50000028E8D13A46294601A800F059F8002852
:106C6000E1D1224601A9304600F004F8DBE700003C
:106C700004B30700F8B51446054621B11CB14868B5
:106C800070280DD101E00720F8BD0E68E8B2694612
:106C900000F027F80028F7D160680099884201D0F9
:106CA0000920F8BDC5F3072028B10022304621682D
:106CB00003F0A1FDF8BD0122F8E731B10A6832B155
:106CC0004968702905D2092070470E2070471020AE
:106CD0007047C0B2052801D006207047104603F067
:106CE00013BE1422082811D2DFE800F010041004AB
:106CF00006080C0E0A6003E01C2000E0202008605B
:106D0000002070473020FAE74020F8E7062070475F
:106D100028B121B14368702B03D2092070470720A6
:106D20007047006803F0B0BE00283ED01F49204ADB
:106D3000096800BF00BF00BF00BF00BF00BF00BFA9
:106D400000BF91422FD000BF00BF00BF00BF00BFF7
:106D500000BF00BF00BF00BF00BF00BF00BF00BF3B
:106D600000BF00BF00BF00BF00BF00BF00BF00BF2B
:106D700000BF00BF00BF00BF00BF00BF00BF00BF1B
:106D800000BF00BF00BF00BF00BF00BF00BF00BF0B
:106D900000BF00BF00BF00BF00BF00BF00BF00BFFB
:106DA00000BF00BF00BF401EC3D1704710210020AC
:106DB0000024F40000283ED01F49204A096800BF83
:106DC00000BF00BF00BF00BF00BF00BF00BF9142B7
:106DD0002FD000BF00BF00BF00BF00BF00BF00BF7B
:106DE00000BF00BF00BF00BF00BF00BF00BF00BFAB
:106DF00000BF00BF00BF00BF00BF00BF00BF00BF9B
:106E000000BF00BF00BF00BF00BF00BF00BF00BF8A
:106E100000BF00BF00BF00BF00BF00BF00BF00BF7A
:106E200000BF00BF00BF00BF00BF00BF00BF00BF6A
:106E300000BF401EC3D17047102100200024F40081
:106E400000283ED01F49204A096800BF00BF00BF8C
:106E500000BF00BF00BF00BF00BF91422FD000BFE6
:106E600000BF00BF00BF00BF00BF00BF00BF00BF2A
:106E700000BF00BF00BF00BF00BF00BF00BF00BF1A
:106E800000BF00BF00BF00BF00BF00BF00BF00BF0A
:106E900000BF00BF00BF00BF00BF00BF00BF00BFFA
:106EA00000BF00BF00BF00BF00BF00BF00BF00BFEA
:106EB00000BF00BF00BF00BF00BF00BF00BF401E3B
:106EC000C3D17047102100200024F4002DE9F14FB8
:106ED000DFF8E8804FF4405A4FF48054D8F830007F
:106EE000DAF80810D8F8246001EB000B351A34A149
:106EF000042002F01DFAA1464C46A54200D82C46BB
:106F000000220121584601F047F8002822D1002331
:106F100022465846009901F03BF900281AD1224632
:106F20005846009901F0B8FA070006D05A462D4994
:106F30000120009B02F007FA0BE0002201210098DB
:106F400001F02AF8070007D027A10120009A02F0DB
:106F5000F3F93846BDE8F88FD8F830100020214406
:106F6000C8F8301001F0CCFE0098A34420440090F3
:106F70002D1BC1D100223146DAF80800FEF7BCFD16
:106F8000D8F8282005464446AA4208D125A1042065
:106F900002F0CEF90120A661C4E9075004E00346DF
:106FA0002849012002F0CFF90448243001F068FAA2
:106FB000BDE8F84F002001F0A3BE0000402A0020E9
:106FC0003A44454255473A456E746572206E726682
:106FD0005F6466755F6170705F636F6E74696E7514
:106FE000650D0A002CB707003A4552524F523A41FC
:106FF0007070207570646174653A204661696C75C3
:1070000072652065726173696E67207061676520C3
:10701000617420616464723A203078253038780DCC
:107020000A0000003A44454255473A536574746972
:107030006E67206170702061732076616C69640DE9
:107040000A000000D8B6070010B511A1042002F014
:107050006FF9184C206A012801D017A10CE0E069F3
:1070600078B14FF44050A16980680022FEF744FDDA
:10707000E169814205D01BA1042002F059F90020EA
:1070800010BD20A1042002F053F9012010BD000022
:107090003A44454255473A456E746572206E7266B1
:1070A0005F6466755F6170705F69735F76616C695C
:1070B000640D0A00402A00203A44454255473A529E
:1070C000657475726E2066616C736520696E2076DA
:1070D000616C69642061707020636865636B0D0A80
:1070E000000000003A44454255473A5265747572B3
:1070F0006E2066616C736520696E204352430D0AF1
:10710000000000003A44454255473A526574757292
:107110006E20747275652E20417070207761732027
:1071200076616C69640D0A00F8B50E460A681A4962
:10713000496B0D18541A4FF44050009482682B4646
:1071400016A1042002F007F922462946234801F03F
:10715000A3F988B123462A462149042002F0F3F816
:107160002146284601F0A6F9040003D01DA1012004
:1071700002F0DEF82046F8BD23A1042002F0D8F882
:10718000304601F07DF929A1042002F0D1F83348FE
:1071900001F0B6FD0446EDE7402A00203A4445429E
:1071A00055473A566572696679696E6720424C3A6E
:1071B00020416464723A203078253038782C20538E
:1071C00072633A203078253038782C204C656E3A3E
:1071D000203078253038780D0A0000000030070094
:1071E00070B707003A4552524F523A526571756571
:1071F000737420746F20636F707920424C20666135
:10720000696C65640D0A00003A44454255473A42AC
:107210006F6F746C6F61646572207761732076653F
:107220007269666965640D0A000000003A444542CF
:1072300055473A57726974696E672073657474694B
:107240006E677320616E64207265736574696E6722
:10725000206465766963652E0D0A000089A4070025
:107260002DE9F047087801275D4CDFF87881154655
:107270000E464FF48079072878D2DFE800F0A904A1
:107280002D5528A99F0058A1032002F051F8B0689D
:1072900020B1484504D90420BDE8F0870320FBE76E
:1072A0005AA1032002F044F860480068FEF7D2F8C3
:1072B00008B1FDF7AFFF4A48002588F802502021A9
:1072C0003830FCF706F82563B068A06385E058A164
:1072D000032002F02DF822E05CA1032002F028F840
:1072E000B268E06BA36B1118994207D96860206CF3
:1072F000A8605EA1012002F01BF8CFE7384B71684F
:107300005C331844FBF7CCFFE06BB168344A0844A7
:10731000E063D6E901014032FEF7EEFB2064E06B4A
:107320006860206CA86058E05DA1032002F000F8BE
:10733000D4E90E01814205D062A1012001F0F8FFDD
:107340000820A9E768A1032001F0F2FF98F80200E5
:10735000444608B101209FE76BA1032001F0E8FF3C
:10736000FEF7F8FC012802D0052095E730E06948D7
:1073700090F8741049B168A1032001F0D9FF6E495B
:10738000A1F2B440FEF7C8FF08E0007850B16BA14D
:10739000032001F0CDFF0320FFF784F80746012802
:1073A00005D01AE06EA1012001F0C2FFDCE779A14F
:1073B000032001F0BDFF0120A0700EE07FA103209B
:1073C00001F0B6FF206CA860E06BC5E9009004E016
:1073D00086A1012001F0ACFF022738465CE70000DF
:1073E000402A0020602000203A494E464F3A42652C
:1073F000666F7265204F502063726561746520630B
:107400006F6D6D616E640D0A000000003A494E46D2
:107410004F3A56616C696420436F6D6D616E6420F4
:107420004372656174650D0A00000000E8B1070051
:107430003A494E464F3A56616C696420436F6D6D10
:10744000616E64204352430D0A0000003A494E46E3
:107450004F3A4265666F7265204F502077726974AB
:107460006520636F6D6D616E640D0A003A4552527E
:107470004F523A4572726F722E20496E69742063C2
:107480006F6D6D616E64206C6172676572207468E7
:10749000616E2065787065637465642E200D0A0046
:1074A0003A494E464F3A4265666F7265204F50200A
:1074B0006578656375746520636F6D6D616E640DCD
:1074C0000A0000003A4552524F523A4578656375BA
:1074D00074652077697468206661756C7479206FB3
:1074E00066667365740D0A003A494E464F3A566116
:1074F0006C696420636F6D6D616E6420657865638F
:107500007574650D0A0000003A494E464F3A0D0A5F
:1075100000000000242100203A494E464F3A4861BD
:107520006E646C696E67207369676E656420636F53
:107530006D6D616E640D0A00502600203A494E467A
:107540004F3A48616E646C696E6720756E73696747
:107550006E656420636F6D6D616E640D0A000000DE
:107560003A4552524F523A4465636F6465642063F2
:107570006F6D6D616E64206275742069742068613E
:1075800073206E6F20636F6E74656E7421210D0A17
:10759000000000003A494E464F3A53657474696ED4
:1075A000672044465520666C616720746F20696EC1
:1075B000697469616C697A65640D0A003A494E46DE
:1075C0004F3A56616C696420436F6D6D616E643A29
:1075D000204E52465F4446555F4F424A4543545FF2
:1075E0004F505F53454C4543540D0A003A455252A3
:1075F0004F523A496E76616C696420436F6D6D61DC
:107600006E64204F7065726174696F6E0D0A0000C0
:1076100070B505464FF440500CA18468042001F079
:1076200087FE124901F118000A69012A08D04A6947
:1076300032B189690C3001F6FF716FF30B010C4414
:107640002A462146BDE8704000F012B83A4445424F
:1076500055473A456E746572206E72665F64667552
:107660005F636F6E74696E75650D0A00402A0020B5
:107670002DE9F04106468068002415468846012819
:107680000DD00127A52816D0AA281DD0AC2825D0BA
:1076900018A1012001F04CFE2046BDE8F0811DA19B
:1076A000042001F045FE204840690128F4D14046FD
:1076B000FFF70CFC10E01DA1042001F039FE31465B
:1076C000404601F071F911E01DA1042001F030FEE7
:1076D00031464046FFF728FD0446DDE71DA10420A2
:1076E00001F026FE3146404601F00EF904462F60B7
:1076F000D2E700003A4552524F523A53696E676CD6
:10770000653A20496E76616C69642062616E6B0D2A
:107710000A0000003A44454255473A56616C696494
:10772000204170700D0A0000402A00203A44454272
:1077300055473A56616C69642053440D0A000000B5
:107740003A44454255473A56616C696420424C0DB3
:107750000A0000003A44454255473A56616C696454
:10776000205344202B20424C0D0A00002DE9F84FF5
:1077700015460C004FF0010B1DD02078CA4FCB4EA0
:107780004FF480594FF00008072871D2DFE800F06D
:10779000700464FEFD70FC00C5A1032001F0C8FD6B
:1077A000A26842B1100509D0786D31691044884251
:1077B00004D0C64967E00320BDE8F88F4A4504D9E4
:1077C000C3A1012001F0B4FD50E0B07850B17B6D51
:1077D0003069991881420AD90090C949012001F005
:1077E000BAFD46E0C749012001F0A2FD41E0C6A173
:1077F000032001F09DFDF86CB864A0687864786D92
:1078000038653863796909B9C7F820807178491CEF
:1078100001F003017170A6F80680B168491CB160DF
:10782000A168F26801F6FF711044090BBD4A00F02F
:10783000B3FB40B1B068BCA1401EB060012001F0B4
:1078400077FD0520B8E7B86C0090BF4903203B6D79
:107850007A6C01F080FD1FE1386D6860B86CA8603B
:10786000B07830B1A168B1F5807F04D90420A3E7D6
:1078700014E10820A0E7386D7A6D0844801A7A6C0C
:10788000904204D9B1A1012001F052FD93E7864A4C
:1078900060684832FEF730F9B864386DA268DFF8E6
:1078A000CCA2104438656860B86CA860F088A26803
:1078B000B9461118FF290AD8777861680AEB0723BF
:1078C0001844FBF7EDFC2189F08808444AE0C0F534
:1078D000807173788FB20AEB032210443A466168D4
:1078E000FBF7DEFCF0888F4B384480B2F080A16853
:1078F000C01CC91BA160616839446160D9F83010AF
:10790000F2684F4611440091B1688208491CB16089
:10791000717800980AEB012100F03AFC00285BD056
:10792000B06893A1401EB060F2880120009B01F076
:107930000AFDF86CB864786D38656860F86CA8600A
:107940007078401C00F003007070A6F80680A268F2
:10795000002A40D00AEB00206168FBF7A1FC2089D7
:10796000F1880844F0800004000CF2D0D9F85420CB
:10797000D9F83010D9F844308A1A02444C469A4259
:1079800029D3F2688F1802E07DE03BE043E0B16864
:10799000C01C491CB160717882080AEB0121614B5F
:1079A000384600F0F5FB10B3B0683B46401EB060AF
:1079B000F2886FA1012001F0C6FCE06CA064606D4C
:1079C00020656860E06CA8607078401C00F00300DF
:1079D0007070A6F806805FE0F28872A10320009B19
:1079E00001F0B1FCF188386B08443863A8E73B46E6
:1079F000F2886CA1032001F0A6FCF188206B0844FA
:107A00002063E1E76FA1032001F092FC386D68600C
:107A1000B86CA86040E071A1032001F089FCD7E9AF
:107A200014017A6C431A934204D073A1012001F02F
:107A30008AFC1EE77CA1032001F07AFCC7F8448091
:107A4000386D7865B86CF864002001F059F908B118
:107A50000A20B1E6386D316988421DD17949032089
:107A6000B26801F069FC01E001F0D4FAB0680028C6
:107A7000FAD175A1032001F05BFC3C48B03800F05E
:107A800043FD834608E077A1032001F051FCB86C68
:107A9000A860386DC5E9009058468DE679A10120AF
:107AA00001F046FC0220ECE7402A00206020002084
:107AB0003A494E464F3A4265666F7265204F5020F4
:107AC0006372656174650D0A00000000C4B40700AC
:107AD0003A4552524F523A496E76616C696420734E
:107AE000697A6520666F72206F626A656374202808
:107AF000746F6F206C61726765290D0A00000000C9
:107B000098B5070010B507003A494E464F3A5661FE
:107B10006C69642044617461204372656174650D11
:107B20000A000000455D07003A4552524F523A455F
:107B300072617365206F7065726174696F6E206623
:107B400061696C65640D0A0054B507003A455252EC
:107B50004F523A5772697465207265717565737416
:107B600020746F6F206C6F6E670D0A00502200202A
:107B70003A4552524F523A212121204661696C65A3
:107B8000642073746F72696E6720256420422061DF
:107B90007420616464726573733A203078253038DC
:107BA000780D0A003A494E464F3A53746F72696E27
:107BB0006720256420422061743A203078253038CF
:107BC000780D0A003A494E464F3A4265666F726533
:107BD000204F50206372630D0A0000003A494E4660
:107BE0004F3A4265666F7265204F50206578656335
:107BF0007574650D0A0000003A4552524F523A49D9
:107C00006E76616C69642064617461206865726578
:107C10003A206578703A2025642C20676F743A20EA
:107C200025640D0A000000003A494E464F3A56615D
:107C30006C6964204461746120457865637574657E
:107C40000D0A000078B407003A494E464F3A446F97
:107C5000696E6720706F737476616C6964617465B6
:107C60000D0A00003A494E464F3A56616C6964204D
:107C700044617461205265616420696E666F0D0A0B
:107C8000000000003A4552524F523A496E76616CFC
:107C900069642044617461204F7065726174696F1A
:107CA0006E0D0A0010B54FF0A040D0F81005000C82
:107CB00010F0010F11D00A480068B1280DD0094812
:107CC000816D012901D0002010BD00218165084689
:107CD00001F016F808B1FDF79DFA012010BD000073
:107CE0001C050040402A00202DE9F04707464FF0D0
:107CF00010208A464FF440594169D9F808001646C9
:107D0000081AA0F5405836A1042001F011FB26B155
:107D1000B84505D23BA1042042E00720BDE8F0872A
:107D200045A1042001F004FB494C4AA1042022692A
:107D300001F002FB4DA10420A369226A01F003FBBC
:107D400054A10420636AE26A01F0FDFAD9F8080040
:107D50003060206A04F118054FF00009012805D0B1
:107D6000C4F8109055A1C4F8149020E042465CA1DC
:107D7000042001F0E1FA28683B4600F6FF70010B91
:107D80000903A8EB010188460A4660A1042001F01E
:107D9000DAFA0120474514D9BAF1000F04D065A1E1
:107DA00001F0C6FA0420B9E7C4E904096BA1042074
:107DB00001F0BEFAC5F80490C5F8089000202F60C5
:107DC000ACE7C4E90490A069316800F6FF706FF376
:107DD0000B001F4D08442435306068A10420E7E7FC
:107DE0003A44454255473A456E746572206E726654
:107DF0005F6466755F66696E645F63616368650D85
:107E00000A0000003A44454255473A4E6F207761D8
:107E10007920746F2066697420746865206E6577B8
:107E2000206669726D77617265206F6E2064657679
:107E30006963650D0A0000003A44454255473A42DD
:107E4000616E6B20636F6E74656E740D0A000000C6
:107E5000402A00203A44454255473A42616E6B2021
:107E6000747970653A2025640D0A00003A44454251
:107E700055473A42616E6B203020636F64653A204B
:107E80003078253032783A2053697A653A20256473
:107E90000D0A00003A44454255473A42616E6B2054
:107EA0003120636F64653A203078253032783A208B
:107EB00053697A653A2025640D0A00003A44454228
:107EC00055473A4E6F2070726576696F75732C2036
:107ED0007573696E672062616E6B20300D0A000059
:107EE0003A44454255473A667265655F73697A65FB
:107EF000206265666F72652062616E6B2073656CCF
:107F00006563743A2025640D0A0000003A44454236
:107F100055473A667265655F73697A653A202564EC
:107F20002C2073697A655F7265713A2025640D0AA9
:107F3000000000003A4552524F523A4661696C7552
:107F400072653A206475616C2062616E6B207265A7
:107F5000737472696374696F6E0D0A003A44454226
:107F600055473A456E666F7263696E672073696E36
:107F7000676C652062616E6B0D0A00003A444542F1
:107F800055473A5573696E67207365636F6E642059
:107F900062616E6B0D0A00002DE9FF410546174630
:107FA0000E460B464FF000082A4628A1042001F097
:107FB000CAF92F4C2068410723D5810707D52DA189
:107FC000012001F0B5F90A2004B0BDE8F08140F0CD
:107FD00001002060B2B23B4629462F48FEF768FAFE
:107FE0005FEA000808D002462CA1012001F0A4F9A4
:107FF000206820F0010002E0206840F001002060CD
:1080000021E0280505D02CA1012001F091F90620DE
:10801000DAE7C5F30F34284601F0CCF905F58055B1
:10802000761EF8D17FB12B480168D0E90220CDE956
:108030000220CDE90017280BADF80840ADF80A0082
:1080400000216846B8474046BEE700003A44454232
:1080500055473A45726173696E673A20307825302A
:1080600038782C206E756D3A2025640D0A000000CA
:10807000C42000203A4552524F523A45726173650E
:108080003A204661696C7572652073696E6365207C
:108090006C6173740D0A0000142100203A4552529D
:1080A0004F523A4572617365206661696C65643A46
:1080B0002025640D0A0000003A4552524F523A49B9
:1080C0006E76616C696420616464726573730D0A15
:1080D0000000000098B1070010B501000C4C4FF0F3
:1080E000000013D00BA1042001F022F9FEF748FA9A
:1080F00008B113A104E01B4802F0DAFD28B11AA16F
:10810000012001F015F9082010BD0421216010BDE7
:10811000C42000203A44454255473A2D2D2D2D2D9F
:108120002D2D206E72665F6466755F666C61736884
:108130005F696E69742D2D2D2D2D2D2D0D0A0000DA
:108140003A4552524F523A4E6F7420696E697469C3
:10815000616C697A696E6720746865207468696EFD
:10816000670D0A00296607003A4552524F523A4EAF
:108170006F7420696E697469616C697A696E6720D1
:10818000746865207468696E6720320D0A0000000B
:108190002DE9FF411746264A06461D461068002471
:1081A000430723D5830707D522A1012001F0C0F89A
:1081B0000A2004B0BDE8F08140F001001060904654
:1081C0000A46BBB2314624480095FEF7EDF904009B
:1081D00005D0024621A1012001F0AEF820E0D8F838
:1081E000001041F00101C8F8001019E031B12EB1C2
:1081F00041EA0600800703D00620DAE70320D8E72B
:1082000087B13A46304601F0EDF84DB10020CDE996
:108210000260CDE900050146ADF80C706846A8473C
:108220002046C6E714A1012001F082F80420C0E72F
:10823000C42000203A4552524F523A466C6173684E
:108240003A204661696C7572652073696E636520BA
:108250006C6173740D0A0000142100203A455252DB
:108260004F523A466C6173683A206661696C656486
:108270002025640D0A0000003A4552524F523A46FA
:108280006C6173683A20496E76616C6964206C6534
:108290006E67746820284E564D43290D0A00000071
:1082A00038B500242FA10420009401F041F800F01B
:1082B000DFFCFDF761F808B1FCF7ACFF314A0021A3
:1082C0003148FDF747F808B1FCF7A4FF6846FFF70F
:1082D0009FF902004FF0010504D02CA1042001F009
:1082E0002BF80095FFF7DEFC20B135A1042001F04A
:1082F0001FF800953D4804600098A8B9FEF7A4FE59
:1083000090B1FEF7A1FE48B14FF4405438A10420CB
:10831000A26801F011F8A068FEF714FB3BA103204E
:1083200001F006F8002038BD404A14210820FCF76F
:10833000FBFF08B1FCF76EFF00F012FE040006D050
:1083400002463BA1012000F0F7FF204638BD00F0B7
:108350006DFA44A1042000F0EBFF3EDFFCF7C4FF00
:10836000FBE700003A44454255473A496E207265A2
:10837000616C206E72665F6466755F696E69740D0C
:108380000A000000D9A30700E8B107003A444542BB
:1083900055473A436F756C64206E6F7420636F6E3F
:1083A00074696E756520444655206F7065726174FE
:1083B000696F6E3A203078253038780D0A00000059
:1083C0003A44454255473A4170706C69636174693B
:1083D0006F6E2073656E7420626F6F746C6F616472
:1083E000657220726571756573740A001C05004022
:1083F0003A44454255473A4A756D70696E67207434
:108400006F3A203078253038780D0A003A494E46C8
:108410004F3A4166746572207265616C206E7266B7
:108420005F6466755F696E69740D0A0094270020A9
:108430003A4552524F523A436F756C64206E6F74D6
:1084400020696E6974616C697A65204446552074B0
:1084500072616E73706F72743A203078253038789C
:108460000D0A00003A44454255473A57616974691C
:108470006E6720666F72206576656E74730D0A00F4
:108480000021016041608160024801634163016134
:1084900041617047402A00201FB5054B01AC92088E
:1084A0001B6A009384E80700684618DF04B010BD1B
:1084B000A8B107001FB58908002201AB009283E82C
:1084C0000700684618DF04B010BD00001FB5920811
:1084D000930502D0092004B010BD044B1B68009323
:1084E0000392CDE90110684618DFF4E7A8B1070050
:1084F0001FB5044B0FCB8DE80F00684618DF04B0A2
:1085000010BD0000B8B107002DE9F84F054690F8FE
:108510003D000127DFF8D881032801D009201AE0A7
:108520007448734B0088ADF80000D8E903122C336F
:108530000098FEF765FB00B10A276D4820222C3019
:1085400005F13F010068FAF7D6FE38B16AA10120B3
:1085500000F0EEFE0C20FDF7A5FF07466C4E70699B
:1085600040B101280DD06BA1012000F0E1FE0A20EE
:10857000BDE8F88F73A1032000F0DAFE644C1834D4
:1085800005E078A1032000F0D3FE614C24347DA1E6
:10859000032000F0CDFE95F825204FF0010A4FF0A2
:1085A0000009BAB384484FF44051012A05D0022A89
:1085B0003FD0032A1DD00A273DE00A78142A01D9AA
:1085C000496900E00021B1FBF0F2D8F80C1001F588
:1085D00000510B78142B01D9496900E00021B1FB4F
:1085E000F0F39A4225D07549032000F0ACFE052730
:1085F00021E00A78142A01D9496900E00021B1FB81
:10860000F0F2D8F80C1001F500510B78142B02D9B8
:10861000496901E00DE00021B1FBF0F39A4208D076
:108620006749032000F08FFE7069012801D1C6F868
:108630002090012F05D0C4F808904846C4F8049053
:108640003EE060A1032000F073FE95F8250080B1A4
:1086500001281AD002281AD003281BD00420FDF7C5
:1086600021FF074695F85F00C8B195F86000B0B1EA
:1086700022E0C4F808A070690128F3D15EA10320AC
:1086800000F056FEC6F82090ECE7A52003E0AA20F3
:10869000A060E7E7AC20A060A86A7063E2E795F805
:1086A000250020B1022805D0032805D102E0686822
:1086B000B06001E06868F060B06C6060D8F81000ED
:1086C0002060134820213830FAF703FE1048FF22BB
:1086D000B2215C30FAF7F6FDC6F8309088F804A0B5
:1086E000514800F00DFB00B10A27384640E7000072
:1086F0006020002070B107003A4552524F523A486C
:10870000617368206661696C7572650D0A0000000E
:10871000402A00203A4552524F523A496E746572CF
:108720006E616C206572726F722C20696E76616C5E
:1087300069642063757272656E742062616E6B0D80
:108740000A0000003A494E464F3A43757272656E10
:10875000742062616E6B2069732062616E6B2030E1
:108760000D0A00003A494E464F3A43757272656EE3
:10877000742062616E6B2069732062616E6B2031C0
:108780000D0A00003A494E464F3A52756E6E696EB8
:10879000672053442076657273696F6E2063686545
:1087A000636B203D3D3D3D3D3D3D3D3D3D3D3D3DC2
:1087B0003D200D0A0000000040420F0020B40700D9
:1087C000B8B307003A494E464F3A53756363657331
:1087D0007366756C6C792072616E207468652070A8
:1087E0006F737476616C69646174696F6E2063681D
:1087F00065636B210D0A00003A494E464F3A496EB7
:1088000076616C69646174696E67206F6C64206165
:1088100070706C69636174696F6E20696E2062614B
:108820006E6B20302E0D0A005598070070B50120A0
:10883000FFF752FC002820D1104D114CA860E870C1
:108840002871A06B70B1FDF785FA58B1206A68B93C
:10885000A06958B1094A00210C322861FFF744FA97
:108860000120A8700020FDF71DFE05E0E06A18B9A0
:10887000A06908B1606AEDE7002070BD60200020AB
:10888000402A002010B50C780F4B012C01D0062C8B
:1088900007D10C79012C03D0022C01D0072010BD88
:1088A0001C701B78012B07D0022B09D007A10120D7
:1088B00000F03EFD052010BDBDE81040FEF7D0BC25
:1088C000BDE81040FEF752BF602000203A455252EA
:1088D0004F523A496E76616C6964207265717565B4
:1088E000737420747970650D0A000000054810B596
:1088F0000179012903D0022903D101F09FFD012153
:10890000C17010BD6020002070B50D4606460CA158
:10891000042000F00DFD2946304600F08BF80400DD
:1089200001D011A106E029463046FEF7FDFB040008
:1089300004D015A1012000F0FBFC204670BD000012
:108940003A44454255473A456E746572206E7266E8
:108950005F6466755F73645F626C5F636F6E74699A
:108960006E75650D0A0000003A4552524F523A5357
:10897000442B424C3A20534420636F707920666147
:10898000696C65640D0A00003A4552524F523A53E1
:10899000442B424C3A20424C20636F707920666130
:1089A000696C65640D0A000070B50D4600F042F870
:1089B000040005D008A1012000F0BAFC204670BDDB
:1089C0002846FFF75DFD0EA1042000F0B1FCBDE8D4
:1089D0007040174800F094B93A4552524F523A53FA
:1089E000442075706461746520636F6E74696E7580
:1089F0006174696F6E206661696C65640D0A0000C0
:108A00003A44454255473A57726974696E67207314
:108A1000657474696E677320616E64207265736536
:108A200074696E67206465766963652E0D0A0000BF
:108A300089A407002DE9FE4F494F8046386B796BBA
:108A400000F58055081A00F6FF70060B360340F655
:108A5000FF7000EB9600040B240342A1042000F0F9
:108A600067FC386B796B804441B1884206D149A1DB
:108A7000042000F05DFC0020BDE8FE8FBB46C0B9BD
:108A800008F500500178142901D9416900E000215E
:108A90004748B1FBF0F34FF440510A78142A01D94A
:108AA000496900E00021B1FBF0F242A1042000F08E
:108AB0004AFCB44203D906F6FF70040B240305EB0D
:108AC000040A0095CDE901A408EB04039946424647
:108AD0004549042000F048FC224641462846FFF75D
