:020000040007F3
:10300000005C0020553207005D3207005F32070088
:1030100061320700633207006532070000000000DC
:103020000000000000000000000000006732070000
:1030300069320700000000006B3207006D320700A4
:10304000554807006F320700994C07006F320700A0
:103050006F3207006F320700594607006F320700D2
:103060006F3207006F3207006F3207006F320700C0
:103070006F320700AD4807006F3207006F3207005C
:103080006F320700114907006F3207006F320700E7
:10309000A54907006F320700A94907006F320700F2
:1030A0006F3207006F3207006F3207006F32070080
:1030B0006F3207006F3207000000000000000000C0
:1030C0006F3207006F3207006F3207006F32070060
:1030D0006F3207006F3207006F32070000000000F8
:1030E00000000000000000000000000000000000E0
:1030F00000000000000000000000000000000000D0
:1031000000000000000000000000000000000000BF
:1031100000000000000000000000000000000000AF
:10312000000000000000000000000000000000009F
:10313000000000000000000000000000000000008F
:10314000000000000000000000000000000000007F
:10315000000000000000000000000000000000006F
:10316000000000000000000000000000000000005F
:10317000000000000000000000000000000000004F
:10318000000000000000000000000000000000003F
:10319000000000000000000000000000000000002F
:1031A000000000000000000000000000000000001F
:1031B000000000000000000000000000000000000F
:1031C00000000000000000000000000000000000FF
:1031D00000000000000000000000000000000000EF
:1031E00000000000000000000000000000000000DF
:1031F00000000000000000000000000000000000CF
:10320000DFF80CD000F0CEF8004800470962070054
:10321000005C0020056885F308884068FF2464B2DC
:10322000EFF30585002D07D1EFF3148102229143BE
:1032300081F31488A64600472546064621273FBA53
:10324000F0B40024002500260027F0B4F92040B295
:10325000004700000648804706480047FEE7FEE7B3
:10326000FEE7FEE7FEE7FEE7FEE7FEE7FEE7FEE736
:10327000CD490700013207002DE9F05F0546002027
:1032800092469B4688460646814640241BE02846D7
:1032900041464746224600F074F853465A46C01A43
:1032A000914110D311461846224600F016F82D1A07
:1032B00067EB01084F4622460120002100F00DF87F
:1032C00017EB00094E41201EA4F10104DFDC484643
:1032D00031462A464346BDE8F09F202A04DB203AC7
:1032E00000FA02F1002070479140C2F1200320FA59
:1032F00003F31943904070470048704710AE070031
:1033000040EA01039B0703D009E008C9121F08C067
:10331000042AFAD203E011F8013B00F8013B521EE7
:10332000F9D27047D2B201E000F8012B491EFBD25E
:1033300070470022F6E710B513460A4604461946C0
:10334000FFF7F0FF204610BD421C10F8011B0029BA
:10335000FBD1801A704730B504460020034600E0D8
:103360005B1C934203D2E05CCD5C401BF8D030BDC7
:10337000034611F8012B00F8012B002AF9D1184659
:103380007047202A04DB203A21FA02F0002170471E
:1033900021FA02F3D040C2F12002914008431946BD
:1033A00070470000064C074D06E0E06840F001035E
:1033B00094E8070098471034AC42F6D3FFF724FF97
:1033C00048B3070068B307002DE9F0438BB080468F
:1033D000129D15F9046B009614461F4689462B462C
:1033E00002A81146424600F0BCFC02A80146129A0F
:1033F00000F0A7FC4046414602AA129B00F091FC57
:103400002046214602AA129B00F08BFC2B46384630
:1034100039464A46009600F0A4FC02A83946129AA2
:1034200000F08FFC02A8014642462B46009600F0B1
:1034300098FC02A8014622462B46009600F091FC1B
:103440002046214642462B46009600F08AFC48461C
:1034500049462246129B00F064FC2046414602AADF
:103460002B46009600F07DFC384639462246129BDA
:1034700000F057FC384639464A462B46009600F085
:1034800070FC204602A9324600F035FE0BB0BDE8C4
:10349000F083F0B589B01C4607460E4615466846CF
:1034A00011461A4600F04DFC384639466A46234616
:1034B00000F037FC684669462A46234600F031FC96
:1034C000304631466A46234600F02BFC09B0F0BD79
:1034D0001AB1013A8B5C8354FAE770472DE9F04743
:1034E0008846B3F902101F460825CB1D202493FB04
:1034F000F5F51F31954291FBF4F44FFA84F928BF9A
:1035000015460646494600F077FA2A4630464146B7
:10351000FFF7DEFFB7F90230ED009D4220D9ED1A2A
:1035200006EB840100228E420AD251F8040D20FAE3
:1035300005F313430B60C5F1200300FA03F2F2E731
:103540002437384631464A4600F062FA012807D04F
:10355000304631463A464B46BDE8F04700F020BFC2
:10356000BDE8F0872DE9F04793F9006092B004467A
:103570008946104631461546984600F073FA0028F1
:1035800040F0978002A84946424600F0DAFB4346E5
:103590000AA8214602AA00F0C4FB02A8014642463E
:1035A00000F0CFFB4346484649462A4600F0B9FBA7
:1035B00008F1040728462946424600F0C2FB20468F
:1035C00021462A463B46009600F0FAFA284629464C
:1035D0002A463B46009600F0F3FA284621462A4642
:1035E0003B46009600F0BDFB204621462A46434656
:1035F00000F097FB2846214622463B46009600F005
:10360000DFFA20463B46009621462A4600F0D8FACB
:103610002368DB07204613D5334621463A4600F09F
:10362000BFF931468246204600F058FD06F180433E
:10363000013B54F8230040EACA7044F8230002E03A
:10364000314600F04BFD28462146424600F079FB0A
:10365000284629460AAA3B46009600F082FB2846E7
:1036600029460AAA3B46009600F07BFB0AA80146C1
:103670002A463B46009600F074FB204621460AAAE3
:10368000434600F04EFB02A802463B462146009608
:1036900000F067FB20462946324600F02CFD284604
:1036A0004946324600F027FD484602A9324600F05E
:1036B00022FD12B0BDE8F0870048704798B20700BD
:1036C0002DE9F04FEFB01E46789C059023780493C7
:1036D000B4F9023092461F33202293FBF2F3DBB29F
:1036E00006939DF9187094F9012007F1FF3926AB74
:1036F000002543F829506EAB03EB89034EA88B4697
:10370000314643F8805C43F8605CFFF7E1FE94F9D2
:10371000012056A8B118FFF7DBFE9DF910604EA8F6
:10372000314600F09FF98046002840F02F8156A8CE
:10373000314600F097F90546002840F0258104F154
:10374000240840464EA93A4600F062F9012840F0AC
:103750001D81404656A93A4600F05AF901280890C2
:1037600040F014813B461EA856A9424600F041FA9B
:103770000DF1380C60465946524623464CF8295004
:10378000CDF80CC0FFF7AAFEDDF80CC0009760462C
:1037900061461EAA4346CDF824C00DF5BC7900F061
:1037A000AEFA4346009716A84EA91EAA00F0A7FA43
:1037B00048463246059900F09EFCB300039309EB9E
:1037C000030B039A059B58469918324600F093FC68
:1037D00004F144031946324636A8079300F08BFCE7
:1037E00004EB860132463EA8443104F1040A00F09D
:1037F00082FC494600961EA836AA534600F0B1FA4C
:103800004A465B4636A83EA90094FFF7DDFD1EA898
:1038100001463346524600F0ECF91EAA4846594686
:103820002346FFF736FEDDF824C0079B0B93604666
:10383000059B0C933946CDF814C00A95CDF8349009
:1038400000F02AFC3946054616A800F025FCA842DF
:10385000B8BF284685B2DDF814C06F1E3FB260467F
:10386000394600F0CDFD394610F1000916A818BF01
:103870004FF0010900F0C4FD002814BF022300230B
:1038800043EA09090DF1280B32465BF8297026A896
:10389000394600F030FC039B3246F9182EA800F0A0
:1038A0002AFC31461EA800F0A7F8023D089B1E9393
:1038B000AEB237B2002F44DB23461EAAD4F8A45080
:1038C00026A82EA9A84739460EA800F099FD39462A
:1038D000051C16A818BF012500F092FD002814BF92
:1038E000022300231D430AAB53F8257037B39DF91B
:1038F000105036A839462A4600F0FDFB039B3EA82F
:10390000F9182A4600F0F7FB36A83EA91EAA23465E
:10391000FFF7BFFD46A826A936AA5346009500F03A
:1039200020FA36A83EA926AA2EAB0094FFF74CFD3C
:103930001EA8014646AA234600F0F3F9013EB6B29E
:10394000B7E79DF910501EA8014652462B4600F0DD
:1039500050F9234626A82EA91EAAFFF79AFD9DF925
:103960001840404626A9224600F052F8012805D00A
:1039700026A801464246234600F012FD26A84EA97D
:103980002A4600F05AF802E0404600E028466FB0B0
:10399000BDE8F08F00000000000000000000000003
:1039A000C3F10803DB0070B501330446002003A512
:1039B0005B1920C940CAAD1920C4184720C940CAA4
:1039C000754120C420C940CA754120C420C940CADD
:1039D000754120C420C940CA754120C420C940CACD
:1039E000754120C420C940CA754120C420C940CABD
:1039F000754120C4404170BD10B5002253B28B42C6
:103A000005DA1BB2002440F823400132F6E710BD6E
:103A100010B5013AD2B253B2002B09DB1BB250F8F9
:103A2000234051F823309C4204D8F2D2FF2002E018
:103A3000002000E0012040B210BD013A30B5D2B202
:103A4000002453B2002B09DB1BB2013A51F823507A
:103A500050F823306B401C43D2B2F2E7B4FA84F042
:103A6000400930BD10B500231A465CB28C4204DA1E
:103A700050F8244001332243F7E7B2FA82F04009BC
:103A800010BD00002DE9F043A3B09846019112ABA0
:103A90004146074610469146009300F0FDFAC0EB00
:103AA000881086B2454C33B21C40002CBEBF04F1D6
:103AB000FF3464F01F040134202593FBF5F5EDB2CB
:103AC0006DB2A4B202A8294624B2FFF795FF28B22E
:103AD00002AB002C03EB800010DD002213464345AF
:103AE00010D259F8235005FA04F10A4340F8232074
:103AF000C4F1200225FA02F20133F0E749464246BA
:103B000000F0F9FA0FFA88F502AB4FEA45090124F3
:103B100003EB8505330444D40022114653B24B45D0
:103B200022DA0DF1880E0EEB840E0DF1880C18B21E
:103B30005EF888EC0CEB83035EF820E053F8803CE1
:103B4000C3EB0E035B1A734502D08CBF0121002129
:103B5000C4F1010E0DF1880C0CEB8E0E01325EF8F3
:103B600088EC4EF82030D9E7621A544202A8414648
:103B7000544100F0B3FA22AA08F1FF3302EB8303A9
:103B800002EB8802284652F8801C53F8802C013E34
:103B900042EAC172414643F8802CB6B200F09EFA68
:103BA000B8E722AB03EB8404384654F8881C42463D
:103BB00000F0A1FA23B0BDE8F08300BF1F00008031
:103BC00070B59DF910401D4623460646FFF7E8FEF6
:103BD00030B9284631462246FFF71AFF012807D0A0
:103BE000304631462A462346BDE8704000F0D8BB37
:103BF00070BDF0B50646A1B00F46084619461546F9
:103C00001C46FFF72FFF20B130462146FFF7F4FE98
:103C100073E068463946224600F06DFA08A8294646
:103C2000224600F068FA10A82146FFF7E5FE0123BE
:103C300018A821461093FFF7DFFE684608A9224620
:103C4000FFF7E6FE002853D0009BDA0704D468464D
:103C5000214600F043FA26E0089BDB0704D408A8BD
:103C6000214600F03BFA3DE000281EDD08AA23466D
:103C70006946684600F094FB6846214600F02EFA3B
:103C800010A818A92246FFF7C3FE002805DA10A8DD
:103C900001462A462346FFF783FE10A8014618AACC
:103CA000234600F07DFB10A81DE008A86A462346C5
:103CB000014600F075FB08A8214600F00FFA18A88D
:103CC00010A92246FFF7A4FE002805DA18A801462D
:103CD0002A462346FFF764FE18A8014610AA234689
:103CE00000F05EFB18A82946224600F06BFCA4E712
:103CF000304610A9224600F0FEF921B0F0BD70B5A3
:103D000090B006469DF950401D466846234600F097
:103D10003AF8304669462A462346FFF7B3FE10B00C
:103D200070BD30B51C4691B0054693F90030684629
:103D300000F029F8D4F8AC3028466946984711B00D
:103D400030BD30B5144691B0054692F90020684662
:103D500000F0DEF9D4F8AC3028466946984711B037
:103D600030BD70B59DF910401D462346064600F053
:103D700017FB38B1304631462A462346BDE870402D
:103D8000FFF70EBE70BD2DE9F04F08B4F8CA04B4B9
:103D900051F8042BA3FB028940F8048B4FF0000A72
:103DA000E4FB629A4FF0000BE5FB62AB4FF0000CB6
:103DB000E6FB62BC4FF0000EE7FB62CE51F8042B2D
:103DC0004FF00008E3FB628940F8048BE4FB629A41
:103DD000E5FB62ABE6FB62BCE7FB62CE51F8042B6D
:103DE0004FF00008E3FB628940F8048BE4FB629A21
:103DF000E5FB62ABE6FB62BCE7FB62CE51F8042B4D
:103E00004FF00008E3FB628940F8048BE4FB629A00
:103E1000E5FB62ABE6FB62BCE7FB62CE51F8042B2C
:103E20004FF00008E3FB628940F8048BE4FB629AE0
:103E3000E5FB62ABE6FB62BCE7FB62CE40F8049BAD
:103E400040F804AB40F804BB40F804CB40F804EB66
:103E50000CBC052B00F01E810C68A0F11400A1F130
:103E60001401A2F1140252F804EB4FF0000550F8CF
:103E7000046BE4FB6E5652F804EB50F8047BE4FB51
:103E80006E6752F804EB50F8048BE4FB6E7852F83E
:103E900004EB50F8049BE4FB6E8952F804EB50F8F5
:103EA00004ABE4FB6E9AA0F1140052F8044B51F8F5
:103EB00004EB4FF0000CE4FB6EC540F804CB51F866
:103EC00004EBE4FB6E5640F8045B51F804EBE4FBB2
:103ED0006E6740F8046B51F804EBE4FB6E7840F831
:103EE000047B51F804EBE4FB6E8940F8048B51F835
:103EF00004EBE4FB6E9AA0E80006062B00F0CA80F3
:103F00000C68A0F11800A1F11801A2F1180252F8F2
:103F100004EB4FF0000550F8046BE4FB6E5652F8CA
:103F200004EB50F8047BE4FB6E6752F804EB50F8A6
:103F3000048BE4FB6E7852F804EB50F8049BE4FB2E
:103F40006E8952F804EB50F804ABE4FB6E9A52F819
:103F500004EB50F804BBE4FB6EABA0F1180052F880
:103F6000044B51F804EB4FF0000CE4FB6EC540F835
:103F700004CB51F804EBE4FB6E5640F8045B51F8B7
:103F800004EBE4FB6E6740F8046B51F804EBE4FBD0
:103F90006E7840F8047B51F804EBE4FB6E8940F83E
:103FA000048B51F804EBE4FB6E9A40F8049B51F843
:103FB00004EBE4FB6EABA0E8000C072B6AD008B45E
:103FC0000C68A0F11C00A1F11C01A2F11C0252F826
:103FD00004EB4FF0000550F8046BE4FB6E5652F80A
:103FE00004EB50F8047BE4FB6E6752F804EB50F8E6
:103FF000048BE4FB6E7852F804EB50F8049BE4FB6E
:104000006E8952F804EB50F804ABE4FB6E9A52F858
:1040100004EB50F804BBE4FB6EAB52F804EB50F831
:1040200004CBE4FB6EBCA0F11C0052F8044B51F829
:1040300004EB4FF00003E4FB6E3540F8043B51F80D
:1040400004EBE4FB6E5640F8045B51F804EBE4FB30
:104050006E6740F8046B51F804EBE4FB6E7840F8AF
:10406000047B51F804EBE4FB6E8940F8048B51F8B3
:1040700004EBE4FB6E9A40F8049B51F804EBE4FB7C
:104080006EAB40F804AB51F804EBE4FB6EBCA0E867
:10409000001808BCBDE8F08F0139C9B24BB2002B43
:1040A0000BDA013111F0FF0315D059B201F1804351
:1040B000013B50F82320002304E050F82330002B6C
:1040C000EAD0EEE712B152080133FBE7481E03EBDA
:1040D000401080B200E0184600B2704700EB81014A
:1040E0000023884206D251F8042D43EA52030B60A4
:1040F000D307F6E7704730B5002463B2934206DA7F
:104100001BB2013451F8235040F82350F5E730BD7D
:104110002DE9F04FB1E8005E06B4AAFB09124FF09A
:104120000003EBFB69234FF00004ECFB69344FF014
:104130000005EEFB69454FF00006EBFB6A63ECFB04
:104140006A344918524176415B41A9FB09784FF026
:10415000000949F1000918EB0108A0E88001AAFB59
:104160000A78574158EB0608A0E88001EEFB6A4543
:104170004FF0000A4AF1000A4FF00001ECFB6B140B
:10418000EEFB6B454FF00002EEFB6C255FEA590930
:104190004941644152416D4149F10009EBFB6B3AE1
:1041A0001AEB010AA0E80804ACFB0C6A66415AEB62
:1041B000020AA0E84004AEFB0E6A6E415AEB090AFF
:1041C000A0E8400406BC052A00F0E680A0F1140037
:1041D000A1F11401B1E8E043A5FB0E344FF0000556
:1041E000E6FB6E454FF00006E7FB6E564FF000070A
:1041F000E8FB6E674FF00008E9FB6E784FF00009AE
:10420000DB1864416D4176417F4158EB080859F154
:10421000000950F804CB13EB0C0350F804CB54EB1B
:104220000C0450F804CB55EB0C0550F804CB56EBBE
:104230000C0650F804CB57EB0C0758F1000859F165
:104240000009A0F11400EEFB0E89A0E8F803062A8D
:1042500000F0A280A0F11800A1F11801B1E8E04738
:10426000A5FB0E344FF00005E6FB6E454FF000064F
:10427000E7FB6E564FF00007E8FB6E674FF0000853
:10428000E9FB6E784FF00009EAFB6E894FF0000AF7
:10429000DB1864416D4176417F4158EB080859EBCA
:1042A00009095AF1000A50F804CB13EB0C0350F83B
:1042B00004CB54EB0C0450F804CB55EB0C0550F830
:1042C00004CB56EB0C0650F804CB57EB0C0750F818
:1042D00004CB58EB0C0859F100095AF1000AA0F17F
:1042E0001800EEFB0E9AA0E8F807072A54D0A0F1B8
:1042F0001C00A1F11C01B1E8E04FA5FB0E344FF00A
:104300000005E6FB6E454FF00006E7FB6E564FF0EA
:104310000007E8FB6E674FF00008E9FB6E784FF08E
:104320000009EAFB6E894FF0000AEBFB6E9A4FF032
:10433000000BDB1864416D4176417F4158EB080862
:1043400059EB09095AEB0A0A5BF1000B50F804CB50
:1043500013EB0C0350F804CB54EB0C0450F804CBD3
:1043600055EB0C0550F804CB56EB0C0650F804CB7B
:1043700057EB0C0750F804CB58EB0C0850F804CB63
:1043800059EB0C095AF1000A5BF1000BA0F11C007B
:10439000EEFB0EABA0E8F80FBDE8F08F00000000C8
:1043A000C3F10803DB0070B50133002403A500BF8F
:1043B0005B1920C940CAAD1B20C0184720C940CA9C
:1043C000B54120C020C940CAB54120C020C940CA5B
:1043D000B54120C020C940CAB54120C020C940CA4B
:1043E000B54120C020C940CAB54120C020C940CA3B
:1043F000B54120C06441B4FA84F0400970BD00BFEB
:104400004A11012301F01F0150F822008B4018408F
:1044100070470000F0B50C4689B008220646FFF749
:104420006AFEE36A0393236B0493636B0593A36BA8
:104430000693E36B0793002769466A46082368469C
:10444000029701970097FFF7ABFA314605466A4697
:1044500008233046FFF7A4FA236B0393636B04939E
:10446000A36B0593E36B0693054469466A460823EC
:1044700068460797FFF794FA314605446A460823D1
:104480003046FFF78DFA236A0093636A0193A36AAB
:104490000293A36B0693E36B0793054431466A4688
:1044A00008233046059704970397FFF779FA636A64
:1044B0000093A36A0193E36AA26B0293636B039375
:1044C00004920693E26B236A0592054407933146F2
:1044D0006A4608233046FFF763FAE36A0093236BCA
:1044E0000193636B0293236A0693A36A07930544BF
:1044F00031466A4608233046059704970397FFF72D
:104500004FFF236B0093636B0193A36B0293E36BE9
:104510000393636A0693E36A07932D1A31466A464A
:104520000823304605970497FFF73AFF636B009323
:10453000A36B0193E36B0293236A0393636A04936F
:10454000A36A0593236B07932D1A31466A46082305
:1045500030460697FFF724FFA36B0093E36B0193AC
:10456000636A0393A36A0493E36A0593636B0793F7
:104570002D1A314630466A46082302970697FFF700
:104580000FFF2D1A16D5304631460D4A0823FFF786
:1045900007FA4519F7D410E0094831460822FFF719
:1045A00037FA012809D030463146054A0823FFF77B
:1045B000F7FE2D1A002DEFD0F5E709B0F0BD00BFD2
:1045C0009CB20700F8B5036813F0010506460F46D4
:1045D000144605D001463A462346FFF7E1F9054661
:1045E00030462146FFF77AFD45B104F18042013A99
:1045F00056F8223043F0004346F82230F8BD2DE94A
:10460000F04115468AB00446884602A800212022BF
:10461000FEF791FE2E780323204641462A462F1DA1
:1046200076B20293FFF78DFB2046214602AA3B4655
:104630000096FFF796FB2046214642462B46FFF7A1
:1046400070FB00962046214605F184023B46FFF7A9
:10465000B7FA0AB0BDE8F0812DE9F04700268CB02A
:10466000DFF86091B0464FF4807501243746069616
:10467000284604F069FB38B1D9F80403204203D07E
:10468000284604F057FB26432D1D64007F1CADB265
:10469000082FEDD34FF4BE74204604F055FB48B10B
:1046A000204604F047FB46F0004606AA0121002000
:1046B00004F02CFB444D16F0FF0F15D00127002409
:1046C00037420DD009EB8401D1F81005D1F810154F
:1046D000C0F3042055F82420C1F3014102B19047F2
:1046E0007F00641C082CEBD3002E67DA4FF0FF30FC
:1046F000CDE9088000263446281910F8507F90F93B
:10470000000027F0C008401C44D009A9404601F031
:10471000B5FD58B34FEA9719404600F0CBFF55F866
:1047200020701FB1B9F1030F03D00FE0B9F1030FEF
:1047300030D108A84FEAD80208F00703815C4FF097
:10474000010C0CFA03FC41EA0C0181544FF0A0412A
:1047500001EB8800D0F8000706A9C0F3014A4046E3
:1047600001F08CFD18B1BAF1020F03D012E0BAF1DA
:10477000030F0FD1B9F1030F08D1BAF1020F1BD00B
:104780000221404604F0A6FA761CF6B217B149465B
:104790004046B847641C042CAED3002E0ED06A46A7
:1047A0000121002004F0B2FA06990098884205D051
:1047B0000690089809909DE70321E2E70CB0BDE858
:1047C000F0870000006000407C36002000F01F02EF
:1047D000012191404009800000F1E020C0F88012E2
:1047E000704700F01F02012191404009800000F154
:1047F000E020C0F80011704700F01F020121914035
:104800004009800000F1E020C0F80012704749071D
:10481000090E002806DA00F00F0000F1E02080F811
:10482000141D704700F1E02080F80014704700006C
:10483000BFF34F8F05480168054A01F4E061114359
:104840000160BFF34F8F00BFFDE700000CED00E0FB
:104850000400FA052DE9F0414FF48077384601F065
:10486000EDFD0124104EA50748B1384601F0EDFDDD
:104870000120C5F808037470002000F023FF4FF4F6
:104880008277384601F0DAFD00280BD0384601F077
:10489000DCFD0220C5F80803B470BDE8F04101203A
:1048A00000F010BFBDE8F081683600203EB500245E
:1048B0008DF80040684600F01DFE05F02DFEC8B9D9
:1048C00010480F490268AAB1D1F8081311F0010F7E
:1048D00010D00460006802900B4800688DF8040056
:1048E00001A90A4804F0FEFB084804F0E5FB08B102
:1048F00003F092FF9DF8000000F020FE3EBD000096
:1049000000D0004000D1004008D5004024AC070092
:1049100007480021C0F84011C0F84411C0F8481100
:10492000C0F84C11C0F80011C0F8041105F0B8BE71
:104930000010014003480078002801D100F0BAB906
:1049400070470000883B002070B50E46144900EB0C
:10495000400001EBC0051446E86A183520B1012873
:104960000FD0022805D113E0284600F0D7F9A04265
:1049700001D2002411E022463146284600F006FA12
:104980000BE0284600F0CAF9A042F4D20446F2E750
:104990003146284600F0CDF90446204670BD00009F
:1049A000883B002005F0CABD074810B5406830B10B
:1049B0008047002807D0BDE8104000F06BBCBDE880
:1049C000104001F02FBB10BD742C0020F0B5A3489F
:1049D0000023021D01780125101D4FF08054062987
:1049E0000BD11678360708D10678C6F30316032EC6
:1049F00006D0042E04D0052E02D0062907D00EE0E2
:104A0000B4F82463964FC6F304263E6002E016789D
:104A1000360704D10678C6F30316032E02D0062902
:104A200004D00FE0904F8F4E7E670EE01678360769
:104A300008D10678C6F30316032E06D0042E04D040
:104A4000052E02D0062907D00EE0D4F84462874F25
:104A5000C6F342363E6002E01678360704D1067887
:104A6000C6F30316032E02D0062906D011E0804EAD
:104A7000376827F0807737600EE01678360708D160
:104A80000678C6F30316032E06D0042E04D0052E96
:104A900002D006290AD011E04FF08046C6F80C314A
:104AA000C6F81031714E361F336002E016783607B3
:104AB00004D10678C6F30316032E02D0062905D0CA
:104AC0000CE06A4F032664373E600AE0167836072A
:104AD00004D10678C6F30316032E02D006290DD0A2
:104AE00014E0644F05263E60624E78363560614EB4
:104AF000083633603F263F1D3E6002E016783607D9
:104B000004D10678C6F30316052E02D0062957D025
:104B100068E059490968594A11605749091D0968EF
:104B2000121D1160544908310968121D1160524963
:104B30000C310968121D11604F4910310968121DAE
:104B400011604D4914310968121D11604A4918312C
:104B500009684A4A2032116047491C310968121D10
:104B60001160454920310968121D11604249243104
:104B70000968121D1160404928310968121D116031
:104B80003D492C310968121D11603B4930310968DB
:104B90003A4A40321160384934310968121D1160B7
:104BA000354938310968121D116033493C310968B3
:104BB000121D1160304940310968121D116002E078
:104BC000117809070ED10078C0F30310032803D031
:104BD000042801D0052805D1D4F85802284900F04E
:104BE0004F00086022487438016841F47001016088
:104BF000BFF34F8FBFF36F8F4FF01021D1F800023A
:104C0000002803DBD1F80402002822DA1D4A1560CF
:104C10001D480468002CFCD01524C1F8004205682A
:104C2000002DFCD0C1F8044201680029FCD01360BB
:104C300001680029FCD0BFF34F8F0D48F0380168A0
:104C4000124A01F4E06111430160BFF34F8F00BFCE
:104C5000FDE710490E480860F0BD0000E00F00F0CD
:104C6000403501400DF0ADBA00C007403C050040A2
:104C7000FCED00E0105600400404001020C5004088
:104C8000E40E004004E5014000E401400400FA05A0
:104C90000090D003802C00200448017F04480029A4
:104CA000024901D005F031BE05F0A0BD0437002057
:104CB0000020004010B5124C02202061606111A05C
:104CC000A061A4F50470E0614FF400702062002040
:104CD000A06260620BA1A164E062A4F11001E16432
:104CE00010212165A0656065E06509A1E01DFEF762
:104CF0003FFB08A12046FEF73BFB2020A07110BD22
:104D0000883B00205465726D696E616C0000000084
:104D10005254540053454747455200000269C16848
:104D20008A4203D88068401A104400E0501A401E9E
:104D300070472DE9F047C4681746894606464FF08C
:104D400000083069A04201D9051B02E0B168201AB1
:104D50000D1AB0686D1E001BA84200D80546BD4262
:104D600000D33D4670682A4620444946FEF7C8FAFB
:104D7000B0687F1B2C44A844A944A04200D1002461
:104D8000F460002FDDD14046BDE8F0872DE9F04109
:104D9000C6680446174688468068851B6068BD4221
:104DA00006D93044FEF7ACFAF019E060BDE8F081B6
:104DB0002A463044FEF7A4FA7E1B08EB0501324672
:104DC0006068FEF79DFAE660F0E700000FB41CB5DE
:104DD0000246002007AC00290BD0491ECDE9002176
:104DE000054B6A462146069800F018F8009A002103
:104DF00011701CBC5DF814FB7F52070002E008C86C
:104E0000121F08C1002AFAD170477047002001E044
:104E100001C1121F002AFBD1704700002DE9FF4F8E
:104E20008DB00F460546002606E025280BD0DDE9AB
:104E30000F1290476D1C761C28780028F5D111B010
:104E40003046BDE8F08F0024A246A1460122EC497D
:104E500000E0044315F8013F203B02FA03F008424A
:104E6000F7D128782A2810D06FF02F022878A0F1E7
:104E70003001092914D80AEB8A0102EB410144F000
:104E8000020400EB010A6D1CF0E701CF5FEA000AA3
:104E900003D544F40054CAF1000A44F002046D1C26
:104EA00028782E2817D115F8010F44F004042A2879
:104EB0000ED06FF02F022878A0F1300109290AD80E
:104EC00009EB890102EB410100EB01096D1CF2E7DE
:104ED00057F8049B6D1C28786C280FD006DC4C28F2
:104EE00017D068280DD06A2814D104E0742810D097
:104EF0007A280FD10DE044F400140AE044F4801441
:104F000001E044F440146978814202D104F5801430
:104F10006D1C6D1C2A786E2A1FD00CDC632A31D0E0
:104F200004DC002A8BD0582A11D1A3E0642A68D06F
:104F3000692A0CD165E0732A2ED004DC6F2A73D065
:104F4000702A04D19BE0752A6FD0782A6ED0104663
:104F5000DDE90F129047761C50E1C4F3025002289D
:104F600006D0032809D0042801CF09D0066045E106
:104F700001CFF117C0E9006140E101CF06803DE1BA
:104F800006703BE117F8040B8DF8000000208DF847
:104F90000100EB46012003E057F804BB4FF0FF305F
:104FA00061074FF0000102D40DE008F101018846CD
:104FB00049450FDA8045F8DB1BF808100029F4D1C9
:104FC00008E008F1010188468142FADB1BF808106D
:104FD0000029F6D1DDE90F23AAEB0800814621461E
:104FE00000F036F9304400EB080604E0DDE90F126A
:104FF0001BF8010B9047B8F10108F7D2214648464B
:10500000F7E00A21C4F302534FF0000B0891022B82
:1050100004D001CFC117032B09D00AE0FF1D27F0F0
:105020000707F7E8020108E032E01FE020E000B2E5
:10503000C117042B01D140B2C117031E71F1000347
:1050400007DA4FF0000CD0EB0C006CEB01012D23C4
:1050500002E0230504D52B238DF82430012303E03F
:10506000E30701D02023F7E7984658E00A2110E033
:1050700010210EE010204FF0000B08900CE01021E2
:105080004FF0000B44F004044FF00809089103E0CE
:1050900008214FF0000B0891C4F30253022B04D0F7
:1050A00001CF0021032B06D006E0FF1D27F00707E4
:1050B000F7E8020103E080B2042B00D1C0B24FF048
:1050C000000823072BD5702A07D0DDF820C08CF00C
:1050D000100C5CEA0B0C05D00EE040238DF8243058
:1050E000012308E050EA010306D030238DF8243074
:1050F0008DF8252002239846DDF820C08CF0080C9E
:105100005CEA0B0C0BD150EA010301D1630706D511
:1051100030238DF824304FF00108A9F10109582AF5
:1051200004D038A20B9208AA0A920BE03AA2F9E73F
:105130005B46089AFEF7A0F80B9B9B5C0A9A521EEE
:105140000A92137050EA0102F2D10A98ADEB000006
:1051500000F1200B600702D524F4803401E04FF009
:105160000109D94502DDA9EB0B0000E0002000EBAE
:105170000B0141440890AAEB010AE00306D4DDE9E3
:105180000F232146504600F063F806444FF0000913
:1051900008E009A911F80900DDE90F12904709F1AB
:1051A0000109761CC145F4DBE0030CD5DDE90F23D2
:1051B0002146504600F04CF8064404E0DDE90F12A9
:1051C00030209047761C0899481E08900029F5DC8D
:1051D00008E00A980A990078491C0A91DDE90F1243
:1051E0009047761CBBF10001ABF1010BF1DC2146CD
:1051F0005046DDE90F2300F019F806446D1C1BE64C
:10520000092801003031323334353637383961629C
:105210006364656600000000303132333435363760
:105220003839414243444546000000002DE9F04131
:10523000044600251E461746880404D405E0394676
:105240002020B0476D1C641EF9D52846BDE8F081CA
:105250002DE9F041044600251E469046C80301D5BD
:10526000302700E02027880404D505E04146384671
:10527000B0476D1C641EF9D52846BDE8F0814A6828
:10528000002A06D00A68531C0B6010704868401E44
:1052900048607047024603A1012003F099FEFFF722
:1052A000C7FA00003A4552524F523A726563656937
:1052B00076656420616E206572726F723A20307874
:1052C00025303878210D0A002DE9F84F254C81460C
:1052D000924660880E46814241D800274FF6FF78FB
:1052E0008DF80070684600F005F922786078A18892
:1052F000884201DA401C00E00020C0B2904204D194
:105300009DF8000000F01AF927E06578607888427F
:1053100001DA401C00E0002060709DF8000000F001
:105320000DF9454519D0A068B9F1000F40F835A036
:105330000DD066B16188E068324605FB0100494640
:10534000FDF7DEFFA06800EBC500868002E000EB01
:10535000C50087800020BDE8F88F0420FBE7092006
:10536000F9E700004C2C002010B50E4C03E0401C67
:1053700000E00020207020786178814210D02278EF
:105380006188E068A36802FB010003EBC20153F8E7
:105390003220898890472078A1888842E9DAE6E7B8
:1053A00010BD00004C2C002030B5CB0008339DB25E
:1053B00093074FF0000401D0072030BD044B9A60E2
:1053C0002A44DA605C701C7058809980002030BDDF
:1053D0004C2C0020074B9B7823B12AB120B10068E8
:1053E000037C1BB10820704707207047417442615D
:1053F000002070472437002070B504F0BBFD104832
:1054000000240B21047044700E4D817014206C60D8
:105410002C706C70FFF7DAF907211420FFF7F7F909
:105420001420FFF7DEF90848046007211120FFF778
:10543000EEF90548001F0068A860002070BD00005C
:10544000243700205C2C0020081501402DE9FC4782
:10545000DFF8789099F8023073B368B3052902D267
:105460000720BDE8FC87436933B3437C012B25D07B
:10547000002704460025884616468DF800506846E9
:1054800000F038F801A805F0C1FAC8B10121017097
:105490000F4944600968C0E90218C0E904769DF824
:1054A000040089F801009DF8000000F047F814207E
:1054B000FFF7A2F92846D4E70820D2E70F46D8E73D
:1054C00004259DF8000000F039F8F3E724370020A8
:1054D000041501400649897839B130B1416921B1DB
:1054E00000210174022105F0B7B8082070470000C0
:1054F0002437002030B5EFF3108172B60D4A94685E
:10550000012324B10370002900D162B630BD93603D
:105510004FF0E023D3F88051074C25401560C3F8C5
:105520008041D3F8844154605A17C3F88421002283
:105530000270E8E730380020FC06FFBD0B498A689E
:10554000002A11D000280FD1EFF3108072B60B683B
:105550004FF0E022C2F800314B68C2F8043100225B
:105560008A60002800D162B6704700003038002001
:105570002DE9F041064608680C46411C4FF0A04753
:105580004FF0010506D005FA00F1C7F808152068AC
:1055900003F08EFB6068411C02D0002103F07FFB0A
:1055A0003079204901EB4010A169007F0028306864
:1055B000C0F8241525D0607D227D31681043C1F8E4
:1055C0006C05D4E900123068C0F80C15C0F8142539
:1055D00024E0A068411C02D0002103F060FBE068D9
:1055E000411C05D08540C7F80855E06803F060FB12
:1055F000D4E902123068C0F80825C0F81015BDE8DB
:10560000F081607D217D32680843C2F86C05D4E9E1
:1056100000123068C0F81425C0F80C15207D012850
:10562000D7D0ECE7043700200249085C012103F0E1
:1056300062BB0000BDAB07000249085C002103F01B
:105640005ABB0000BDAB07007CB50024084E2546C0
:105650000122305D009500231146019503F0F2FA16
:10566000641C042CF4D3BDE87C4000F003B80000B7
:10567000BDAB070010B500242046FFF7D5FF641C22
:10568000042CF9D310BD002901DA0020704702680C
:10569000114401600120704710B543689C184460B4
:1056A00021B905E013F8010B01F8010B521EF9D2E4
:1056B000012010BD0249084490F9300070470000F5
:1056C0007C36002070B5084C050009D010342168E4
:1056D000002907D008682060496828468847F6E70F
:1056E0000834F4E770BD0000683600202DE9F05F53
:1056F00026484168F1B3DFF898B00E688146DBF8C0
:10570000004087688078E11B21F07F45ED1CB0B92F
:10571000DFF880804FF48030C8F84403C8F80403F1
:105720001120FFF753F81120FFF75BF84FF0010A43
:10573000C8F800A02F2001F035F889F802A0B54282
:1057400000D23546124BE8193C3320F07F401860F8
:10575000DBF800105A46091B21F07F41001B20F0A6
:105760007F40C91C81420FD9106818602F2001F0BA
:1057700019F800E004E0BDE8F05F1120FFF73CB845
:10578000BDE8F05F04F0F6BBBDE8F09F5C2C0020A4
:105790000415014000100140F0B54FF0FF3622B172
:1057A0001268D24300230A4D0DE03246FAE7C45C8A
:1057B00062400824D70700D037462F4087EA5202BC
:1057C000641EF7D15B1C8B42F1D3D043F0BD0000C7
:1057D0002083B8EDF0B5146906468DB020681546F3
:1057E000271DE0B1022920D00A2000906B4609AAAB
:1057F000304604F0A3FA00280FD009A901A8009AA6
:1058000004F0B2F901AE96E80F0005AE86E80F008D
:10581000236869683A4605A898470DB0F0BD0DB0F9
:105820003046BDE8F04004F013BA6946304604F053
:10583000A5F90028F1D0236869683A466846984778
:105840000028EAD002980028F5D101987060012064
:10585000E3E753685B7813F0C00303D0402B03D019
:105860000020704700F002B8FFF7B4BF2DE9FF41F8
:105870000B465168064614464878334D00F00F0237
:1058800010F0300055F8225006D0102806D02028FD
:1058900008D0302856D13EE022694DE061690120F0
:1058A000087047E0022B28D1042A26D84FF00108BF
:1058B00069463046676904F061F900281AD009E0AA
:1058C0000B79226913FB00226846A84770B138782B
:1058D000401C3870029820B1616838784A7990424B
:1058E000EED301987060029860BB02E04FF00008B0
:1058F000F7E7404604B0BDE8F081D4E904300F7901
:10590000027817FB023349798A421BD2521C02707B
:105910001A46616810E008786169072A087009D1A1
:10592000606801792069FDF704FD6068216980687D
:1059300004F03FF92269616804B03046AC46BDE826
:10594000F04160470020D5E768AD07000248816854
:10595000491E816070470000002C00201FB51148CF
:1059600000F15C01826B684604F0FEF80E489DE889
:105970000E0080E80E000C490C480E4AC8600C4925
:105980000020086048600C49074803F06FFE10B122
:10599000012004B010BD09A1012003F015FB002077
:1059A000F7E70000EC340020B0310020A199070097
:1059B000342C0020842C002054AB07003A4552526E
:1059C0004F523A48616E646C65723A20496E766156
:1059D0006C69642070726F746F636F6C206275669F
:1059E0006665722073747265616D0D0A00000000B7
:1059F0002DE9F8431F465FEA0208054600F104045A
:105A00004FF0000607D037B194F85F0028B194F842
:105A1000600010B156E004205CE0207A40B1E068FC
:105A2000342807D082A1012003F0CEFA062051E0ED
:105A300086A1CBE000204FF44052217C15E000BF4E
:105A400004EB8003B2F80CC05B6963450CD194F899
:105A50002510844889B1012918D0022912D00329C0
:105A600010D081A10320B2E0401C8142E8DC86A175
:105A7000012003F0A9FA07202CE021780029CAD0E0
:105A8000866803E021780029C5D0C66884A1334622
:105A90000320626803F0A3FA94F8250020B10228DD
:105AA00007D003280ED104E06068B0420AD286A174
:105AB00003E06068B04205D88AA1012003F084FAAF
:105AC000052007E095F8700040B18EA1032003F097
:105AD0007BFA0B20BDE8F84300F09EBA91A10320A9
:105AE00003F072FA994E9A4B3A463088ADF80000AE
:105AF0004146009800F036FD30B9954895F8712080
:105B000008384168914202D00A20BDE8F883006855
:105B100005F17201FDF7F4FB8EA1032003F054FAA6
:105B20007088ADF800003079894B894A8DF8020001
:105B3000083BA2F11001009800F0CBFC28B18CA129
:105B4000012003F041FA0520DFE790A1032003F0D4
:105B50003BFA7F4D0020243D286194F8251051B177
:105B600001291AD08F480229C0F5FC200AD0032948
:105B70001BD08DA12AE094F8340008B1A06B10E08E
:105B800091A123E094F82C1029B1216B2961814265
:105B900022D994A135E099A118E094F8260010B11B
:105BA000A06A286118E09CA110E094F82C1061B163
:105BB00094F8261049B1A26A216B53182B614AB19F
:105BC00041B1814208D99BA11BE0A2A1012003F0B1
:105BD000FBF920E7A5A11AE0AAA1032003F0F4F93C
:105BE0005B482022083004F13F010068FDF788FB84
:105BF000286958B1564A0021183A01F027FD58B1DA
:105C0000A7A1012003F0E0F904207EE7ADA1012067
:105C100003F0DAF9032078E7AFA10320EA6803F084
:105C2000D7F9B6A1032003F0CFF901206DE70000FA
:105C30003A4552524F523A4661756C747920485732
:105C40002076657273696F6E0D0A00003A455252F4
:105C50004F523A4E6F2048572076657273696F6EC7
:105C60000D0A0000EC3400203A494E464F3A556E7A
:105C70006B6E6F776E204657207570646174652077
:105C8000747970650D0A00003A4552524F523A53EA
:105C90004420726571206E6F74206D65740D0A006A
:105CA0003A494E464F3A5265712076657273696F74
:105CB0006E3A2025642C2045787065637465643ADB
:105CC0002025640D0A0000003A4552524F523A46D0
:105CD000572076657273696F6E20746F6F206C6FDA
:105CE000770D0A003A4552524F523A424C204657DD
:105CF0002076657273696F6E20746F6F206C6F779A
:105D00000D0A00003A494E464F3A496E76616C6979
:105D100064207369676E617475726520747970654B
:105D20000D0A00003A494E464F3A43616C63756C68
:105D30006174696E6720696E6974207061636B6558
:105D40007420686173680D0A00000000B8AB07009A
:105D5000242C00203A494E464F3A566572696679BE
:105D6000207369676E61747572650D0A000000002A
:105D70003A4552524F523A5369676E617475726573
:105D8000206661696C65640D0A0000003A494E4660
:105D90004F3A496D61676520766572696669656429
:105DA0000D0A0000003007003A4552524F523A5552
:105DB0006E6B6E6F776E20465720757064617465E8
:105DC00020747970650D0A003A4552524F523A4E8E
:105DD0006F2061707020696D6167652073697A65F5
:105DE0000D0A00003A4552524F523A424C20746F0D
:105DF0006F206C617267650D0A0000003A455252CF
:105E00004F523A4E6F20626C20696D616765207356
:105E1000697A650D0A0000003A4552524F523A4ED7
:105E20006F20534420696D6167652073697A650D41
:105E30000A0000003A4552524F523A424C20746FC9
:105E40006F206C61726765202853442B424C290DEA
:105E50000A0000003A4552524F523A4E4F20424CEF
:105E60002F53442073697A650D0A00003A45525257
:105E70004F523A424C2B53442073697A6520300DBF
:105E80000A0000003A494E464F3A52756E6E696EEE
:105E900067206861736820636865636B0D0A0000A2
:105EA0003A4552524F523A43616E27742066696EEA
:105EB0006420726F6F6D20666F72207570646174FC
:105EC000650D0A003A4552524F523A4E6F204657DE
:105ED0002073697A650D0A003A494E464F3A577267
:105EE00069746520616464726573732073657420DE
:105EF000746F203078253038780D0A003A494E46C4
:105F00004F3A4446552070726576616C69646174DD
:105F100065205355434345535346554C210D0A00C4
:105F200010B58278012A01D0052010BD0D4A0CCA97
:105F3000FFF75EFD0446012805D00BA1012003F008
:105F400043F8204610BD10A1032003F03DF814A132
:105F5000032003F039F8002002F09AFA0028F0D06C
:105F60000A2010BD342C00203A4552524F523A506C
:105F7000726576616C6964617465206661696C65DF
:105F800064210D0A000000003A494E464F3A507213
:105F90006576616C6964617465204F4B2E0D0A0053
:105FA0003A494E464F3A536176696E6720696E6989
:105FB0007420636F6D6D616E642E2E2E0D0A0000CD
:105FC000044A09B9002313705268002A00D0104710
:105FD00070470000442C00200E4910B50A784C7818
:105FE0000023A24212D0521CD2B20A70022A00D15F
:105FF0000B70084A0B780C3252F823200260886834
:10600000104420F07F408860012010BD0360002014
:1060100010BD00005C2C0020014908700B20704767
:10602000402C002038B50C4C2078002813D0607824
:10603000002810D1684648DF05280CD010B1FFF7C2
:1060400029F9F4E7009802F0B0FBA1680029EED02E
:1060500000988847EBE738BD742C002070B50E46D9
:106060000446007918494FF4A27501EB4010017FF6
:106070002068A1B14FF4887103F0A3F84FF4907138
:10608000206803F09EF84FF49271206803F099F8AD
:106090002946206803F095F80C49206809E04FF480
:1060A0008E7103F07DF82946206803F079F80849DD
:1060B0002068C0F80413206802F0A3FB3146BDE855
:1060C000704002F082BB0000043700201003020081
:1060D00080000200800701D0002070470120704737
:1060E00070B5054608680C464A68866828463146F9
:1060F00003F080FC6068286104F10C00686170782E
:106100000221B1EB901F01D1241D2C6170BD000054
:106110002DE9F047394E002780463D46DFF8E090F4
:10612000D6F804A057E003D00446D0F81C8035E030
:1061300099F8002002EB4201521CD2B289F80020EB
:1061400009EBC10199F80230091D9A4201D189F881
:10615000005048680A780446012A12D0022A02D068
:10616000032A3BD108E004F047FA00B10127257467
:1061700034E00574C06900E070680028F9D17060EF
:106180002CE0207C50BB88686060C868A06008690B
:10619000E0604869A061F07800B165606268B1684C
:1061A000184B501A20F07F40984202D2A168084450
:1061B00006E0881AA16820F07F40814202D9081ABF
:1061C000206000E0256065600120A5602074204605
:1061D000E56104F0F3F9B8F10000A4D199F80010DA
:1061E00099F801008142A3D117B97168514502D0D5
:1061F0000120BDE8F0870020FBE700005C2C0020B8
:1062000024370020FFFF7F0010B5002002F00CFFB4
:106210000EA1032002F0D8FEFFF716FA0220FFF7C6
:106220000BFA10490E48C1F8000700F0D5F808B184
:10623000FFF730F84FF44050806800F027F80AA1CB
:10624000032002F0C1FE002010BD00003A494E4676
:106250004F3A496E73696465206D61696E0D0A007D
:106260000C000300400000503A494E464F3A416648
:10627000746572206D61696E0D0A0000C20800F03D
:1062800007030120895C98400840704710B5044618
:10629000024613A1042002F09BFE01F0F1FC08B1BC
:1062A0001FA112E029A1042002F08EFE4FF0E02190
:1062B0004FF0FF30C1F8800122462CA1042002F0EB
:1062C00087FE204613DF28B134A1BDE8104001202D
:1062D00002F07ABE2046BDE81040FCF79BBF0000EC
:1062E0003A44454255473A52756E6E696E67206E64
:1062F00072665F626F6F746C6F616465725F61700C
:10630000705F73746172742077697468206164646B
:10631000726573733A203078253038780D0A0000A2
:106320003A4552524F523A4661696C656420727523
:106330006E6E696E67206E72665F6466755F6D6211
:10634000725F696E69745F73640D0A003A44454276
:1063500055473A44697361626C696E6720696E746F
:10636000657272757074730D0A0000003A444542FC
:1063700055473A53657474696E67205344207665B7
:1063800063746F72207461626C6520626173653A38
:10639000203078253038780D0A0000003A455252F6
:1063A0004F523A4661696C65642072756E6E696E13
:1063B000672073645F736F66746465766963655F95
:1063C000766563746F725F7461626C655F6261733E
:1063D000655F7365740D0A0010B507A1042002F013
:1063E000F3FD01F025FB040004D10BA1042002F011
:1063F000EBFD204610BD00003A44454255473A495E
:106400006E206E72665F626F6F746C6F616465722E
:106410005F696E69740D0A003A44454255473A4136
:1064200066746572206E72665F626F6F746C6F6106
:106430006465725F696E69740D0A000000F1804046
:106440000068002800D00120704708B500F18040A6
:10645000002101600068009008BD2DE9F00300F004
:10646000FF0C0023182530221C26382420274FF04B
:106470004009BCF10A0F25D2DFE80CF024051D0B02
:106480002015181D0B2014224A60282211E08A6072
:1064900002E0C1E900468C60BDE8F003C0F30720CC
:1064A0000C3100F0D0B84A60602202E042224A601B
:1064B00084220A60EBE7C1E90025E8E7C1E900971B
:1064C0004A46E4E74B600B608B60BDE8F0030620B2
:1064D00070472DE9F04186B01C4615460E468046B1
:1064E000FDF7EAF8074646B33DB334B3306830B33E
:1064F000296821B3216811B3FFF7ECFDF8B12868D2
:10650000FFF7E8FDD8B12068FFF7E4FDB8B101A9B5
:106510004046FFF7A2FF00280CD17068019988421D
:1065200007D16A680498824203D16068039988425F
:1065300007D0092006B0BDE8F0810E20FAE7102050
:10654000F8E708F0FF00042801D00620F2E70097E2
:10655000236829683068FDF7B3F808B10020E9E73F
:106560000B20E7E7F0B506461A48A1B01C004068CA
:10657000029004A817460D46019008D03DB120684E
:1065800038B1F0B2052806D0062021B0F0BD0E20AB
:10659000FBE71020F9E7694600F055F80028F4D130
:1065A00060680099884201D00920EEE701A93046D1
:1065B00000F035F80028E8D13A46294601A800F055
:1065C00059F80028E1D1224601A9304600F004F82C
:1065D000DBE7000060AD0700F8B51446054621B1C1
:1065E0001CB1486870280DD101E00720F8BD0E6885
:1065F000E8B2694600F027F80028F7D160680099F2
:10660000884201D00920F8BDC5F3072028B1002237
:106610003046216803F0ABFDF8BD0122F8E731B147
:106620000A6832B14968702905D2092070470E20E6
:10663000704710207047C0B2052801D0062070476F
:10664000104603F01DBE1422082811D2DFE800F026
:106650001004100406080C0E0A6003E01C2000E081
:1066600020200860002070473020FAE74020F8E73B
:106670000620704728B121B14368702B03D209204E
:10668000704707207047006803F0BABE00283ED06C
:106690001F49204A096800BF00BF00BF00BF00BFFC
:1066A00000BF00BF00BF91422FD000BF00BF00BF9E
:1066B00000BF00BF00BF00BF00BF00BF00BF00BFE2
:1066C00000BF00BF00BF00BF00BF00BF00BF00BFD2
:1066D00000BF00BF00BF00BF00BF00BF00BF00BFC2
:1066E00000BF00BF00BF00BF00BF00BF00BF00BFB2
:1066F00000BF00BF00BF00BF00BF00BF00BF00BFA2
:1067000000BF00BF00BF00BF00BF401EC3D1704725
:10671000802C00200024F40000283ED01F49204A8D
:10672000096800BF00BF00BF00BF00BF00BF00BFBF
:1067300000BF91422FD000BF00BF00BF00BF00BF0D
:1067400000BF00BF00BF00BF00BF00BF00BF00BF51
:1067500000BF00BF00BF00BF00BF00BF00BF00BF41
:1067600000BF00BF00BF00BF00BF00BF00BF00BF31
:1067700000BF00BF00BF00BF00BF00BF00BF00BF21
:1067800000BF00BF00BF00BF00BF00BF00BF00BF11
:1067900000BF00BF00BF401EC3D17047802C002047
:1067A0000024F40000283ED01F49204A096800BF99
:1067B00000BF00BF00BF00BF00BF00BF00BF9142CD
:1067C0002FD000BF00BF00BF00BF00BF00BF00BF91
:1067D00000BF00BF00BF00BF00BF00BF00BF00BFC1
:1067E00000BF00BF00BF00BF00BF00BF00BF00BFB1
:1067F00000BF00BF00BF00BF00BF00BF00BF00BFA1
:1068000000BF00BF00BF00BF00BF00BF00BF00BF90
:1068100000BF00BF00BF00BF00BF00BF00BF00BF80
:1068200000BF401EC3D17047802C00200024F4001C
:106830002DE9F14FDFF8E8804FF4405A4FF48054CF
:10684000D8F83000DAF80810D8F8246001EB000B13
:10685000351A34A1042002F0B7FBA1464C46A542EC
:1068600000D82C4600220121584601F047F80028A4
:1068700022D1002322465846009901F09BF80028B7
:106880001AD122465846009901F0CEF9070006D0E9
:106890005A462D490120009B02F0A1FB0BE000228B
:1068A0000121009801F02AF8070007D027A1012054
:1068B000009A02F08DFB3846BDE8F88FD8F830100A
:1068C00000202144C8F8301001F0E2FD0098A344F4
:1068D000204400902D1BC1D100223146DAF8080077
:1068E000FEF75AFFD8F8282005464446AA4208D1A8
:1068F00025A1042002F068FB0120A661C4E907502D
:1069000004E003462849012002F069FB04482430D2
:1069100001F07EF9BDE8F84F002001F0B9BD00009C
:10692000EC3400203A44454255473A456E7465724E
:10693000206E72665F6466755F6170705F636F6E14
:1069400074696E75650D0A00F0B007003A45525241
:106950004F523A417070207570646174653A2046F8
:1069600061696C7572652065726173696E6720700C
:1069700061676520617420616464723A2030782513
:106980003038780D0A0000003A44454255473A53E2
:10699000657474696E672061707020617320766120
:1069A0006C69640D0A0000009CB0070010B511A1CD
:1069B000042002F009FB184C206A012801D017A11D
:1069C0000CE0E06978B14FF44050A1698068002282
:1069D000FEF7E2FEE169814205D01BA1042002F02E
:1069E000F3FA002010BD20A1042002F0EDFA0120EE
:1069F00010BD00003A44454255473A456E746572F1
:106A0000206E72665F6466755F6170705F69735F48
:106A100076616C69640D0A00EC3400203A4445420A
:106A200055473A52657475726E2066616C736520C5
:106A3000696E2076616C696420617070206368659E
:106A4000636B0D0A000000003A44454255473A5234
:106A5000657475726E2066616C736520696E204383
:106A600052430D0A000000003A44454255473A524D
:106A7000657475726E20747275652E204170702079
:106A80007761732076616C69640D0A00F8B50E4673
:106A90000A681A49496B0D18541A4FF44050009473
:106AA00082682B4616A1042002F0A1FA224629464C
:106AB000234801F0B9F888B123462A462149042029
:106AC00002F08DFA2146284601F0BCF8040003D0FC
:106AD0001DA1012002F078FA2046F8BD23A1042070
:106AE00002F072FA304601F093F829A1042002F076
:106AF0006BFA334801F0CCFC0446EDE7EC3400209F
:106B00003A44454255473A566572696679696E67F7
:106B100020424C3A20416464723A20307825303863
:106B2000782C205372633A203078253038782C2026
:106B30004C656E3A203078253038780D0A00000018
:106B40000030070034B107003A4552524F523A52D2
:106B500065717565737420746F20636F707920425E
:106B60004C206661696C65640D0A00003A44454238
:106B700055473A426F6F746C6F616465722077613C
:106B8000732076657269666965640D0A000000000D
:106B90003A44454255473A57726974696E672073A3
:106BA000657474696E677320616E642072657365C5
:106BB00074696E67206465766963652E0D0A00004E
:106BC000519E07002DE9F047087801275D4CDFF85A
:106BD000788115460E464FF48079072878D2DFE891
:106BE00000F0A9042D5528A99F0058A1032002F008
:106BF000EBF9B06820B1484504D90420BDE8F0871E
:106C00000320FBE75AA1032002F0DEF96048006888
:106C1000FEF760FC08B1FEF73DFB4A48002588F806
:106C2000025020213830FCF784FB2563B068A06354
:106C300085E058A1032002F0C7F922E05CA10320FF
:106C400002F0C2F9B268E06BA36B1118994207D940
:106C50006860206CA8605EA1012002F0B5F9CFE762
:106C6000384B71685C331844FCF74AFBE06BB16841
:106C7000344A0844E063D6E901014032FEF78CFD56
:106C80002064E06B6860206CA86058E05DA1032080
:106C900002F09AF9D4E90E01814205D062A10120E7
:106CA00002F092F90820A9E768A1032002F08CF90C
:106CB00098F80200444608B101209FE76BA1032029
:106CC00002F082F9FEF74AFE012802D0052095E77E
:106CD00030E0694890F8741049B168A1032002F0CF
:106CE00073F96E49A1F2B440FFF71AF908E0007891
:106CF00050B16BA1032002F067F90320FFF78CF974
:106D00000746012805D01AE06EA1012002F05CF9C7
:106D1000DCE779A1032002F057F90120A0700EE012
:106D20007FA1032002F050F9206CA860E06BC5E958
:106D3000009004E086A1012002F046F902273846BF
:106D40005CE70000EC340020002C00203A494E465D
:106D50004F3A4265666F7265204F502063726561DD
:106D6000746520636F6D6D616E640D0A0000000034
:106D70003A494E464F3A56616C696420436F6D6DD7
:106D8000616E64204372656174650D0A0000000045
:106D900018AC07003A494E464F3A56616C69642078
:106DA000436F6D6D616E64204352430D0A00000015
:106DB0003A494E464F3A4265666F7265204F502001
:106DC000777269746520636F6D6D616E640D0A0082
:106DD0003A4552524F523A4572726F722E20496EA6
:106DE000697420636F6D6D616E64206C617267659C
:106DF00072207468616E2065787065637465642EB6
:106E0000200D0A003A494E464F3A4265666F726558
:106E1000204F50206578656375746520636F6D6DD4
:106E2000616E640D0A0000003A4552524F523A45D5
:106E30007865637574652077697468206661756C20
:106E40007479206F66667365740D0A003A494E4680
:106E50004F3A56616C696420636F6D6D616E64209A
:106E6000657865637574650D0A0000003A494E4601
:106E70004F3A0D0A00000000842C00203A494E468B
:106E80004F3A48616E646C696E67207369676E651E
:106E90006420636F6D6D616E640D0A00B031002077
:106EA0003A494E464F3A48616E646C696E67207588
:106EB0006E7369676E656420636F6D6D616E640DDE
:106EC0000A0000003A4552524F523A4465636F64DB
:106ED000656420636F6D6D616E64206275742069F6
:106EE0007420686173206E6F20636F6E74656E74BA
:106EF00021210D0A000000003A494E464F3A5365E1
:106F00007474696E672044465520666C616720740E
:106F10006F20696E697469616C697A65640D0A0035
:106F20003A494E464F3A56616C696420436F6D6D25
:106F3000616E643A204E52465F4446555F4F424A66
:106F40004543545F4F505F53454C4543540D0A0031
:106F50003A4552524F523A496E76616C6964204309
:106F60006F6D6D616E64204F7065726174696F6ED4
:106F70000D0A000070B505464FF440500CA184681E
:106F8000042002F021F8124901F118000A69012ACF
:106F900008D04A6932B189690C3001F6FF716FF38C
:106FA0000B010C442A462146BDE8704000F012B89F
:106FB0003A44454255473A456E746572206E726692
:106FC0005F6466755F636F6E74696E75650D0A0048
:106FD000EC3400202DE9F041064680680024154677
:106FE000884601280DD00127A52816D0AA281DD033
:106FF000AC2825D018A1012001F0E6FF2046BDE80D
:10700000F0811DA1042001F0DFFF20484069012824
:10701000F4D14046FFF70CFC10E01DA1042001F064
:10702000D3FF3146404601F087F811E01DA104204E
:1070300001F0CAFF31464046FFF728FD0446DDE770
:107040001DA1042001F0C0FF3146404601F024F8A4
:1070500004462F60D2E700003A4552524F523A534D
:10706000696E676C653A20496E76616C696420626E
:10707000616E6B0D0A0000003A44454255473A568E
:10708000616C6964204170700D0A0000EC340020CE
:107090003A44454255473A56616C69642053440D61
:1070A0000A0000003A44454255473A56616C69640B
:1070B00020424C0D0A0000003A44454255473A56DA
:1070C000616C6964205344202B20424C0D0A00005F
:1070D0002DE9F84F15460C004FF0010B1DD020781C
:1070E000CA4FCB4E4FF480594FF00008072871D299
:1070F000DFE800F0700464FEFD70FC00C5A1032011
:1071000001F062FFA26842B1100509D0786D3169C3
:107110001044884204D0C64967E00320BDE8F88FD8
:107120004A4504D9C3A1012001F04EFF50E0B078D8
:1071300050B17B6D3069991881420AD90090C949D4
:10714000012001F054FF46E0C749012001F03CFF57
:1071500041E0C6A1032001F037FFF86CB864A068D5
:107160007864786D38653863796909B9C7F8208023
:107170007178491C01F003017170A6F80680B168AE
:10718000491CB160A168F26801F6FF711044090B57
:10719000BD4A00F0B3FB40B1B068BCA1401EB06076
:1071A000012001F011FF0520B8E7B86C0090BF493D
:1071B00003203B6D7A6C01F01AFF1FE1386D6860A7
:1071C000B86CA860B07830B1A168B1F5807F04D9FF
:1071D0000420A3E714E10820A0E7386D7A6D084485
:1071E000801A7A6C904204D9B1A1012001F0ECFE22
:1071F00093E7864A60684832FEF7CEFAB864386D85
:10720000A268DFF8CCA2104438656860B86CA8604A
:10721000F088A268B9461118FF290AD87778616802
:107220000AEB07231844FCF76BF82189F08808441F
:107230004AE0C0F5807173788FB20AEB03221044E4
:107240003A466168FCF75CF8F0888F4B384480B2AE
:10725000F080A168C01CC91BA160616839446160ED
:10726000D9F83010F2684F4611440091B168820895
:10727000491CB160717800980AEB012100F09AFB7B
:1072800000285BD0B06893A1401EB060F288012056
:10729000009B01F0A4FEF86CB864786D38656860F6
:1072A000F86CA8607078401C00F003007070A6F8BD
:1072B0000680A268002A40D00AEB00206168FCF733
:1072C0001FF82089F1880844F0800004000CF2D0F7
:1072D000D9F85420D9F83010D9F844308A1A024429
:1072E0004C469A4229D3F2688F1802E07DE03BE0D9
:1072F00043E0B168C01C491CB160717882080AEB98
:107300000121614B384600F055FB10B3B0683B4695
:10731000401EB060F2886FA1012001F060FEE06CB9
:10732000A064606D20656860E06CA8607078401CA7
:1073300000F003007070A6F806805FE0F28872A18A
:107340000320009B01F04BFEF188386B0844386342
:10735000A8E73B46F2886CA1032001F040FEF188CB
:10736000206B08442063E1E76FA1032001F02CFEAD
:10737000386D6860B86CA86040E071A1032001F02E
:1073800023FED7E914017A6C431A934204D073A107
:10739000012001F024FE1EE77CA1032001F014FE71
:1073A000C7F84480386D7865B86CF864002001F047
:1073B0006FF808B10A20B1E6386D316988421DD1F5
:1073C00079490320B26801F003FE01E001F0EAF917
:1073D000B0680028FAD175A1032001F0F5FD3C4802
:1073E000B03800F059FC834608E077A1032001F093
:1073F000EBFDB86CA860386DC5E9009058468DE685
:1074000079A1012001F0E0FD0220ECE7EC3400203E
:10741000002C00203A494E464F3A4265666F72652D
:10742000204F50206372656174650D0A00000000F2
:1074300020AF07003A4552524F523A496E76616C7E
:1074400069642073697A6520666F72206F626A656D
:1074500063742028746F6F206C61726765290D0A50
:1074600000000000F4AF07006CAF07003A494E4639
:107470004F3A56616C6964204461746120437265BF
:107480006174650D0A0000004D5907003A455252DB
:107490004F523A4572617365206F7065726174690D
:1074A0006F6E206661696C65640D0A00B0AF0700FD
:1074B0003A4552524F523A5772697465207265715B
:1074C0007565737420746F6F206C6F6E670D0A00A2
:1074D000B02D00203A4552524F523A2121212046E8
:1074E00061696C65642073746F72696E67202564CE
:1074F000204220617420616464726573733A2030A5
:1075000078253038780D0A003A494E464F3A537480
:107510006F72696E6720256420422061743A2030C2
:1075200078253038780D0A003A494E464F3A426580
:10753000666F7265204F50206372630D0A00000071
:107540003A494E464F3A4265666F7265204F502069
:10755000657865637574650D0A0000003A455252FE
:107560004F523A496E76616C69642064617461209F
:10757000686572653A206578703A2025642C20672A
:107580006F743A2025640D0A000000003A494E4607
:107590004F3A56616C696420446174612045786596
:1075A000637574650D0A0000D4AE07003A494E4673
:1075B0004F3A446F696E6720706F737476616C69BF
:1075C000646174650D0A00003A494E464F3A5661AF
:1075D0006C69642044617461205265616420696E45
:1075E000666F0D0A000000003A4552524F523A4968
:1075F0006E76616C69642044617461204F706572BD
:107600006174696F6E0D0A0010B54FF0A040D0F89C
:107610001005000C10F0010F11D00A480068B128C5
:107620000DD00948816D012901D0002010BD002135
:107630008165084600F02CFF08B1FDF72BFE012004
:1076400010BD00001C050040EC3400202DE9F0477F
:1076500007464FF010208A464FF440594169D9F847
:1076600008001646081AA0F5405836A1042001F07B
:10767000ABFC26B1B84505D23BA1042042E007206F
:10768000BDE8F08745A1042001F09EFC494C4AA1C9
:107690000420226901F09CFC4DA10420A369226A08
:1076A00001F09DFC54A10420636AE26A01F097FC9A
:1076B000D9F808003060206A04F118054FF000097D
:1076C000012805D0C4F8109055A1C4F8149020E00A
:1076D00042465CA1042001F07BFC28683B4600F692
:1076E000FF70010B0903A8EB010188460A4660A15F
:1076F000042001F074FC0120474514D9BAF1000FB1
:1077000004D065A101F060FC0420B9E7C4E90409D4
:107710006BA1042001F058FCC5F80490C5F808904E
:1077200000202F60ACE7C4E90490A069316800F63E
:10773000FF706FF30B001F4D08442435306068A1C3
:107740000420E7E73A44454255473A456E7465726E
:10775000206E72665F6466755F66696E645F636102
:107760006368650D0A0000003A44454255473A4EA9
:107770006F2077617920746F206669742074686562
:10778000206E6577206669726D77617265206F6E15
:10779000206465766963650D0A0000003A4445423D
:1077A00055473A42616E6B20636F6E74656E740D5F
:1077B0000A000000EC3400203A44454255473A4262
:1077C000616E6B20747970653A2025640D0A0000A3
:1077D0003A44454255473A42616E6B203020636F10
:1077E00064653A203078253032783A2053697A65DA
:1077F0003A2025640D0A00003A44454255473A4272
:10780000616E6B203120636F64653A2030782530DB
:1078100032783A2053697A653A2025640D0A0000CF
:107820003A44454255473A4E6F2070726576696F0B
:1078300075732C207573696E672062616E6B2030E2
:107840000D0A00003A44454255473A667265655F45
:1078500073697A65206265666F72652062616E6B1E
:107860002073656C6563743A2025640D0A0000007E
:107870003A44454255473A667265655F73697A6571
:107880003A2025642C2073697A655F7265713A200D
:1078900025640D0A000000003A4552524F523A4604
:1078A00061696C7572653A206475616C2062616E05
:1078B0006B207265737472696374696F6E0D0A0070
:1078C0003A44454255473A456E666F7263696E6742
:1078D0002073696E676C652062616E6B0D0A000033
:1078E0003A44454255473A5573696E67207365635C
:1078F0006F6E642062616E6B0D0A00002DE9FF411E
:10790000044616460D460B464FF00008224615A1C8
:10791000042001F064FB200507D01BA1012001F029
:1079200053FB062004B0BDE8F081C4F30F372046B6
:1079300001F08CFB04F580546D1EF8D17EB1194A1C
:107940001068D2E90212CDE90006CDE90212200B3F
:10795000ADF80870ADF80A0000216846B04740460F
:10796000E0E700003A44454255473A457261736981
:107970006E673A203078253038782C206E756D3A55
:107980002025640D0A0000003A4552524F523A49F0
:107990006E76616C696420616464726573730D0A4C
:1079A00000000000C8AB07000149002008607047D4
:1079B0003C2C00202DE9FF411C46164605460027B9
:1079C00041B13DB141EA0500800705D0062004B071
:1079D000BDE8F0810320FAE77EB1284601F04EFBB6
:1079E0004CB10020CDE90250CDE900040146ADF8CC
:1079F0000C606846A0473846E9E703A1012001F082
:107A0000E3FA0420E3E700003A4552524F523A4667
:107A10006C6173683A20496E76616C6964206C65AC
:107A20006E67746820284E564D43290D0A000000E9
:107A300038B500242FA10420009401F0C5FA00F00D
:107A4000DFFCFDF7D9FC08B1FDF724FC314A002129
:107A50003148FDF7BFFC08B1FDF71CFC6846FFF795
:107A600089FA02004FF0010504D02CA1042001F096
:107A7000AFFA0095FFF7C8FD20B135A1042001F051
:107A8000A3FA00953D4804600098A8B9FEF78EFF60
:107A900090B1FEF78BFF48B14FF4405438A1042059
:107AA000A26801F095FAA068FEF7F0FB3BA1032065
:107AB00001F08AFA002038BD404A14210820FDF761
:107AC00073FC08B1FDF7E6FB00F012FE040006D0DF
:107AD00002463BA1012001F07BFA204638BD00F0B0
:107AE0006DFA44A1042001F06FFA30BFFDF73CFCB1
:107AF000FBE700003A44454255473A496E2072651B
:107B0000616C206E72665F6466755F696E69740D84
:107B10000A000000A19D070018AC07003A44454246
:107B200055473A436F756C64206E6F7420636F6EB7
:107B300074696E756520444655206F706572617476
:107B4000696F6E3A203078253038780D0A000000D1
:107B50003A44454255473A4170706C6963617469B3
:107B60006F6E2073656E7420626F6F746C6F6164EA
:107B7000657220726571756573740A001C0500409A
:107B80003A44454255473A4A756D70696E672074AC
:107B90006F3A203078253038780D0A003A494E4641
:107BA0004F3A4166746572207265616C206E726630
:107BB0005F6466755F696E69740D0A00403200206B
:107BC0003A4552524F523A436F756C64206E6F744F
:107BD00020696E6974616C697A6520444655207429
:107BE00072616E73706F72743A2030782530387815
:107BF0000D0A00003A44454255473A576169746995
:107C00006E6720666F72206576656E74730D0A006C
:107C100000210160416081600248016341630161AC
:107C200041617047EC3400201FB5054B01AC920850
:107C30001B6A009384E80700684618DF04B010BD93
:107C4000D8AB07001FB58908002201AB009283E87A
:107C50000700684618DF04B010BD00001FB5920889
:107C6000930502D0092004B010BD044B1B6800939B
:107C70000392CDE90110684618DFF4E7D8AB07009E
:107C80001FB5044B0FCB8DE80F00684618DF04B01A
:107C900010BD0000E8AB07002DE9F84F054690F84D
:107CA0003D000127DFF8D881032801D009201AE020
:107CB0007448734B0088ADF80000D8E903122C33E8
:107CC0000098FEF74FFC00B10A276D4820222C30A7
:107CD00005F13F010068FBF73EFB38B16AA10120C6
:107CE00001F072F90C20FEF797F907466C4E7069A7
:107CF00040B101280DD06BA1012001F065F90A20E7
:107D0000BDE8F88F73A1032001F05EF9644C1834CC
:107D100005E078A1032001F057F9614C24347DA1DE
:107D2000032001F051F995F825204FF0010A4FF09A
:107D30000009BAB384484FF44051012A05D0022A01
:107D40003FD0032A1DD00A273DE00A78142A01D922
:107D5000496900E00021B1FBF0F2D8F80C1001F500
:107D600000510B78142B01D9496900E00021B1FBC7
:107D7000F0F39A4225D07549032001F030F9052728
:107D800021E00A78142A01D9496900E00021B1FBF9
:107D9000F0F2D8F80C1001F500510B78142B02D931
:107DA000496901E00DE00021B1FBF0F39A4208D0EF
:107DB0006749032001F013F97069012801D1C6F861
:107DC0002090012F05D0C4F808904846C4F80490CC
:107DD0003EE060A1032001F0F7F895F8250080B19E
:107DE00001281AD002281AD003281BD00420FEF73D
:107DF00013F9074695F85F00C8B195F86000B0B177
:107E000022E0C4F808A070690128F3D15EA1032024
:107E100001F0DAF8C6F82090ECE7A52003E0AA20EC
:107E2000A060E7E7AC20A060A86A7063E2E795F87D
:107E3000250020B1022805D0032805D102E068689A
:107E4000B06001E06868F060B06C6060D8F8100065
:107E50002060134820213830FBF76BFA1048FF22CE
:107E6000B2215C30FBF75EFAC6F8309088F804A0C7
:107E7000514800F00DFB00B10A27384640E70000EA
:107E8000002C0020B8AB07003A4552524F523A48F6
:107E9000617368206661696C7572650D0A00000087
:107EA000EC3400203A4552524F523A496E74657292
:107EB0006E616C206572726F722C20696E76616CD7
:107EC00069642063757272656E742062616E6B0DF9
:107ED0000A0000003A494E464F3A43757272656E89
:107EE000742062616E6B2069732062616E6B20305A
:107EF0000D0A00003A494E464F3A43757272656E5C
:107F0000742062616E6B2069732062616E6B203138
:107F10000D0A00003A494E464F3A52756E6E696E30
:107F2000672053442076657273696F6E20636865BD
:107F3000636B203D3D3D3D3D3D3D3D3D3D3D3D3D3A
:107F40003D200D0A0000000040420F007CAE0700FB
:107F500014AE07003A494E464F3A53756363657352
:107F60007366756C6C792072616E20746865207020
:107F70006F737476616C69646174696F6E20636895
:107F800065636B210D0A00003A494E464F3A496E2F
:107F900076616C69646174696E67206F6C642061DE
:107FA00070706C69636174696F6E20696E206261C4
:107FB0006E6B20302E0D0A00D191070070B50120A4
:107FC000FFF7F2FC002820D1104D114CA860E8709A
:107FD0002871A06B70B1FDF7C1FC58B1206A68B977
:107FE000A06958B1094A00210C322861FFF72EFB25
:107FF0000120A8700020FEF70FF805E0E06A18B92C
:10800000A06908B1606AEDE7002070BD002C002077
:10801000EC34002010B50C780F4B012C01D0062C4D
:1080200007D10C79012C03D0022C01D0072010BD00
:108030001C701B78012B07D0022B09D007A101204F
:1080400000F0C2FF052010BDBDE81040FEF7BABD2C
:10805000BDE81040FFF73CB8002C00203A455252D2
:108060004F523A496E76616C69642072657175652C
:10807000737420747970650D0A000000054810B50E
:108080000179012903D0022903D101F0BBFE0121AE
:10809000C17010BD002C002070B50D4606460CA125
:1080A000042000F091FF2946304600F08BF80400D0
:1080B00001D011A106E029463046FEF7E7FC040096
:1080C00004D015A1012000F07FFF204670BD000004
:1080D0003A44454255473A456E746572206E726661
:1080E0005F6466755F73645F626C5F636F6E746913
:1080F0006E75650D0A0000003A4552524F523A53D0
:10810000442B424C3A20534420636F7079206661BF
:10811000696C65640D0A00003A4552524F523A5359
:10812000442B424C3A20424C20636F7079206661A8
:10813000696C65640D0A000070B50D4600F042F8E8
:10814000040005D008A1012000F03EFF204670BDCC
:108150002846FFF75DFD0EA1042000F035FFBDE8C5
:108160007040174800F094B93A4552524F523A5372
:10817000442075706461746520636F6E74696E75F8
:108180006174696F6E206661696C65640D0A000038
:108190003A44454255473A57726974696E6720738D
:1081A000657474696E677320616E642072657365AF
:1081B00074696E67206465766963652E0D0A000038
:1081C000519E07002DE9FE4F494F8046386B796B71
:1081D00000F58055081A00F6FF70060B360340F6CE
:1081E000FF7000EB9600040B240342A1042000F072
:1081F000EBFE386B796B804441B1884206D149A1CE
:10820000042000F0E1FE0020BDE8FE8FBB46C0B9AF
:1082100008F500500178142901D9416900E00021D6
:108220004748B1FBF0F34FF440510A78142A01D9C2
:10823000496900E00021B1FBF0F242A1042000F006
:10824000CEFEB44203D906F6FF70040B240305EBFF
:10825000040A0095CDE901A408EB040399464246BF
:108260004549042000F0CCFE224641462846FFF74F
:10827000F5FC070004D043462A464049009413E029
:108280000095CDE901A44B4642463D49042000F04B
:10829000B7FE224641462846FFF7C6FC070008D035
:1082A000384943462A460094012000F0A0FE384693
:1082B000AAE70095CDE901A44B46424632A104202D
:1082C00000F09EFE5546C846B44201D9002600E0A3
:1082D000361B3DA1042000F077FEDBF834100020AF
:1082E000891BCBF8301000F0D3F8002EA9D18BE712
:1082F000EC3400203A44454255473A456E74657265
:10830000206E72665F626F6F746C6F616465725F1E
:108310006466755F73645F636F6E74696E75650D17
:108320000A0000003A44454255473A534420616CE4
:10833000726561647920636F706965640D0A00007D
:10834000A08601003A44454255473A55706461742D
:10835000696E672053442E204F6C6420534420766E
:1083600065723A2025642C204E6577207665723A36
:108370002025640D0A00000078B1070050B2070004
:10838000BCB1070008B207003A44454255473A5687
:10839000616C696461746564203078253038782DAB
:1083A00030782530387820746F2030782530387850
:1083B0002D3078253038783A2053697A653A203064
:1083C00078253038780D0A003A44454255473A46F8
:1083D000696E69736865642077697468207468657C
:1083E000205344207570646174652E0D0A000000EE
:1083F000002258210148FDF7CFB90000F0340020D9
:1084000070B515A1042000F0DFFD1D4900204FF4D8
:10841000AE7508702A461B491B48FAF771FF1A4CC3
:108420002068401C04D0FFF7E3FF2168814212D08E
:108430001649042000F0C8FD29461348FAF779FFD1
:1084400001206060002000F023F8002803D0BDE880
:108450007040FCF71FBF70BD3A44454255473A7221
:10846000756E6E696E67206E72665F6466755F73A7
:10847000657474696E67735F696E69740D0A0000D4
:10848000442C002000F00700EC34002058B0070016
:1084900070B50546234A24A1042000F099FD2D4C17
:1084A0002D4E08E02DA1042000F08EFD3046FEF791
:1084B00033F9FCF759FF20780028F3D10120207010
:1084C0006560002201211748FFF718FA0728F8D045
:1084D000002508B12FA119E0FFF78AFF384957227C
:1084E000086038A1042000F073FD35494FF4AE72E6
:1084F000A1F5AE70FAF704FF3A4B57223A49094802
:10850000FFF758FA0728F7D030B138A1012000F062
:108510005BFD2570032070BD3FA1042000F054FDD9
:10852000002070BD00F007003A44454255473A45E7
:10853000726173696E67206F6C642073657474690F
:108540006E67732061743A203078253038780D0AD0
:1085500000000000442C0020A08601003A4445425F
:1085600055473A57616974696E6720666F72206F6C
:108570007468657220666C617368206F70657261E3
:1085800074696F6E20746F2066696E6973682E0D52
:108590000A0000003A4552524F523A4572617369DF
:1085A0006E672066726F6D20666C617368206D6502
:1085B0006D6F7279206661696C65642E0D0A00002A
:1085C000EC3400203A44454255473A577269746981
:1085D0006E672030782530387820776F7264730D9D
:1085E0000A000000C15F0700903300203A45525254
:1085F0004F523A53746F72696E6720746F20666CC5
:10860000617368206D656D6F7279206661696C6554
:10861000642E0D0A000000003A44454255473A577F
:10862000726974696E672073657474696E67732EFE
:108630002E2E0D0A000000002DE9F0410F48104FCA
:108640000025C01BC6080FA1042000F0BDFC324667
:1086500016A1042000F0BCFC002406E007EBC400D7
:1086600040688047050002D1641CB442F6D316A1CD
:10867000042000F0A9FC2846BDE8F08170B3070093
:1086800068B307003A44454255473A496E206E7236
:10869000665F6466755F7472616E73706F72747317
:1086A0005F636C6F73650D0A000000003A44454239
:1086B00055473A6E756D207472616E73706F727487
:1086C000733A2025640D0A003A44454255473A4121
:1086D00066746572206E72665F6466755F7472613F
:1086E0006E73706F7274735F696E69740D0A000047
:1086F0002DE9F0410F48104F0025C01BC6080FA1FF
:10870000042000F061FC324615A1042000F060FC5A
:10871000002405E057F834008047050002D1641CAE
:10872000B442F7D315A1042000F04EFC2846BDE862
:10873000F081000070B3070068B307003A44454277
:1087400055473A496E206E72665F6466755F747253
:10875000616E73706F7274735F696E69740D0A0075
:108760003A44454255473A6E756D207472616E7396
:10877000706F7274733A2025640D0A003A444542C2
:1087800055473A4166746572206E72665F6466751D
:108790005F7472616E73706F7274735F696E697407
:1087A0000D0A000030BFFCF7DFBD002801D1FCF747
:1087B00089BF704700F01F020121914040098000ED
:1087C00000F1E020C0F8801170474907090E002829
:1087D00006DA00F00F0202F1E02282F8141D03E035
:1087E00000F1E02282F8001400F01F020121914004
:1087F0004009800000F1E020C0F88012C0F80011AC
:108800007047000B40B270470121B1EB507F01D19E
:10881000012070470020704703490120C1F8080378
:10882000091D08607047000000D000402DE9F041AC
:1088300005460079164F904607EB40140E46E07E41
:1088400010B10820BDE8F081707F20772846FCF742
:108850008FFE5FEA080060603169216003D0317FDC
:108860002846FDF7FBFB287907EB4010007F002826
:10887000286801D0082100E00421C0F8001500207C
:10888000E0752076A0750121E176A076DAE7000098
:10889000043700202DE9F04105460079284E904626
:1088A00006EB40140F46207F18B10846FFF7ACFFD7
:1088B00080B1626800234FF404704FF4017172B10B
:1088C0002A7906EB4212127F002A2A6805D0C2F8E4
:1088D000080304E01020BDE8F081C2F80813E27D2F
:1088E000B2B1227E7AB162685AB12A7906EB42129D
:1088F000127F1AB12968C1F8040302E02868C0F8A1
:1089000004131120E7E72761012384F8188005E0AC
:1089100084F817800020E760607620762879424648
:1089200006EB40103946007F0028284603D0BDE8FA
:10893000F04100F073B8BDE8F04100F01BB8000052
:108940000437002070B504460079094D05EB40104E
:10895000017F00290AD1807E002807D1204601F03E
:108960004CFB2179012005EB4111887670BD000098
:10897000043700202DE9F05F04460079264901EB19
:108980004015A87E184302D1204601F036FB6868E6
:108990000028206806D04FF40171C0F804130020AD
:1089A000BDE8F09F4FF4A276314600F0F9FBB146E6
:1089B0004FF4927A4FF4847B5146206800F0EBFB31
:1089C00006465946206800F0E6FB80464946206886
:1089D00000F0E1FB074648EA07003043ECD056EAD6
:1089E000070007D12946206801F0E2FAE87D697E98
:1089F0008842E1D80020E8750EB10320D0E70FB11E
:108A00000F20CDE7A97E01200029216801D0086050
:108A1000C5E74860C3E70000043700202DE9F05F98
:108A2000894604464FF488759A46904600260068A9
:108A3000294600F0C6FB4FF4A2773946206800F0C3
:108A4000C0FB2068C0F83495C0F838852068BAF1BA
:108A5000000F14D0D0F8001241F02001C0F800122D
:108A60002179DFF8648008EB4110406850B120683C
:108A70004FF40471C0F804133046BDE8F09F0121A3
:108A80000160EDE7AA46B9464FF4927B5146206853
:108A900000F092FB07464946206800F08DFB054632
:108AA0005946206800F088FB014647EA0500084364
:108AB000ECD02379002208EB4310C27501B10326E4
:108AC000002DD9D00F26D7E7043700202DE9F04735
:108AD000054600793F4E904606EB40140F46207F36
